{
  "_format": "hh-sol-artifact-1",
  "contractName": "CarbonCertificate",
  "sourceName": "contracts/Contract.sol",
  "abi": [
    {
      "inputs": [],
      "stateMutability": "nonpayable",
      "type": "constructor"
    },
    {
      "anonymous": false,
      "inputs": [
        {
          "indexed": true,
          "internalType": "uint256",
          "name": "tokenId",
          "type": "uint256"
        },
        {
          "indexed": true,
          "internalType": "address",
          "name": "recipient",
          "type": "address"
        },
        {
          "indexed": false,
          "internalType": "uint256",
          "name": "carbonAmount",
          "type": "uint256"
        },
        {
          "indexed": false,
          "internalType": "string",
          "name": "projectId",
          "type": "string"
        }
      ],
      "name": "CertificateIssued",
      "type": "event"
    },
    {
      "inputs": [
        {
          "internalType": "uint256",
          "name": "tokenId",
          "type": "uint256"
        }
      ],
      "name": "getCertificate",
      "outputs": [
        {
          "components": [
            {
              "internalType": "uint256",
              "name": "carbonAmount",
              "type": "uint256"
            },
            {
              "internalType": "string",
              "name": "projectId",
              "type": "string"
            },
            {
              "internalType": "uint256",
              "name": "issueDate",
              "type": "uint256"
            }
          ],
          "internalType": "struct CarbonCertificate.Certificate",
          "name": "",
          "type": "tuple"
        }
      ],
      "stateMutability": "view",
      "type": "function"
    },
    {
      "inputs": [
        {
          "internalType": "address",
          "name": "owner",
          "type": "address"
        }
      ],
      "name": "getOwnedTokens",
      "outputs": [
        {
          "internalType": "uint256[]",
          "name": "",
          "type": "uint256[]"
        }
      ],
      "stateMutability": "view",
      "type": "function"
    },
    {
      "inputs": [
        {
          "internalType": "address",
          "name": "recipient",
          "type": "address"
        },
        {
          "internalType": "uint256",
          "name": "carbonAmount",
          "type": "uint256"
        },
        {
          "internalType": "string",
          "name": "projectId",
          "type": "string"
        }
      ],
      "name": "issueCertificate",
      "outputs": [
        {
          "internalType": "uint256[]",
          "name": "",
          "type": "uint256[]"
        }
      ],
      "stateMutability": "nonpayable",
      "type": "function"
    }
  ],
  "bytecode": "0x608080604052346100165761075d908161001c8239f35b600080fdfe6080604052600436101561001257600080fd5b60003560e01c80630ce51f561461025157806351640fee146100c95763d9d616551461003d57600080fd5b346100c4576020806003193601126100c4576001600160a01b0361005f6105e1565b166000526001808252604060002091604051918282855491828152019460005282600020926000905b8282106100af576100ab8661009f818a0382610613565b60405191829182610635565b0390f35b84548752958601959383019390830190610088565b600080fd5b346100c4576020806003193601126100c4576004356000604080516100ed816105f7565b8281526060858201520152806000526002825260ff604060002054161561020c576000526000815260406000208160405191610128836105f7565b80548352600180820190604051938492600092815491610147836106ed565b808752928281169081156101eb57506001146101af575b50505050916101746002926101a4940385610613565b85850193845201549160408401928352604051948594818652519085015251606060408501526080840190610670565b905160608301520390f35b6000908152838120939450925b8284106101d55750505082010185826101a4600261015e565b80548885018601528795509284019281016101bc565b60ff191687860152505050151560051b830101905085826101a4600261015e565b60405162461bcd60e51b815260048101839052601460248201527f546f6b656e20646f6573206e6f742065786973740000000000000000000000006044820152606490fd5b346100c45760603660031901126100c45761026a6105e1565b60443567ffffffffffffffff81116100c457366023820112156100c45780600401359067ffffffffffffffff82116104b1576102b1601f8301601f19166020016080610613565b8160805236602483830101116100c457600091602091819060240160a03760800101526024351561058c576102e76024356106b0565b906102f56040519283610613565b6024358252601f196103086024356106b0565b0136602084013760005b602435811061032957604051806100ab8582610635565b6103346003546106c8565b9081600355604051610345816105f7565b60018152602081019060808252426040820152836000526000602052604060002091815183555180519067ffffffffffffffff82116104b15761038b60018501546106ed565b601f8111610545575b50602090601f83116001146104d2576040939291600091836104c7575b50508160011b916000199060031b1c19161760018401555b01516002809201556001600160a01b038416600052600160205260406000208054680100000000000000008110156104b1576001810180835581101561049b57849160005260206000200155826000526020526040600020600160ff19825416179055835181101561049b57816104969260208360051b870101526040519060018252604060208301527f70e9dd7b2d7680ff10a6b1f6b97fe2e9888eb3098a9e2ee66104994c8c751adc6001600160a01b038616928061048e604082016080610670565b0390a36106c8565b610312565b634e487b7160e01b600052603260045260246000fd5b634e487b7160e01b600052604160045260246000fd5b0151905089806103b1565b906001850160005260206000209160005b601f198516811061052d575091839160019360409695601f19811610610514575b505050811b0160018401556103c9565b015160001960f88460031b161c19169055898080610504565b818301518455600190930192602092830192016104e3565b600185016000526020600020601f840160051c810160208510610585575b601f830160051c82018110610579575050610394565b60008155600101610563565b5080610563565b60405162461bcd60e51b815260206004820152602760248201527f436172626f6e20616d6f756e74206d7573742062652067726561746572207468604482015266616e207a65726f60c81b6064820152608490fd5b600435906001600160a01b03821682036100c457565b6060810190811067ffffffffffffffff8211176104b157604052565b90601f8019910116810190811067ffffffffffffffff8211176104b157604052565b6020908160408183019282815285518094520193019160005b82811061065c575050505090565b83518552938101939281019260010161064e565b919082519283825260005b84811061069c575050826000602080949584010152601f8019910116010190565b60208183018101518483018201520161067b565b67ffffffffffffffff81116104b15760051b60200190565b60001981146106d75760010190565b634e487b7160e01b600052601160045260246000fd5b90600182811c9216801561071d575b602083101461070757565b634e487b7160e01b600052602260045260246000fd5b91607f16916106fc56fea2646970667358221220edf9047dffcfad5331eb14e4e5321aa5122bb04b56bb3b26d18ca85dc6c4645764736f6c63430008140033",
  "linkReferences": {},
  "deployedLinkReferences": {}
}