{
  "_format": "hh-sol-artifact-1",
  "contractName": "CarbonCertificate",
  "sourceName": "contracts/Contract.sol",
  "abi": [
    {
      "inputs": [],
      "stateMutability": "nonpayable",
      "type": "constructor"
    },
    {
      "anonymous": false,
      "inputs": [
        {
          "indexed": true,
          "internalType": "uint256",
          "name": "tokenId",
          "type": "uint256"
        },
        {
          "indexed": true,
          "internalType": "address",
          "name": "recipient",
          "type": "address"
        },
        {
          "indexed": false,
          "internalType": "uint256",
          "name": "carbonAmount",
          "type": "uint256"
        },
        {
          "indexed": false,
          "internalType": "string",
          "name": "projectId",
          "type": "string"
        },
        {
          "indexed": false,
          "internalType": "bytes32",
          "name": "uniqueHash",
          "type": "bytes32"
        }
      ],
      "name": "CertificateIssued",
      "type": "event"
    },
    {
      "inputs": [
        {
          "internalType": "uint256",
          "name": "tokenId",
          "type": "uint256"
        }
      ],
      "name": "getCertificate",
      "outputs": [
        {
          "components": [
            {
              "internalType": "uint256",
              "name": "carbonAmount",
              "type": "uint256"
            },
            {
              "internalType": "string",
              "name": "projectId",
              "type": "string"
            },
            {
              "internalType": "uint256",
              "name": "issueDate",
              "type": "uint256"
            },
            {
              "internalType": "bytes32",
              "name": "uniqueHash",
              "type": "bytes32"
            }
          ],
          "internalType": "struct CarbonCertificate.Certificate",
          "name": "",
          "type": "tuple"
        }
      ],
      "stateMutability": "view",
      "type": "function"
    },
    {
      "inputs": [
        {
          "internalType": "bytes32",
          "name": "uniqueHash",
          "type": "bytes32"
        }
      ],
      "name": "getCertificateByHash",
      "outputs": [
        {
          "components": [
            {
              "internalType": "uint256",
              "name": "carbonAmount",
              "type": "uint256"
            },
            {
              "internalType": "string",
              "name": "projectId",
              "type": "string"
            },
            {
              "internalType": "uint256",
              "name": "issueDate",
              "type": "uint256"
            },
            {
              "internalType": "bytes32",
              "name": "uniqueHash",
              "type": "bytes32"
            }
          ],
          "internalType": "struct CarbonCertificate.Certificate",
          "name": "",
          "type": "tuple"
        }
      ],
      "stateMutability": "view",
      "type": "function"
    },
    {
      "inputs": [
        {
          "internalType": "address",
          "name": "owner",
          "type": "address"
        }
      ],
      "name": "getOwnedTokens",
      "outputs": [
        {
          "internalType": "uint256[]",
          "name": "",
          "type": "uint256[]"
        }
      ],
      "stateMutability": "view",
      "type": "function"
    },
    {
      "inputs": [
        {
          "internalType": "uint256",
          "name": "tokenId",
          "type": "uint256"
        }
      ],
      "name": "getTokenHash",
      "outputs": [
        {
          "internalType": "bytes32",
          "name": "",
          "type": "bytes32"
        }
      ],
      "stateMutability": "view",
      "type": "function"
    },
    {
      "inputs": [
        {
          "internalType": "address",
          "name": "recipient",
          "type": "address"
        },
        {
          "internalType": "uint256",
          "name": "carbonAmount",
          "type": "uint256"
        },
        {
          "internalType": "string",
          "name": "projectId",
          "type": "string"
        }
      ],
      "name": "issueCertificate",
      "outputs": [
        {
          "internalType": "bytes32[]",
          "name": "",
          "type": "bytes32[]"
        }
      ],
      "stateMutability": "nonpayable",
      "type": "function"
    },
    {
      "inputs": [
        {
          "internalType": "bytes32",
          "name": "uniqueHash",
          "type": "bytes32"
        }
      ],
      "name": "verifyCertificate",
      "outputs": [
        {
          "internalType": "bool",
          "name": "",
          "type": "bool"
        }
      ],
      "stateMutability": "view",
      "type": "function"
    }
  ],
  "bytecode": "0x6080806040523461001657610aa9908161001c8239f35b600080fdfe6080604052600436101561001257600080fd5b60003560e01c80630ce51f56146103c057806351640fee146102f2578063850c1768146102c457806390ab95cb14610160578063a0cc0dc5146101175763d9d616551461005e57600080fd5b3461011257602080600319360112610112576001600160a01b036100806108a2565b1660005260028152604060002060405190818382549182815201908192600052846000209060005b868282106100fe5786866100be828803836108d4565b604051928392818401908285525180915260408401929160005b8281106100e757505050500390f35b8351855286955093810193928101926001016100d8565b8354855290930192600192830192016100a8565b600080fd5b346101125760203660031901126101125760043580600052600360205261014560ff60406000205416610a27565b60005260006020526020600360406000200154604051908152f35b34610112576020806003193601126101125761017a610a02565b506004356000526001808252604060002054801561026d57600052600082526040600020604051916101ab836108b8565b8154835280820190604051916000918154916101c6836109b4565b8086529282811690811561024d5750600114610216575b61021287600388888c6101f2828b03836108d4565b84015260028101546040840152015460608201526040519182918261093e565b0390f35b60009081528781209093505b82841061023a5750505081018401846101f2836101dd565b8054858501890152928701928101610222565b60ff191689870152505050151560051b820185019050846101f2836101dd565b60405162461bcd60e51b815260048101849052602960248201527f436572746966696361746520776974682074686973206861736820646f6573206044820152681b9bdd08195e1a5cdd60ba1b6064820152608490fd5b3461011257602036600319011261011257600435600052600160205260206040600020541515604051908152f35b34610112576020806003193601126101125760043561030f610a02565b50806000526003825261032960ff60406000205416610a27565b60005260008152604060002060405190610342826108b8565b8054825260405160018083018054600092909161035e836109b4565b8086529282811690811561024d57506001146103895761021287600388888c6101f2828b03836108d4565b60009081528781209093505b8284106103ad5750505081018401846101f2836101dd565b8054858501890152928701928101610395565b34610112576060366003190112610112576103d96108a2565b60443567ffffffffffffffff811161011257366023820112156101125780600401359067ffffffffffffffff821161072957610420601f8301601f191660200160806108d4565b81608052366024838301011161011257600091602091819060240160a03760800101526024351561084d57610456602435610977565b9061046460405192836108d4565b6024358252601f19610477602435610977565b01366020840137610489602435610977565b61049660405191826108d4565b6024358152601f196104a9602435610977565b0136602083013760005b6024358110610502578360405180916020820160208352815180915260206040840192019060005b8181106104e9575050500390f35b82518452859450602093840193909201916001016104db565b61050d60045461098f565b908160045560405160208101906bffffffffffffffffffffffff198660601b16825261057160888260805160349061054c8183850160206080016108f6565b82019042908201528760548201523060601b60748201520360688101845201826108d4565b51902080600052600160205260406000205461080857806000526001602052826040600020556040516105a3816108b8565b600181526020810160808152426040830152826060830152846000526000602052604060002090825182555180519067ffffffffffffffff82116107295781906105f060018501546109b4565b601f81116107bb575b50602090601f831160011461074a5760009261073f575b50508160011b916000199060031b1c19161760018201555b600360606040840151936002948585015501519101556001600160a01b0386166000526020526040600020928354936801000000000000000085101561072957600185018082558510156107135761070e948291600052602060002001558060005260036020526040600020600160ff19825416179055806106aa84876109ee565b52816106b684896109ee565b527f0be85c2ad7f0f4afa889863fb0a492aa3ca3995c181a7ba82c54e65fbc10645660405160018152606060208201526106f4606082016080610919565b936040820152806001600160a01b038916940390a361098f565b6104b3565b634e487b7160e01b600052603260045260246000fd5b634e487b7160e01b600052604160045260246000fd5b015190508a80610610565b91506001840160005260206000209160005b601f19851681106107a3575090839291600194601f1981161061078a575b505050811b016001820155610628565b015160001960f88460031b161c191690558a808061077a565b8183015184556001909301926020928301920161075c565b909150600184016000526020600020601f840160051c810160208510610801575b601f830160051c820181106107f55750839291506105f9565b600081556001016107dc565b50806107dc565b60405162461bcd60e51b815260206004820152601760248201527f4861736820636f6c6c6973696f6e2064657465637465640000000000000000006044820152606490fd5b60405162461bcd60e51b815260206004820152602760248201527f436172626f6e20616d6f756e74206d7573742062652067726561746572207468604482015266616e207a65726f60c81b6064820152608490fd5b600435906001600160a01b038216820361011257565b6080810190811067ffffffffffffffff82111761072957604052565b90601f8019910116810190811067ffffffffffffffff82111761072957604052565b60005b8381106109095750506000910152565b81810151838201526020016108f9565b90602091610932815180928185528580860191016108f6565b601f01601f1916010190565b602081528151602082015260806060610965602085015183604086015260a0850190610919565b93604081015182850152015191015290565b67ffffffffffffffff81116107295760051b60200190565b600019811461099e5760010190565b634e487b7160e01b600052601160045260246000fd5b90600182811c921680156109e4575b60208310146109ce57565b634e487b7160e01b600052602260045260246000fd5b91607f16916109c3565b80518210156107135760209160051b010190565b60405190610a0f826108b8565b60006060838281528160208201528260408201520152565b15610a2e57565b60405162461bcd60e51b815260206004820152601460248201527f546f6b656e20646f6573206e6f742065786973740000000000000000000000006044820152606490fdfea264697066735822122081d1acf3ae4dc67aa6268eb38c5b77b872ab8bf0986ba527b5ac8dbe1818b54564736f6c63430008140033",
  "linkReferences": {},
  "deployedLinkReferences": {}
}