{
  "_format": "hh-sol-artifact-1",
  "contractName": "Lock",
  "sourceName": "contracts/Lock.sol",
  "abi": [
    {
      "inputs": [
        {
          "internalType": "uint256",
          "name": "_unlockTime",
          "type": "uint256"
        }
      ],
      "stateMutability": "payable",
      "type": "constructor"
    },
    {
      "inputs": [],
      "name": "unlockTime",
      "outputs": [
        {
          "internalType": "uint256",
          "name": "",
          "type": "uint256"
        }
      ],
      "stateMutability": "view",
      "type": "function"
    }
  ],
  "bytecode": "0x6080601f60dd38819003918201601f19168301916001600160401b03831184841017604c5780849260209460405283398101031260475751600055604051607a908160638239f35b600080fd5b634e487b7160e01b600052604160045260246000fdfe6080806040526004361015601257600080fd5b60003560e01c63251c1aa314602657600080fd5b34603f576000366003190112603f576020906000548152f35b600080fdfea2646970667358221220d79aad1435205d8be121fc3e24a2acaf0339a0f20eca7a60c257ba325700e15b64736f6c634300081b0033",
  "linkReferences": {},
  "deployedLinkReferences": {}
}