{
  "contracts/Lock.sol": {
    "Lock": {
      "abi": [
        {
          "inputs": [
            {
              "internalType": "uint256",
              "name": "_unlockTime",
              "type": "uint256"
            }
          ],
          "stateMutability": "payable",
          "type": "constructor"
        },
        {
          "inputs": [],
          "name": "unlockTime",
          "outputs": [
            {
              "internalType": "uint256",
              "name": "",
              "type": "uint256"
            }
          ],
          "stateMutability": "view",
          "type": "function"
        }
      ],
      "evm": {
        "bytecode": {
          "linkReferences": {},
          "object": "6080601f60dd38819003918201601f19168301916001600160401b03831184841017604c5780849260209460405283398101031260475751600055604051607a908160638239f35b600080fd5b634e487b7160e01b600052604160045260246000fdfe6080806040526004361015601257600080fd5b60003560e01c63251c1aa314602657600080fd5b34603f576000366003190112603f576020906000548152f35b600080fdfea2646970667358221220d79aad1435205d8be121fc3e24a2acaf0339a0f20eca7a60c257ba325700e15b64736f6c634300081b0033",
          "opcodes": "PUSH1 0x80 PUSH1 0x1F PUSH1 0xDD CODESIZE DUP2 SWAP1 SUB SWAP2 DUP3 ADD PUSH1 0x1F NOT AND DUP4 ADD SWAP2 PUSH1 0x1 PUSH1 0x1 PUSH1 0x40 SHL SUB DUP4 GT DUP5 DUP5 LT OR PUSH1 0x4C JUMPI DUP1 DUP5 SWAP3 PUSH1 0x20 SWAP5 PUSH1 0x40 MSTORE DUP4 CODECOPY DUP2 ADD SUB SLT PUSH1 0x47 JUMPI MLOAD PUSH1 0x0 SSTORE PUSH1 0x40 MLOAD PUSH1 0x7A SWAP1 DUP2 PUSH1 0x63 DUP3 CODECOPY RETURN JUMPDEST PUSH1 0x0 DUP1 REVERT JUMPDEST PUSH4 0x4E487B71 PUSH1 0xE0 SHL PUSH1 0x0 MSTORE PUSH1 0x41 PUSH1 0x4 MSTORE PUSH1 0x24 PUSH1 0x0 REVERT INVALID PUSH1 0x80 DUP1 PUSH1 0x40 MSTORE PUSH1 0x4 CALLDATASIZE LT ISZERO PUSH1 0x12 JUMPI PUSH1 0x0 DUP1 REVERT JUMPDEST PUSH1 0x0 CALLDATALOAD PUSH1 0xE0 SHR PUSH4 0x251C1AA3 EQ PUSH1 0x26 JUMPI PUSH1 0x0 DUP1 REVERT JUMPDEST CALLVALUE PUSH1 0x3F JUMPI PUSH1 0x0 CALLDATASIZE PUSH1 0x3 NOT ADD SLT PUSH1 0x3F JUMPI PUSH1 0x20 SWAP1 PUSH1 0x0 SLOAD DUP2 MSTORE RETURN JUMPDEST PUSH1 0x0 DUP1 REVERT INVALID LOG2 PUSH5 0x6970667358 0x22 SLT KECCAK256 0xD7 SWAP11 0xAD EQ CALLDATALOAD KECCAK256 TSTORE DUP12 0xE1 0x21 0xFC RETURNDATACOPY 0x24 LOG2 0xAC 0xAF SUB CODECOPY LOG0 CALLCODE 0xE 0xCA PUSH27 0x60C257BA325700E15B64736F6C634300081B003300000000000000 "
        },
        "methodIdentifiers": {
          "unlockTime()": "251c1aa3"
        }
      }
    }
  }
}