{
  "contracts/Contract.sol": {
    "CarbonCertificate": {
      "abi": [
        {
          "inputs": [],
          "stateMutability": "nonpayable",
          "type": "constructor"
        },
        {
          "anonymous": false,
          "inputs": [
            {
              "indexed": true,
              "internalType": "uint256",
              "name": "tokenId",
              "type": "uint256"
            },
            {
              "indexed": true,
              "internalType": "address",
              "name": "recipient",
              "type": "address"
            },
            {
              "indexed": false,
              "internalType": "uint256",
              "name": "carbonAmount",
              "type": "uint256"
            },
            {
              "indexed": false,
              "internalType": "string",
              "name": "projectId",
              "type": "string"
            },
            {
              "indexed": false,
              "internalType": "bytes32",
              "name": "uniqueHash",
              "type": "bytes32"
            }
          ],
          "name": "CertificateIssued",
          "type": "event"
        },
        {
          "anonymous": false,
          "inputs": [
            {
              "indexed": false,
              "internalType": "string",
              "name": "message",
              "type": "string"
            },
            {
              "indexed": false,
              "internalType": "address",
              "name": "recipient",
              "type": "address"
            },
            {
              "indexed": false,
              "internalType": "uint256",
              "name": "amount",
              "type": "uint256"
            },
            {
              "indexed": false,
              "internalType": "string",
              "name": "projectId",
              "type": "string"
            }
          ],
          "name": "DebugLog",
          "type": "event"
        },
        {
          "inputs": [
            {
              "internalType": "uint256",
              "name": "tokenId",
              "type": "uint256"
            }
          ],
          "name": "getCertificate",
          "outputs": [
            {
              "components": [
                {
                  "internalType": "uint256",
                  "name": "carbonAmount",
                  "type": "uint256"
                },
                {
                  "internalType": "string",
                  "name": "projectId",
                  "type": "string"
                },
                {
                  "internalType": "uint256",
                  "name": "issueDate",
                  "type": "uint256"
                },
                {
                  "internalType": "bytes32",
                  "name": "uniqueHash",
                  "type": "bytes32"
                }
              ],
              "internalType": "struct CarbonCertificate.Certificate",
              "name": "",
              "type": "tuple"
            }
          ],
          "stateMutability": "view",
          "type": "function"
        },
        {
          "inputs": [
            {
              "internalType": "bytes32",
              "name": "uniqueHash",
              "type": "bytes32"
            }
          ],
          "name": "getCertificateByHash",
          "outputs": [
            {
              "components": [
                {
                  "internalType": "uint256",
                  "name": "carbonAmount",
                  "type": "uint256"
                },
                {
                  "internalType": "string",
                  "name": "projectId",
                  "type": "string"
                },
                {
                  "internalType": "uint256",
                  "name": "issueDate",
                  "type": "uint256"
                },
                {
                  "internalType": "bytes32",
                  "name": "uniqueHash",
                  "type": "bytes32"
                }
              ],
              "internalType": "struct CarbonCertificate.Certificate",
              "name": "",
              "type": "tuple"
            }
          ],
          "stateMutability": "view",
          "type": "function"
        },
        {
          "inputs": [
            {
              "internalType": "address",
              "name": "owner",
              "type": "address"
            }
          ],
          "name": "getOwnedTokens",
          "outputs": [
            {
              "internalType": "uint256[]",
              "name": "",
              "type": "uint256[]"
            }
          ],
          "stateMutability": "view",
          "type": "function"
        },
        {
          "inputs": [
            {
              "internalType": "uint256",
              "name": "tokenId",
              "type": "uint256"
            }
          ],
          "name": "getTokenHash",
          "outputs": [
            {
              "internalType": "bytes32",
              "name": "",
              "type": "bytes32"
            }
          ],
          "stateMutability": "view",
          "type": "function"
        },
        {
          "inputs": [
            {
              "internalType": "address",
              "name": "recipient",
              "type": "address"
            },
            {
              "internalType": "uint256",
              "name": "carbonAmount",
              "type": "uint256"
            },
            {
              "internalType": "string",
              "name": "projectId",
              "type": "string"
            }
          ],
          "name": "issueCertificate",
          "outputs": [
            {
              "internalType": "bytes32[]",
              "name": "",
              "type": "bytes32[]"
            }
          ],
          "stateMutability": "nonpayable",
          "type": "function"
        },
        {
          "inputs": [
            {
              "internalType": "bytes32",
              "name": "uniqueHash",
              "type": "bytes32"
            }
          ],
          "name": "verifyCertificate",
          "outputs": [
            {
              "internalType": "bool",
              "name": "",
              "type": "bool"
            }
          ],
          "stateMutability": "view",
          "type": "function"
        }
      ],
      "evm": {
        "bytecode": {
          "linkReferences": {},
          "object": "6080806040523461001657610bce908161001c8239f35b600080fdfe6080604052600436101561001257600080fd5b60003560e01c80630ce51f56146103c057806351640fee146102f2578063850c1768146102c457806390ab95cb14610160578063a0cc0dc5146101175763d9d616551461005e57600080fd5b3461011257602080600319360112610112576001600160a01b036100806109c7565b1660005260028152604060002060405190818382549182815201908192600052846000209060005b868282106100fe5786866100be828803836109f9565b604051928392818401908285525180915260408401929160005b8281106100e757505050500390f35b8351855286955093810193928101926001016100d8565b8354855290930192600192830192016100a8565b600080fd5b346101125760203660031901126101125760043580600052600360205261014560ff60406000205416610b4c565b60005260006020526020600360406000200154604051908152f35b34610112576020806003193601126101125761017a610b27565b506004356000526001808252604060002054801561026d57600052600082526040600020604051916101ab836109dd565b8154835280820190604051916000918154916101c683610ad9565b8086529282811690811561024d5750600114610216575b61021287600388888c6101f2828b03836109f9565b840152600281015460408401520154606082015260405191829182610a63565b0390f35b60009081528781209093505b82841061023a5750505081018401846101f2836101dd565b8054858501890152928701928101610222565b60ff191689870152505050151560051b820185019050846101f2836101dd565b60405162461bcd60e51b815260048101849052602960248201527f436572746966696361746520776974682074686973206861736820646f6573206044820152681b9bdd08195e1a5cdd60ba1b6064820152608490fd5b3461011257602036600319011261011257600435600052600160205260206040600020541515604051908152f35b34610112576020806003193601126101125760043561030f610b27565b50806000526003825261032960ff60406000205416610b4c565b60005260008152604060002060405190610342826109dd565b8054825260405160018083018054600092909161035e83610ad9565b8086529282811690811561024d57506001146103895761021287600388888c6101f2828b03836109f9565b60009081528781209093505b8284106103ad5750505081018401846101f2836101dd565b8054858501890152928701928101610395565b34610112576060366003190112610112576103d96109c7565b60443567ffffffffffffffff811161011257366023820112156101125780600401359067ffffffffffffffff82116107c557610420601f8301601f191660200160806109f9565b81608052366024838301011161011257600091602091819060240160a037608001015260243515610972576001600160a01b0381161561092e57608051156108e9577fa5d995df69b78a28690bf3ff819e003fc9f216dc4f017b8b5fb0df3eeddd840460405160808152601760808201527f697373756543657274696669636174652063616c6c656400000000000000000060a08201526001600160a01b0383166020820152602435604082015260c06060820152806104e460c082016080610a3e565b0390a16104f2602435610a9c565b9061050060405192836109f9565b6024358252601f19610513602435610a9c565b01366020840137610525602435610a9c565b61053260405191826109f9565b6024358152601f19610545602435610a9c565b0136602083013760005b602435811061059e578360405180916020820160208352815180915260206040840192019060005b818110610585575050500390f35b8251845285945060209384019390920191600101610577565b6105a9600454610ab4565b908160045560405160208101906bffffffffffffffffffffffff198660601b16825261060d6088826080516034906105e8818385016020608001610a1b565b82019042908201528760548201523060601b60748201520360688101845201826109f9565b5190208060005260016020526040600020546108a4578060005260016020528260406000205560405161063f816109dd565b600181526020810160808152426040830152826060830152846000526000602052604060002090825182555180519067ffffffffffffffff82116107c557819061068c6001850154610ad9565b601f8111610857575b50602090601f83116001146107e6576000926107db575b50508160011b916000199060031b1c19161760018201555b600360606040840151936002948585015501519101556001600160a01b038616600052602052604060002092835493680100000000000000008510156107c557600185018082558510156107af576107aa948291600052602060002001558060005260036020526040600020600160ff19825416179055806107468487610b13565b52816107528489610b13565b527f0be85c2ad7f0f4afa889863fb0a492aa3ca3995c181a7ba82c54e65fbc1064566040516001815260606020820152610790606082016080610a3e565b936040820152806001600160a01b038916940390a3610ab4565b61054f565b634e487b7160e01b600052603260045260246000fd5b634e487b7160e01b600052604160045260246000fd5b015190508a806106ac565b91506001840160005260206000209160005b601f198516811061083f575090839291600194601f19811610610826575b505050811b0160018201556106c4565b015160001960f88460031b161c191690558a8080610816565b818301518455600190930192602092830192016107f8565b909150600184016000526020600020601f840160051c81016020851061089d575b601f830160051c82018110610891575083929150610695565b60008155600101610878565b5080610878565b60405162461bcd60e51b815260206004820152601760248201527f4861736820636f6c6c6973696f6e2064657465637465640000000000000000006044820152606490fd5b60405162461bcd60e51b815260206004820152601a60248201527f50726f6a6563742049442063616e6e6f7420626520656d7074790000000000006044820152606490fd5b606460405162461bcd60e51b815260206004820152602060248201527f526563697069656e742063616e6e6f74206265207a65726f20616464726573736044820152fd5b60405162461bcd60e51b815260206004820152602760248201527f436172626f6e20616d6f756e74206d7573742062652067726561746572207468604482015266616e207a65726f60c81b6064820152608490fd5b600435906001600160a01b038216820361011257565b6080810190811067ffffffffffffffff8211176107c557604052565b90601f8019910116810190811067ffffffffffffffff8211176107c557604052565b60005b838110610a2e5750506000910152565b8181015183820152602001610a1e565b90602091610a5781518092818552858086019101610a1b565b601f01601f1916010190565b602081528151602082015260806060610a8a602085015183604086015260a0850190610a3e565b93604081015182850152015191015290565b67ffffffffffffffff81116107c55760051b60200190565b6000198114610ac35760010190565b634e487b7160e01b600052601160045260246000fd5b90600182811c92168015610b09575b6020831014610af357565b634e487b7160e01b600052602260045260246000fd5b91607f1691610ae8565b80518210156107af5760209160051b010190565b60405190610b34826109dd565b60006060838281528160208201528260408201520152565b15610b5357565b60405162461bcd60e51b815260206004820152601460248201527f546f6b656e20646f6573206e6f742065786973740000000000000000000000006044820152606490fdfea26469706673582212203d42bd2b517030070411541aa1e5a4f79dfbe64fe10064e7e27c06fe30c794e864736f6c63430008140033",
          "opcodes": "PUSH1 0x80 DUP1 PUSH1 0x40 MSTORE CALLVALUE PUSH2 0x16 JUMPI PUSH2 0xBCE SWAP1 DUP2 PUSH2 0x1C DUP3 CODECOPY RETURN JUMPDEST PUSH1 0x0 DUP1 REVERT INVALID PUSH1 0x80 PUSH1 0x40 MSTORE PUSH1 0x4 CALLDATASIZE LT ISZERO PUSH2 0x12 JUMPI PUSH1 0x0 DUP1 REVERT JUMPDEST PUSH1 0x0 CALLDATALOAD PUSH1 0xE0 SHR DUP1 PUSH4 0xCE51F56 EQ PUSH2 0x3C0 JUMPI DUP1 PUSH4 0x51640FEE EQ PUSH2 0x2F2 JUMPI DUP1 PUSH4 0x850C1768 EQ PUSH2 0x2C4 JUMPI DUP1 PUSH4 0x90AB95CB EQ PUSH2 0x160 JUMPI DUP1 PUSH4 0xA0CC0DC5 EQ PUSH2 0x117 JUMPI PUSH4 0xD9D61655 EQ PUSH2 0x5E JUMPI PUSH1 0x0 DUP1 REVERT JUMPDEST CALLVALUE PUSH2 0x112 JUMPI PUSH1 0x20 DUP1 PUSH1 0x3 NOT CALLDATASIZE ADD SLT PUSH2 0x112 JUMPI PUSH1 0x1 PUSH1 0x1 PUSH1 0xA0 SHL SUB PUSH2 0x80 PUSH2 0x9C7 JUMP JUMPDEST AND PUSH1 0x0 MSTORE PUSH1 0x2 DUP2 MSTORE PUSH1 0x40 PUSH1 0x0 KECCAK256 PUSH1 0x40 MLOAD SWAP1 DUP2 DUP4 DUP3 SLOAD SWAP2 DUP3 DUP2 MSTORE ADD SWAP1 DUP2 SWAP3 PUSH1 0x0 MSTORE DUP5 PUSH1 0x0 KECCAK256 SWAP1 PUSH1 0x0 JUMPDEST DUP7 DUP3 DUP3 LT PUSH2 0xFE JUMPI DUP7 DUP7 PUSH2 0xBE DUP3 DUP9 SUB DUP4 PUSH2 0x9F9 JUMP JUMPDEST PUSH1 0x40 MLOAD SWAP3 DUP4 SWAP3 DUP2 DUP5 ADD SWAP1 DUP3 DUP6 MSTORE MLOAD DUP1 SWAP2 MSTORE PUSH1 0x40 DUP5 ADD SWAP3 SWAP2 PUSH1 0x0 JUMPDEST DUP3 DUP2 LT PUSH2 0xE7 JUMPI POP POP POP POP SUB SWAP1 RETURN JUMPDEST DUP4 MLOAD DUP6 MSTORE DUP7 SWAP6 POP SWAP4 DUP2 ADD SWAP4 SWAP3 DUP2 ADD SWAP3 PUSH1 0x1 ADD PUSH2 0xD8 JUMP JUMPDEST DUP4 SLOAD DUP6 MSTORE SWAP1 SWAP4 ADD SWAP3 PUSH1 0x1 SWAP3 DUP4 ADD SWAP3 ADD PUSH2 0xA8 JUMP JUMPDEST PUSH1 0x0 DUP1 REVERT JUMPDEST CALLVALUE PUSH2 0x112 JUMPI PUSH1 0x20 CALLDATASIZE PUSH1 0x3 NOT ADD SLT PUSH2 0x112 JUMPI PUSH1 0x4 CALLDATALOAD DUP1 PUSH1 0x0 MSTORE PUSH1 0x3 PUSH1 0x20 MSTORE PUSH2 0x145 PUSH1 0xFF PUSH1 0x40 PUSH1 0x0 KECCAK256 SLOAD AND PUSH2 0xB4C JUMP JUMPDEST PUSH1 0x0 MSTORE PUSH1 0x0 PUSH1 0x20 MSTORE PUSH1 0x20 PUSH1 0x3 PUSH1 0x40 PUSH1 0x0 KECCAK256 ADD SLOAD PUSH1 0x40 MLOAD SWAP1 DUP2 MSTORE RETURN JUMPDEST CALLVALUE PUSH2 0x112 JUMPI PUSH1 0x20 DUP1 PUSH1 0x3 NOT CALLDATASIZE ADD SLT PUSH2 0x112 JUMPI PUSH2 0x17A PUSH2 0xB27 JUMP JUMPDEST POP PUSH1 0x4 CALLDATALOAD PUSH1 0x0 MSTORE PUSH1 0x1 DUP1 DUP3 MSTORE PUSH1 0x40 PUSH1 0x0 KECCAK256 SLOAD DUP1 ISZERO PUSH2 0x26D JUMPI PUSH1 0x0 MSTORE PUSH1 0x0 DUP3 MSTORE PUSH1 0x40 PUSH1 0x0 KECCAK256 PUSH1 0x40 MLOAD SWAP2 PUSH2 0x1AB DUP4 PUSH2 0x9DD JUMP JUMPDEST DUP2 SLOAD DUP4 MSTORE DUP1 DUP3 ADD SWAP1 PUSH1 0x40 MLOAD SWAP2 PUSH1 0x0 SWAP2 DUP2 SLOAD SWAP2 PUSH2 0x1C6 DUP4 PUSH2 0xAD9 JUMP JUMPDEST DUP1 DUP7 MSTORE SWAP3 DUP3 DUP2 AND SWAP1 DUP2 ISZERO PUSH2 0x24D JUMPI POP PUSH1 0x1 EQ PUSH2 0x216 JUMPI JUMPDEST PUSH2 0x212 DUP8 PUSH1 0x3 DUP9 DUP9 DUP13 PUSH2 0x1F2 DUP3 DUP12 SUB DUP4 PUSH2 0x9F9 JUMP JUMPDEST DUP5 ADD MSTORE PUSH1 0x2 DUP2 ADD SLOAD PUSH1 0x40 DUP5 ADD MSTORE ADD SLOAD PUSH1 0x60 DUP3 ADD MSTORE PUSH1 0x40 MLOAD SWAP2 DUP3 SWAP2 DUP3 PUSH2 0xA63 JUMP JUMPDEST SUB SWAP1 RETURN JUMPDEST PUSH1 0x0 SWAP1 DUP2 MSTORE DUP8 DUP2 KECCAK256 SWAP1 SWAP4 POP JUMPDEST DUP3 DUP5 LT PUSH2 0x23A JUMPI POP POP POP DUP2 ADD DUP5 ADD DUP5 PUSH2 0x1F2 DUP4 PUSH2 0x1DD JUMP JUMPDEST DUP1 SLOAD DUP6 DUP6 ADD DUP10 ADD MSTORE SWAP3 DUP8 ADD SWAP3 DUP2 ADD PUSH2 0x222 JUMP JUMPDEST PUSH1 0xFF NOT AND DUP10 DUP8 ADD MSTORE POP POP POP ISZERO ISZERO PUSH1 0x5 SHL DUP3 ADD DUP6 ADD SWAP1 POP DUP5 PUSH2 0x1F2 DUP4 PUSH2 0x1DD JUMP JUMPDEST PUSH1 0x40 MLOAD PUSH3 0x461BCD PUSH1 0xE5 SHL DUP2 MSTORE PUSH1 0x4 DUP2 ADD DUP5 SWAP1 MSTORE PUSH1 0x29 PUSH1 0x24 DUP3 ADD MSTORE PUSH32 0x436572746966696361746520776974682074686973206861736820646F657320 PUSH1 0x44 DUP3 ADD MSTORE PUSH9 0x1B9BDD08195E1A5CDD PUSH1 0xBA SHL PUSH1 0x64 DUP3 ADD MSTORE PUSH1 0x84 SWAP1 REVERT JUMPDEST CALLVALUE PUSH2 0x112 JUMPI PUSH1 0x20 CALLDATASIZE PUSH1 0x3 NOT ADD SLT PUSH2 0x112 JUMPI PUSH1 0x4 CALLDATALOAD PUSH1 0x0 MSTORE PUSH1 0x1 PUSH1 0x20 MSTORE PUSH1 0x20 PUSH1 0x40 PUSH1 0x0 KECCAK256 SLOAD ISZERO ISZERO PUSH1 0x40 MLOAD SWAP1 DUP2 MSTORE RETURN JUMPDEST CALLVALUE PUSH2 0x112 JUMPI PUSH1 0x20 DUP1 PUSH1 0x3 NOT CALLDATASIZE ADD SLT PUSH2 0x112 JUMPI PUSH1 0x4 CALLDATALOAD PUSH2 0x30F PUSH2 0xB27 JUMP JUMPDEST POP DUP1 PUSH1 0x0 MSTORE PUSH1 0x3 DUP3 MSTORE PUSH2 0x329 PUSH1 0xFF PUSH1 0x40 PUSH1 0x0 KECCAK256 SLOAD AND PUSH2 0xB4C JUMP JUMPDEST PUSH1 0x0 MSTORE PUSH1 0x0 DUP2 MSTORE PUSH1 0x40 PUSH1 0x0 KECCAK256 PUSH1 0x40 MLOAD SWAP1 PUSH2 0x342 DUP3 PUSH2 0x9DD JUMP JUMPDEST DUP1 SLOAD DUP3 MSTORE PUSH1 0x40 MLOAD PUSH1 0x1 DUP1 DUP4 ADD DUP1 SLOAD PUSH1 0x0 SWAP3 SWAP1 SWAP2 PUSH2 0x35E DUP4 PUSH2 0xAD9 JUMP JUMPDEST DUP1 DUP7 MSTORE SWAP3 DUP3 DUP2 AND SWAP1 DUP2 ISZERO PUSH2 0x24D JUMPI POP PUSH1 0x1 EQ PUSH2 0x389 JUMPI PUSH2 0x212 DUP8 PUSH1 0x3 DUP9 DUP9 DUP13 PUSH2 0x1F2 DUP3 DUP12 SUB DUP4 PUSH2 0x9F9 JUMP JUMPDEST PUSH1 0x0 SWAP1 DUP2 MSTORE DUP8 DUP2 KECCAK256 SWAP1 SWAP4 POP JUMPDEST DUP3 DUP5 LT PUSH2 0x3AD JUMPI POP POP POP DUP2 ADD DUP5 ADD DUP5 PUSH2 0x1F2 DUP4 PUSH2 0x1DD JUMP JUMPDEST DUP1 SLOAD DUP6 DUP6 ADD DUP10 ADD MSTORE SWAP3 DUP8 ADD SWAP3 DUP2 ADD PUSH2 0x395 JUMP JUMPDEST CALLVALUE PUSH2 0x112 JUMPI PUSH1 0x60 CALLDATASIZE PUSH1 0x3 NOT ADD SLT PUSH2 0x112 JUMPI PUSH2 0x3D9 PUSH2 0x9C7 JUMP JUMPDEST PUSH1 0x44 CALLDATALOAD PUSH8 0xFFFFFFFFFFFFFFFF DUP2 GT PUSH2 0x112 JUMPI CALLDATASIZE PUSH1 0x23 DUP3 ADD SLT ISZERO PUSH2 0x112 JUMPI DUP1 PUSH1 0x4 ADD CALLDATALOAD SWAP1 PUSH8 0xFFFFFFFFFFFFFFFF DUP3 GT PUSH2 0x7C5 JUMPI PUSH2 0x420 PUSH1 0x1F DUP4 ADD PUSH1 0x1F NOT AND PUSH1 0x20 ADD PUSH1 0x80 PUSH2 0x9F9 JUMP JUMPDEST DUP2 PUSH1 0x80 MSTORE CALLDATASIZE PUSH1 0x24 DUP4 DUP4 ADD ADD GT PUSH2 0x112 JUMPI PUSH1 0x0 SWAP2 PUSH1 0x20 SWAP2 DUP2 SWAP1 PUSH1 0x24 ADD PUSH1 0xA0 CALLDATACOPY PUSH1 0x80 ADD ADD MSTORE PUSH1 0x24 CALLDATALOAD ISZERO PUSH2 0x972 JUMPI PUSH1 0x1 PUSH1 0x1 PUSH1 0xA0 SHL SUB DUP2 AND ISZERO PUSH2 0x92E JUMPI PUSH1 0x80 MLOAD ISZERO PUSH2 0x8E9 JUMPI PUSH32 0xA5D995DF69B78A28690BF3FF819E003FC9F216DC4F017B8B5FB0DF3EEDDD8404 PUSH1 0x40 MLOAD PUSH1 0x80 DUP2 MSTORE PUSH1 0x17 PUSH1 0x80 DUP3 ADD MSTORE PUSH32 0x697373756543657274696669636174652063616C6C6564000000000000000000 PUSH1 0xA0 DUP3 ADD MSTORE PUSH1 0x1 PUSH1 0x1 PUSH1 0xA0 SHL SUB DUP4 AND PUSH1 0x20 DUP3 ADD MSTORE PUSH1 0x24 CALLDATALOAD PUSH1 0x40 DUP3 ADD MSTORE PUSH1 0xC0 PUSH1 0x60 DUP3 ADD MSTORE DUP1 PUSH2 0x4E4 PUSH1 0xC0 DUP3 ADD PUSH1 0x80 PUSH2 0xA3E JUMP JUMPDEST SUB SWAP1 LOG1 PUSH2 0x4F2 PUSH1 0x24 CALLDATALOAD PUSH2 0xA9C JUMP JUMPDEST SWAP1 PUSH2 0x500 PUSH1 0x40 MLOAD SWAP3 DUP4 PUSH2 0x9F9 JUMP JUMPDEST PUSH1 0x24 CALLDATALOAD DUP3 MSTORE PUSH1 0x1F NOT PUSH2 0x513 PUSH1 0x24 CALLDATALOAD PUSH2 0xA9C JUMP JUMPDEST ADD CALLDATASIZE PUSH1 0x20 DUP5 ADD CALLDATACOPY PUSH2 0x525 PUSH1 0x24 CALLDATALOAD PUSH2 0xA9C JUMP JUMPDEST PUSH2 0x532 PUSH1 0x40 MLOAD SWAP2 DUP3 PUSH2 0x9F9 JUMP JUMPDEST PUSH1 0x24 CALLDATALOAD DUP2 MSTORE PUSH1 0x1F NOT PUSH2 0x545 PUSH1 0x24 CALLDATALOAD PUSH2 0xA9C JUMP JUMPDEST ADD CALLDATASIZE PUSH1 0x20 DUP4 ADD CALLDATACOPY PUSH1 0x0 JUMPDEST PUSH1 0x24 CALLDATALOAD DUP2 LT PUSH2 0x59E JUMPI DUP4 PUSH1 0x40 MLOAD DUP1 SWAP2 PUSH1 0x20 DUP3 ADD PUSH1 0x20 DUP4 MSTORE DUP2 MLOAD DUP1 SWAP2 MSTORE PUSH1 0x20 PUSH1 0x40 DUP5 ADD SWAP3 ADD SWAP1 PUSH1 0x0 JUMPDEST DUP2 DUP2 LT PUSH2 0x585 JUMPI POP POP POP SUB SWAP1 RETURN JUMPDEST DUP3 MLOAD DUP5 MSTORE DUP6 SWAP5 POP PUSH1 0x20 SWAP4 DUP5 ADD SWAP4 SWAP1 SWAP3 ADD SWAP2 PUSH1 0x1 ADD PUSH2 0x577 JUMP JUMPDEST PUSH2 0x5A9 PUSH1 0x4 SLOAD PUSH2 0xAB4 JUMP JUMPDEST SWAP1 DUP2 PUSH1 0x4 SSTORE PUSH1 0x40 MLOAD PUSH1 0x20 DUP2 ADD SWAP1 PUSH12 0xFFFFFFFFFFFFFFFFFFFFFFFF NOT DUP7 PUSH1 0x60 SHL AND DUP3 MSTORE PUSH2 0x60D PUSH1 0x88 DUP3 PUSH1 0x80 MLOAD PUSH1 0x34 SWAP1 PUSH2 0x5E8 DUP2 DUP4 DUP6 ADD PUSH1 0x20 PUSH1 0x80 ADD PUSH2 0xA1B JUMP JUMPDEST DUP3 ADD SWAP1 TIMESTAMP SWAP1 DUP3 ADD MSTORE DUP8 PUSH1 0x54 DUP3 ADD MSTORE ADDRESS PUSH1 0x60 SHL PUSH1 0x74 DUP3 ADD MSTORE SUB PUSH1 0x68 DUP2 ADD DUP5 MSTORE ADD DUP3 PUSH2 0x9F9 JUMP JUMPDEST MLOAD SWAP1 KECCAK256 DUP1 PUSH1 0x0 MSTORE PUSH1 0x1 PUSH1 0x20 MSTORE PUSH1 0x40 PUSH1 0x0 KECCAK256 SLOAD PUSH2 0x8A4 JUMPI DUP1 PUSH1 0x0 MSTORE PUSH1 0x1 PUSH1 0x20 MSTORE DUP3 PUSH1 0x40 PUSH1 0x0 KECCAK256 SSTORE PUSH1 0x40 MLOAD PUSH2 0x63F DUP2 PUSH2 0x9DD JUMP JUMPDEST PUSH1 0x1 DUP2 MSTORE PUSH1 0x20 DUP2 ADD PUSH1 0x80 DUP2 MSTORE TIMESTAMP PUSH1 0x40 DUP4 ADD MSTORE DUP3 PUSH1 0x60 DUP4 ADD MSTORE DUP5 PUSH1 0x0 MSTORE PUSH1 0x0 PUSH1 0x20 MSTORE PUSH1 0x40 PUSH1 0x0 KECCAK256 SWAP1 DUP3 MLOAD DUP3 SSTORE MLOAD DUP1 MLOAD SWAP1 PUSH8 0xFFFFFFFFFFFFFFFF DUP3 GT PUSH2 0x7C5 JUMPI DUP2 SWAP1 PUSH2 0x68C PUSH1 0x1 DUP6 ADD SLOAD PUSH2 0xAD9 JUMP JUMPDEST PUSH1 0x1F DUP2 GT PUSH2 0x857 JUMPI JUMPDEST POP PUSH1 0x20 SWAP1 PUSH1 0x1F DUP4 GT PUSH1 0x1 EQ PUSH2 0x7E6 JUMPI PUSH1 0x0 SWAP3 PUSH2 0x7DB JUMPI JUMPDEST POP POP DUP2 PUSH1 0x1 SHL SWAP2 PUSH1 0x0 NOT SWAP1 PUSH1 0x3 SHL SHR NOT AND OR PUSH1 0x1 DUP3 ADD SSTORE JUMPDEST PUSH1 0x3 PUSH1 0x60 PUSH1 0x40 DUP5 ADD MLOAD SWAP4 PUSH1 0x2 SWAP5 DUP6 DUP6 ADD SSTORE ADD MLOAD SWAP2 ADD SSTORE PUSH1 0x1 PUSH1 0x1 PUSH1 0xA0 SHL SUB DUP7 AND PUSH1 0x0 MSTORE PUSH1 0x20 MSTORE PUSH1 0x40 PUSH1 0x0 KECCAK256 SWAP3 DUP4 SLOAD SWAP4 PUSH9 0x10000000000000000 DUP6 LT ISZERO PUSH2 0x7C5 JUMPI PUSH1 0x1 DUP6 ADD DUP1 DUP3 SSTORE DUP6 LT ISZERO PUSH2 0x7AF JUMPI PUSH2 0x7AA SWAP5 DUP3 SWAP2 PUSH1 0x0 MSTORE PUSH1 0x20 PUSH1 0x0 KECCAK256 ADD SSTORE DUP1 PUSH1 0x0 MSTORE PUSH1 0x3 PUSH1 0x20 MSTORE PUSH1 0x40 PUSH1 0x0 KECCAK256 PUSH1 0x1 PUSH1 0xFF NOT DUP3 SLOAD AND OR SWAP1 SSTORE DUP1 PUSH2 0x746 DUP5 DUP8 PUSH2 0xB13 JUMP JUMPDEST MSTORE DUP2 PUSH2 0x752 DUP5 DUP10 PUSH2 0xB13 JUMP JUMPDEST MSTORE PUSH32 0xBE85C2AD7F0F4AFA889863FB0A492AA3CA3995C181A7BA82C54E65FBC106456 PUSH1 0x40 MLOAD PUSH1 0x1 DUP2 MSTORE PUSH1 0x60 PUSH1 0x20 DUP3 ADD MSTORE PUSH2 0x790 PUSH1 0x60 DUP3 ADD PUSH1 0x80 PUSH2 0xA3E JUMP JUMPDEST SWAP4 PUSH1 0x40 DUP3 ADD MSTORE DUP1 PUSH1 0x1 PUSH1 0x1 PUSH1 0xA0 SHL SUB DUP10 AND SWAP5 SUB SWAP1 LOG3 PUSH2 0xAB4 JUMP JUMPDEST PUSH2 0x54F JUMP JUMPDEST PUSH4 0x4E487B71 PUSH1 0xE0 SHL PUSH1 0x0 MSTORE PUSH1 0x32 PUSH1 0x4 MSTORE PUSH1 0x24 PUSH1 0x0 REVERT JUMPDEST PUSH4 0x4E487B71 PUSH1 0xE0 SHL PUSH1 0x0 MSTORE PUSH1 0x41 PUSH1 0x4 MSTORE PUSH1 0x24 PUSH1 0x0 REVERT JUMPDEST ADD MLOAD SWAP1 POP DUP11 DUP1 PUSH2 0x6AC JUMP JUMPDEST SWAP2 POP PUSH1 0x1 DUP5 ADD PUSH1 0x0 MSTORE PUSH1 0x20 PUSH1 0x0 KECCAK256 SWAP2 PUSH1 0x0 JUMPDEST PUSH1 0x1F NOT DUP6 AND DUP2 LT PUSH2 0x83F JUMPI POP SWAP1 DUP4 SWAP3 SWAP2 PUSH1 0x1 SWAP5 PUSH1 0x1F NOT DUP2 AND LT PUSH2 0x826 JUMPI JUMPDEST POP POP POP DUP2 SHL ADD PUSH1 0x1 DUP3 ADD SSTORE PUSH2 0x6C4 JUMP JUMPDEST ADD MLOAD PUSH1 0x0 NOT PUSH1 0xF8 DUP5 PUSH1 0x3 SHL AND SHR NOT AND SWAP1 SSTORE DUP11 DUP1 DUP1 PUSH2 0x816 JUMP JUMPDEST DUP2 DUP4 ADD MLOAD DUP5 SSTORE PUSH1 0x1 SWAP1 SWAP4 ADD SWAP3 PUSH1 0x20 SWAP3 DUP4 ADD SWAP3 ADD PUSH2 0x7F8 JUMP JUMPDEST SWAP1 SWAP2 POP PUSH1 0x1 DUP5 ADD PUSH1 0x0 MSTORE PUSH1 0x20 PUSH1 0x0 KECCAK256 PUSH1 0x1F DUP5 ADD PUSH1 0x5 SHR DUP2 ADD PUSH1 0x20 DUP6 LT PUSH2 0x89D JUMPI JUMPDEST PUSH1 0x1F DUP4 ADD PUSH1 0x5 SHR DUP3 ADD DUP2 LT PUSH2 0x891 JUMPI POP DUP4 SWAP3 SWAP2 POP PUSH2 0x695 JUMP JUMPDEST PUSH1 0x0 DUP2 SSTORE PUSH1 0x1 ADD PUSH2 0x878 JUMP JUMPDEST POP DUP1 PUSH2 0x878 JUMP JUMPDEST PUSH1 0x40 MLOAD PUSH3 0x461BCD PUSH1 0xE5 SHL DUP2 MSTORE PUSH1 0x20 PUSH1 0x4 DUP3 ADD MSTORE PUSH1 0x17 PUSH1 0x24 DUP3 ADD MSTORE PUSH32 0x4861736820636F6C6C6973696F6E206465746563746564000000000000000000 PUSH1 0x44 DUP3 ADD MSTORE PUSH1 0x64 SWAP1 REVERT JUMPDEST PUSH1 0x40 MLOAD PUSH3 0x461BCD PUSH1 0xE5 SHL DUP2 MSTORE PUSH1 0x20 PUSH1 0x4 DUP3 ADD MSTORE PUSH1 0x1A PUSH1 0x24 DUP3 ADD MSTORE PUSH32 0x50726F6A6563742049442063616E6E6F7420626520656D707479000000000000 PUSH1 0x44 DUP3 ADD MSTORE PUSH1 0x64 SWAP1 REVERT JUMPDEST PUSH1 0x64 PUSH1 0x40 MLOAD PUSH3 0x461BCD PUSH1 0xE5 SHL DUP2 MSTORE PUSH1 0x20 PUSH1 0x4 DUP3 ADD MSTORE PUSH1 0x20 PUSH1 0x24 DUP3 ADD MSTORE PUSH32 0x526563697069656E742063616E6E6F74206265207A65726F2061646472657373 PUSH1 0x44 DUP3 ADD MSTORE REVERT JUMPDEST PUSH1 0x40 MLOAD PUSH3 0x461BCD PUSH1 0xE5 SHL DUP2 MSTORE PUSH1 0x20 PUSH1 0x4 DUP3 ADD MSTORE PUSH1 0x27 PUSH1 0x24 DUP3 ADD MSTORE PUSH32 0x436172626F6E20616D6F756E74206D7573742062652067726561746572207468 PUSH1 0x44 DUP3 ADD MSTORE PUSH7 0x616E207A65726F PUSH1 0xC8 SHL PUSH1 0x64 DUP3 ADD MSTORE PUSH1 0x84 SWAP1 REVERT JUMPDEST PUSH1 0x4 CALLDATALOAD SWAP1 PUSH1 0x1 PUSH1 0x1 PUSH1 0xA0 SHL SUB DUP3 AND DUP3 SUB PUSH2 0x112 JUMPI JUMP JUMPDEST PUSH1 0x80 DUP2 ADD SWAP1 DUP2 LT PUSH8 0xFFFFFFFFFFFFFFFF DUP3 GT OR PUSH2 0x7C5 JUMPI PUSH1 0x40 MSTORE JUMP JUMPDEST SWAP1 PUSH1 0x1F DUP1 NOT SWAP2 ADD AND DUP2 ADD SWAP1 DUP2 LT PUSH8 0xFFFFFFFFFFFFFFFF DUP3 GT OR PUSH2 0x7C5 JUMPI PUSH1 0x40 MSTORE JUMP JUMPDEST PUSH1 0x0 JUMPDEST DUP4 DUP2 LT PUSH2 0xA2E JUMPI POP POP PUSH1 0x0 SWAP2 ADD MSTORE JUMP JUMPDEST DUP2 DUP2 ADD MLOAD DUP4 DUP3 ADD MSTORE PUSH1 0x20 ADD PUSH2 0xA1E JUMP JUMPDEST SWAP1 PUSH1 0x20 SWAP2 PUSH2 0xA57 DUP2 MLOAD DUP1 SWAP3 DUP2 DUP6 MSTORE DUP6 DUP1 DUP7 ADD SWAP2 ADD PUSH2 0xA1B JUMP JUMPDEST PUSH1 0x1F ADD PUSH1 0x1F NOT AND ADD ADD SWAP1 JUMP JUMPDEST PUSH1 0x20 DUP2 MSTORE DUP2 MLOAD PUSH1 0x20 DUP3 ADD MSTORE PUSH1 0x80 PUSH1 0x60 PUSH2 0xA8A PUSH1 0x20 DUP6 ADD MLOAD DUP4 PUSH1 0x40 DUP7 ADD MSTORE PUSH1 0xA0 DUP6 ADD SWAP1 PUSH2 0xA3E JUMP JUMPDEST SWAP4 PUSH1 0x40 DUP2 ADD MLOAD DUP3 DUP6 ADD MSTORE ADD MLOAD SWAP2 ADD MSTORE SWAP1 JUMP JUMPDEST PUSH8 0xFFFFFFFFFFFFFFFF DUP2 GT PUSH2 0x7C5 JUMPI PUSH1 0x5 SHL PUSH1 0x20 ADD SWAP1 JUMP JUMPDEST PUSH1 0x0 NOT DUP2 EQ PUSH2 0xAC3 JUMPI PUSH1 0x1 ADD SWAP1 JUMP JUMPDEST PUSH4 0x4E487B71 PUSH1 0xE0 SHL PUSH1 0x0 MSTORE PUSH1 0x11 PUSH1 0x4 MSTORE PUSH1 0x24 PUSH1 0x0 REVERT JUMPDEST SWAP1 PUSH1 0x1 DUP3 DUP2 SHR SWAP3 AND DUP1 ISZERO PUSH2 0xB09 JUMPI JUMPDEST PUSH1 0x20 DUP4 LT EQ PUSH2 0xAF3 JUMPI JUMP JUMPDEST PUSH4 0x4E487B71 PUSH1 0xE0 SHL PUSH1 0x0 MSTORE PUSH1 0x22 PUSH1 0x4 MSTORE PUSH1 0x24 PUSH1 0x0 REVERT JUMPDEST SWAP2 PUSH1 0x7F AND SWAP2 PUSH2 0xAE8 JUMP JUMPDEST DUP1 MLOAD DUP3 LT ISZERO PUSH2 0x7AF JUMPI PUSH1 0x20 SWAP2 PUSH1 0x5 SHL ADD ADD SWAP1 JUMP JUMPDEST PUSH1 0x40 MLOAD SWAP1 PUSH2 0xB34 DUP3 PUSH2 0x9DD JUMP JUMPDEST PUSH1 0x0 PUSH1 0x60 DUP4 DUP3 DUP2 MSTORE DUP2 PUSH1 0x20 DUP3 ADD MSTORE DUP3 PUSH1 0x40 DUP3 ADD MSTORE ADD MSTORE JUMP JUMPDEST ISZERO PUSH2 0xB53 JUMPI JUMP JUMPDEST PUSH1 0x40 MLOAD PUSH3 0x461BCD PUSH1 0xE5 SHL DUP2 MSTORE PUSH1 0x20 PUSH1 0x4 DUP3 ADD MSTORE PUSH1 0x14 PUSH1 0x24 DUP3 ADD MSTORE PUSH32 0x546F6B656E20646F6573206E6F74206578697374000000000000000000000000 PUSH1 0x44 DUP3 ADD MSTORE PUSH1 0x64 SWAP1 REVERT INVALID LOG2 PUSH5 0x6970667358 0x22 SLT KECCAK256 RETURNDATASIZE TIMESTAMP 0xBD 0x2B MLOAD PUSH17 0x30070411541AA1E5A4F79DFBE64FE10064 0xE7 0xE2 PUSH29 0x6FE30C794E864736F6C63430008140033000000000000000000000000 "
        },
        "methodIdentifiers": {
          "getCertificate(uint256)": "51640fee",
          "getCertificateByHash(bytes32)": "90ab95cb",
          "getOwnedTokens(address)": "d9d61655",
          "getTokenHash(uint256)": "a0cc0dc5",
          "issueCertificate(address,uint256,string)": "0ce51f56",
          "verifyCertificate(bytes32)": "850c1768"
        }
      }
    }
  }
}