{
  "contracts/Contract.sol": {
    "CarbonCertificate": {
      "abi": [
        {
          "inputs": [],
          "stateMutability": "nonpayable",
          "type": "constructor"
        },
        {
          "anonymous": false,
          "inputs": [
            {
              "indexed": true,
              "internalType": "uint256",
              "name": "tokenId",
              "type": "uint256"
            },
            {
              "indexed": true,
              "internalType": "address",
              "name": "recipient",
              "type": "address"
            },
            {
              "indexed": false,
              "internalType": "uint256",
              "name": "carbonAmount",
              "type": "uint256"
            },
            {
              "indexed": false,
              "internalType": "string",
              "name": "projectId",
              "type": "string"
            },
            {
              "indexed": false,
              "internalType": "bytes32",
              "name": "uniqueHash",
              "type": "bytes32"
            }
          ],
          "name": "CertificateIssued",
          "type": "event"
        },
        {
          "inputs": [
            {
              "internalType": "uint256",
              "name": "tokenId",
              "type": "uint256"
            }
          ],
          "name": "getCertificate",
          "outputs": [
            {
              "components": [
                {
                  "internalType": "uint256",
                  "name": "carbonAmount",
                  "type": "uint256"
                },
                {
                  "internalType": "string",
                  "name": "projectId",
                  "type": "string"
                },
                {
                  "internalType": "uint256",
                  "name": "issueDate",
                  "type": "uint256"
                },
                {
                  "internalType": "bytes32",
                  "name": "uniqueHash",
                  "type": "bytes32"
                }
              ],
              "internalType": "struct CarbonCertificate.Certificate",
              "name": "",
              "type": "tuple"
            }
          ],
          "stateMutability": "view",
          "type": "function"
        },
        {
          "inputs": [
            {
              "internalType": "bytes32",
              "name": "uniqueHash",
              "type": "bytes32"
            }
          ],
          "name": "getCertificateByHash",
          "outputs": [
            {
              "components": [
                {
                  "internalType": "uint256",
                  "name": "carbonAmount",
                  "type": "uint256"
                },
                {
                  "internalType": "string",
                  "name": "projectId",
                  "type": "string"
                },
                {
                  "internalType": "uint256",
                  "name": "issueDate",
                  "type": "uint256"
                },
                {
                  "internalType": "bytes32",
                  "name": "uniqueHash",
                  "type": "bytes32"
                }
              ],
              "internalType": "struct CarbonCertificate.Certificate",
              "name": "",
              "type": "tuple"
            }
          ],
          "stateMutability": "view",
          "type": "function"
        },
        {
          "inputs": [
            {
              "internalType": "address",
              "name": "owner",
              "type": "address"
            }
          ],
          "name": "getOwnedTokens",
          "outputs": [
            {
              "internalType": "uint256[]",
              "name": "",
              "type": "uint256[]"
            }
          ],
          "stateMutability": "view",
          "type": "function"
        },
        {
          "inputs": [
            {
              "internalType": "uint256",
              "name": "tokenId",
              "type": "uint256"
            }
          ],
          "name": "getTokenHash",
          "outputs": [
            {
              "internalType": "bytes32",
              "name": "",
              "type": "bytes32"
            }
          ],
          "stateMutability": "view",
          "type": "function"
        },
        {
          "inputs": [
            {
              "internalType": "address",
              "name": "recipient",
              "type": "address"
            },
            {
              "internalType": "uint256",
              "name": "carbonAmount",
              "type": "uint256"
            },
            {
              "internalType": "string",
              "name": "projectId",
              "type": "string"
            }
          ],
          "name": "issueCertificate",
          "outputs": [
            {
              "internalType": "bytes32[]",
              "name": "",
              "type": "bytes32[]"
            }
          ],
          "stateMutability": "nonpayable",
          "type": "function"
        },
        {
          "inputs": [
            {
              "internalType": "bytes32",
              "name": "uniqueHash",
              "type": "bytes32"
            }
          ],
          "name": "verifyCertificate",
          "outputs": [
            {
              "internalType": "bool",
              "name": "",
              "type": "bool"
            }
          ],
          "stateMutability": "view",
          "type": "function"
        }
      ],
      "evm": {
        "bytecode": {
          "linkReferences": {},
          "object": "6080806040523461001657610aa9908161001c8239f35b600080fdfe6080604052600436101561001257600080fd5b60003560e01c80630ce51f56146103c057806351640fee146102f2578063850c1768146102c457806390ab95cb14610160578063a0cc0dc5146101175763d9d616551461005e57600080fd5b3461011257602080600319360112610112576001600160a01b036100806108a2565b1660005260028152604060002060405190818382549182815201908192600052846000209060005b868282106100fe5786866100be828803836108d4565b604051928392818401908285525180915260408401929160005b8281106100e757505050500390f35b8351855286955093810193928101926001016100d8565b8354855290930192600192830192016100a8565b600080fd5b346101125760203660031901126101125760043580600052600360205261014560ff60406000205416610a27565b60005260006020526020600360406000200154604051908152f35b34610112576020806003193601126101125761017a610a02565b506004356000526001808252604060002054801561026d57600052600082526040600020604051916101ab836108b8565b8154835280820190604051916000918154916101c6836109b4565b8086529282811690811561024d5750600114610216575b61021287600388888c6101f2828b03836108d4565b84015260028101546040840152015460608201526040519182918261093e565b0390f35b60009081528781209093505b82841061023a5750505081018401846101f2836101dd565b8054858501890152928701928101610222565b60ff191689870152505050151560051b820185019050846101f2836101dd565b60405162461bcd60e51b815260048101849052602960248201527f436572746966696361746520776974682074686973206861736820646f6573206044820152681b9bdd08195e1a5cdd60ba1b6064820152608490fd5b3461011257602036600319011261011257600435600052600160205260206040600020541515604051908152f35b34610112576020806003193601126101125760043561030f610a02565b50806000526003825261032960ff60406000205416610a27565b60005260008152604060002060405190610342826108b8565b8054825260405160018083018054600092909161035e836109b4565b8086529282811690811561024d57506001146103895761021287600388888c6101f2828b03836108d4565b60009081528781209093505b8284106103ad5750505081018401846101f2836101dd565b8054858501890152928701928101610395565b34610112576060366003190112610112576103d96108a2565b60443567ffffffffffffffff811161011257366023820112156101125780600401359067ffffffffffffffff821161072957610420601f8301601f191660200160806108d4565b81608052366024838301011161011257600091602091819060240160a03760800101526024351561084d57610456602435610977565b9061046460405192836108d4565b6024358252601f19610477602435610977565b01366020840137610489602435610977565b61049660405191826108d4565b6024358152601f196104a9602435610977565b0136602083013760005b6024358110610502578360405180916020820160208352815180915260206040840192019060005b8181106104e9575050500390f35b82518452859450602093840193909201916001016104db565b61050d60045461098f565b908160045560405160208101906bffffffffffffffffffffffff198660601b16825261057160888260805160349061054c8183850160206080016108f6565b82019042908201528760548201523060601b60748201520360688101845201826108d4565b51902080600052600160205260406000205461080857806000526001602052826040600020556040516105a3816108b8565b600181526020810160808152426040830152826060830152846000526000602052604060002090825182555180519067ffffffffffffffff82116107295781906105f060018501546109b4565b601f81116107bb575b50602090601f831160011461074a5760009261073f575b50508160011b916000199060031b1c19161760018201555b600360606040840151936002948585015501519101556001600160a01b0386166000526020526040600020928354936801000000000000000085101561072957600185018082558510156107135761070e948291600052602060002001558060005260036020526040600020600160ff19825416179055806106aa84876109ee565b52816106b684896109ee565b527f0be85c2ad7f0f4afa889863fb0a492aa3ca3995c181a7ba82c54e65fbc10645660405160018152606060208201526106f4606082016080610919565b936040820152806001600160a01b038916940390a361098f565b6104b3565b634e487b7160e01b600052603260045260246000fd5b634e487b7160e01b600052604160045260246000fd5b015190508a80610610565b91506001840160005260206000209160005b601f19851681106107a3575090839291600194601f1981161061078a575b505050811b016001820155610628565b015160001960f88460031b161c191690558a808061077a565b8183015184556001909301926020928301920161075c565b909150600184016000526020600020601f840160051c810160208510610801575b601f830160051c820181106107f55750839291506105f9565b600081556001016107dc565b50806107dc565b60405162461bcd60e51b815260206004820152601760248201527f4861736820636f6c6c6973696f6e2064657465637465640000000000000000006044820152606490fd5b60405162461bcd60e51b815260206004820152602760248201527f436172626f6e20616d6f756e74206d7573742062652067726561746572207468604482015266616e207a65726f60c81b6064820152608490fd5b600435906001600160a01b038216820361011257565b6080810190811067ffffffffffffffff82111761072957604052565b90601f8019910116810190811067ffffffffffffffff82111761072957604052565b60005b8381106109095750506000910152565b81810151838201526020016108f9565b90602091610932815180928185528580860191016108f6565b601f01601f1916010190565b602081528151602082015260806060610965602085015183604086015260a0850190610919565b93604081015182850152015191015290565b67ffffffffffffffff81116107295760051b60200190565b600019811461099e5760010190565b634e487b7160e01b600052601160045260246000fd5b90600182811c921680156109e4575b60208310146109ce57565b634e487b7160e01b600052602260045260246000fd5b91607f16916109c3565b80518210156107135760209160051b010190565b60405190610a0f826108b8565b60006060838281528160208201528260408201520152565b15610a2e57565b60405162461bcd60e51b815260206004820152601460248201527f546f6b656e20646f6573206e6f742065786973740000000000000000000000006044820152606490fdfea264697066735822122081d1acf3ae4dc67aa6268eb38c5b77b872ab8bf0986ba527b5ac8dbe1818b54564736f6c63430008140033",
          "opcodes": "PUSH1 0x80 DUP1 PUSH1 0x40 MSTORE CALLVALUE PUSH2 0x16 JUMPI PUSH2 0xAA9 SWAP1 DUP2 PUSH2 0x1C DUP3 CODECOPY RETURN JUMPDEST PUSH1 0x0 DUP1 REVERT INVALID PUSH1 0x80 PUSH1 0x40 MSTORE PUSH1 0x4 CALLDATASIZE LT ISZERO PUSH2 0x12 JUMPI PUSH1 0x0 DUP1 REVERT JUMPDEST PUSH1 0x0 CALLDATALOAD PUSH1 0xE0 SHR DUP1 PUSH4 0xCE51F56 EQ PUSH2 0x3C0 JUMPI DUP1 PUSH4 0x51640FEE EQ PUSH2 0x2F2 JUMPI DUP1 PUSH4 0x850C1768 EQ PUSH2 0x2C4 JUMPI DUP1 PUSH4 0x90AB95CB EQ PUSH2 0x160 JUMPI DUP1 PUSH4 0xA0CC0DC5 EQ PUSH2 0x117 JUMPI PUSH4 0xD9D61655 EQ PUSH2 0x5E JUMPI PUSH1 0x0 DUP1 REVERT JUMPDEST CALLVALUE PUSH2 0x112 JUMPI PUSH1 0x20 DUP1 PUSH1 0x3 NOT CALLDATASIZE ADD SLT PUSH2 0x112 JUMPI PUSH1 0x1 PUSH1 0x1 PUSH1 0xA0 SHL SUB PUSH2 0x80 PUSH2 0x8A2 JUMP JUMPDEST AND PUSH1 0x0 MSTORE PUSH1 0x2 DUP2 MSTORE PUSH1 0x40 PUSH1 0x0 KECCAK256 PUSH1 0x40 MLOAD SWAP1 DUP2 DUP4 DUP3 SLOAD SWAP2 DUP3 DUP2 MSTORE ADD SWAP1 DUP2 SWAP3 PUSH1 0x0 MSTORE DUP5 PUSH1 0x0 KECCAK256 SWAP1 PUSH1 0x0 JUMPDEST DUP7 DUP3 DUP3 LT PUSH2 0xFE JUMPI DUP7 DUP7 PUSH2 0xBE DUP3 DUP9 SUB DUP4 PUSH2 0x8D4 JUMP JUMPDEST PUSH1 0x40 MLOAD SWAP3 DUP4 SWAP3 DUP2 DUP5 ADD SWAP1 DUP3 DUP6 MSTORE MLOAD DUP1 SWAP2 MSTORE PUSH1 0x40 DUP5 ADD SWAP3 SWAP2 PUSH1 0x0 JUMPDEST DUP3 DUP2 LT PUSH2 0xE7 JUMPI POP POP POP POP SUB SWAP1 RETURN JUMPDEST DUP4 MLOAD DUP6 MSTORE DUP7 SWAP6 POP SWAP4 DUP2 ADD SWAP4 SWAP3 DUP2 ADD SWAP3 PUSH1 0x1 ADD PUSH2 0xD8 JUMP JUMPDEST DUP4 SLOAD DUP6 MSTORE SWAP1 SWAP4 ADD SWAP3 PUSH1 0x1 SWAP3 DUP4 ADD SWAP3 ADD PUSH2 0xA8 JUMP JUMPDEST PUSH1 0x0 DUP1 REVERT JUMPDEST CALLVALUE PUSH2 0x112 JUMPI PUSH1 0x20 CALLDATASIZE PUSH1 0x3 NOT ADD SLT PUSH2 0x112 JUMPI PUSH1 0x4 CALLDATALOAD DUP1 PUSH1 0x0 MSTORE PUSH1 0x3 PUSH1 0x20 MSTORE PUSH2 0x145 PUSH1 0xFF PUSH1 0x40 PUSH1 0x0 KECCAK256 SLOAD AND PUSH2 0xA27 JUMP JUMPDEST PUSH1 0x0 MSTORE PUSH1 0x0 PUSH1 0x20 MSTORE PUSH1 0x20 PUSH1 0x3 PUSH1 0x40 PUSH1 0x0 KECCAK256 ADD SLOAD PUSH1 0x40 MLOAD SWAP1 DUP2 MSTORE RETURN JUMPDEST CALLVALUE PUSH2 0x112 JUMPI PUSH1 0x20 DUP1 PUSH1 0x3 NOT CALLDATASIZE ADD SLT PUSH2 0x112 JUMPI PUSH2 0x17A PUSH2 0xA02 JUMP JUMPDEST POP PUSH1 0x4 CALLDATALOAD PUSH1 0x0 MSTORE PUSH1 0x1 DUP1 DUP3 MSTORE PUSH1 0x40 PUSH1 0x0 KECCAK256 SLOAD DUP1 ISZERO PUSH2 0x26D JUMPI PUSH1 0x0 MSTORE PUSH1 0x0 DUP3 MSTORE PUSH1 0x40 PUSH1 0x0 KECCAK256 PUSH1 0x40 MLOAD SWAP2 PUSH2 0x1AB DUP4 PUSH2 0x8B8 JUMP JUMPDEST DUP2 SLOAD DUP4 MSTORE DUP1 DUP3 ADD SWAP1 PUSH1 0x40 MLOAD SWAP2 PUSH1 0x0 SWAP2 DUP2 SLOAD SWAP2 PUSH2 0x1C6 DUP4 PUSH2 0x9B4 JUMP JUMPDEST DUP1 DUP7 MSTORE SWAP3 DUP3 DUP2 AND SWAP1 DUP2 ISZERO PUSH2 0x24D JUMPI POP PUSH1 0x1 EQ PUSH2 0x216 JUMPI JUMPDEST PUSH2 0x212 DUP8 PUSH1 0x3 DUP9 DUP9 DUP13 PUSH2 0x1F2 DUP3 DUP12 SUB DUP4 PUSH2 0x8D4 JUMP JUMPDEST DUP5 ADD MSTORE PUSH1 0x2 DUP2 ADD SLOAD PUSH1 0x40 DUP5 ADD MSTORE ADD SLOAD PUSH1 0x60 DUP3 ADD MSTORE PUSH1 0x40 MLOAD SWAP2 DUP3 SWAP2 DUP3 PUSH2 0x93E JUMP JUMPDEST SUB SWAP1 RETURN JUMPDEST PUSH1 0x0 SWAP1 DUP2 MSTORE DUP8 DUP2 KECCAK256 SWAP1 SWAP4 POP JUMPDEST DUP3 DUP5 LT PUSH2 0x23A JUMPI POP POP POP DUP2 ADD DUP5 ADD DUP5 PUSH2 0x1F2 DUP4 PUSH2 0x1DD JUMP JUMPDEST DUP1 SLOAD DUP6 DUP6 ADD DUP10 ADD MSTORE SWAP3 DUP8 ADD SWAP3 DUP2 ADD PUSH2 0x222 JUMP JUMPDEST PUSH1 0xFF NOT AND DUP10 DUP8 ADD MSTORE POP POP POP ISZERO ISZERO PUSH1 0x5 SHL DUP3 ADD DUP6 ADD SWAP1 POP DUP5 PUSH2 0x1F2 DUP4 PUSH2 0x1DD JUMP JUMPDEST PUSH1 0x40 MLOAD PUSH3 0x461BCD PUSH1 0xE5 SHL DUP2 MSTORE PUSH1 0x4 DUP2 ADD DUP5 SWAP1 MSTORE PUSH1 0x29 PUSH1 0x24 DUP3 ADD MSTORE PUSH32 0x436572746966696361746520776974682074686973206861736820646F657320 PUSH1 0x44 DUP3 ADD MSTORE PUSH9 0x1B9BDD08195E1A5CDD PUSH1 0xBA SHL PUSH1 0x64 DUP3 ADD MSTORE PUSH1 0x84 SWAP1 REVERT JUMPDEST CALLVALUE PUSH2 0x112 JUMPI PUSH1 0x20 CALLDATASIZE PUSH1 0x3 NOT ADD SLT PUSH2 0x112 JUMPI PUSH1 0x4 CALLDATALOAD PUSH1 0x0 MSTORE PUSH1 0x1 PUSH1 0x20 MSTORE PUSH1 0x20 PUSH1 0x40 PUSH1 0x0 KECCAK256 SLOAD ISZERO ISZERO PUSH1 0x40 MLOAD SWAP1 DUP2 MSTORE RETURN JUMPDEST CALLVALUE PUSH2 0x112 JUMPI PUSH1 0x20 DUP1 PUSH1 0x3 NOT CALLDATASIZE ADD SLT PUSH2 0x112 JUMPI PUSH1 0x4 CALLDATALOAD PUSH2 0x30F PUSH2 0xA02 JUMP JUMPDEST POP DUP1 PUSH1 0x0 MSTORE PUSH1 0x3 DUP3 MSTORE PUSH2 0x329 PUSH1 0xFF PUSH1 0x40 PUSH1 0x0 KECCAK256 SLOAD AND PUSH2 0xA27 JUMP JUMPDEST PUSH1 0x0 MSTORE PUSH1 0x0 DUP2 MSTORE PUSH1 0x40 PUSH1 0x0 KECCAK256 PUSH1 0x40 MLOAD SWAP1 PUSH2 0x342 DUP3 PUSH2 0x8B8 JUMP JUMPDEST DUP1 SLOAD DUP3 MSTORE PUSH1 0x40 MLOAD PUSH1 0x1 DUP1 DUP4 ADD DUP1 SLOAD PUSH1 0x0 SWAP3 SWAP1 SWAP2 PUSH2 0x35E DUP4 PUSH2 0x9B4 JUMP JUMPDEST DUP1 DUP7 MSTORE SWAP3 DUP3 DUP2 AND SWAP1 DUP2 ISZERO PUSH2 0x24D JUMPI POP PUSH1 0x1 EQ PUSH2 0x389 JUMPI PUSH2 0x212 DUP8 PUSH1 0x3 DUP9 DUP9 DUP13 PUSH2 0x1F2 DUP3 DUP12 SUB DUP4 PUSH2 0x8D4 JUMP JUMPDEST PUSH1 0x0 SWAP1 DUP2 MSTORE DUP8 DUP2 KECCAK256 SWAP1 SWAP4 POP JUMPDEST DUP3 DUP5 LT PUSH2 0x3AD JUMPI POP POP POP DUP2 ADD DUP5 ADD DUP5 PUSH2 0x1F2 DUP4 PUSH2 0x1DD JUMP JUMPDEST DUP1 SLOAD DUP6 DUP6 ADD DUP10 ADD MSTORE SWAP3 DUP8 ADD SWAP3 DUP2 ADD PUSH2 0x395 JUMP JUMPDEST CALLVALUE PUSH2 0x112 JUMPI PUSH1 0x60 CALLDATASIZE PUSH1 0x3 NOT ADD SLT PUSH2 0x112 JUMPI PUSH2 0x3D9 PUSH2 0x8A2 JUMP JUMPDEST PUSH1 0x44 CALLDATALOAD PUSH8 0xFFFFFFFFFFFFFFFF DUP2 GT PUSH2 0x112 JUMPI CALLDATASIZE PUSH1 0x23 DUP3 ADD SLT ISZERO PUSH2 0x112 JUMPI DUP1 PUSH1 0x4 ADD CALLDATALOAD SWAP1 PUSH8 0xFFFFFFFFFFFFFFFF DUP3 GT PUSH2 0x729 JUMPI PUSH2 0x420 PUSH1 0x1F DUP4 ADD PUSH1 0x1F NOT AND PUSH1 0x20 ADD PUSH1 0x80 PUSH2 0x8D4 JUMP JUMPDEST DUP2 PUSH1 0x80 MSTORE CALLDATASIZE PUSH1 0x24 DUP4 DUP4 ADD ADD GT PUSH2 0x112 JUMPI PUSH1 0x0 SWAP2 PUSH1 0x20 SWAP2 DUP2 SWAP1 PUSH1 0x24 ADD PUSH1 0xA0 CALLDATACOPY PUSH1 0x80 ADD ADD MSTORE PUSH1 0x24 CALLDATALOAD ISZERO PUSH2 0x84D JUMPI PUSH2 0x456 PUSH1 0x24 CALLDATALOAD PUSH2 0x977 JUMP JUMPDEST SWAP1 PUSH2 0x464 PUSH1 0x40 MLOAD SWAP3 DUP4 PUSH2 0x8D4 JUMP JUMPDEST PUSH1 0x24 CALLDATALOAD DUP3 MSTORE PUSH1 0x1F NOT PUSH2 0x477 PUSH1 0x24 CALLDATALOAD PUSH2 0x977 JUMP JUMPDEST ADD CALLDATASIZE PUSH1 0x20 DUP5 ADD CALLDATACOPY PUSH2 0x489 PUSH1 0x24 CALLDATALOAD PUSH2 0x977 JUMP JUMPDEST PUSH2 0x496 PUSH1 0x40 MLOAD SWAP2 DUP3 PUSH2 0x8D4 JUMP JUMPDEST PUSH1 0x24 CALLDATALOAD DUP2 MSTORE PUSH1 0x1F NOT PUSH2 0x4A9 PUSH1 0x24 CALLDATALOAD PUSH2 0x977 JUMP JUMPDEST ADD CALLDATASIZE PUSH1 0x20 DUP4 ADD CALLDATACOPY PUSH1 0x0 JUMPDEST PUSH1 0x24 CALLDATALOAD DUP2 LT PUSH2 0x502 JUMPI DUP4 PUSH1 0x40 MLOAD DUP1 SWAP2 PUSH1 0x20 DUP3 ADD PUSH1 0x20 DUP4 MSTORE DUP2 MLOAD DUP1 SWAP2 MSTORE PUSH1 0x20 PUSH1 0x40 DUP5 ADD SWAP3 ADD SWAP1 PUSH1 0x0 JUMPDEST DUP2 DUP2 LT PUSH2 0x4E9 JUMPI POP POP POP SUB SWAP1 RETURN JUMPDEST DUP3 MLOAD DUP5 MSTORE DUP6 SWAP5 POP PUSH1 0x20 SWAP4 DUP5 ADD SWAP4 SWAP1 SWAP3 ADD SWAP2 PUSH1 0x1 ADD PUSH2 0x4DB JUMP JUMPDEST PUSH2 0x50D PUSH1 0x4 SLOAD PUSH2 0x98F JUMP JUMPDEST SWAP1 DUP2 PUSH1 0x4 SSTORE PUSH1 0x40 MLOAD PUSH1 0x20 DUP2 ADD SWAP1 PUSH12 0xFFFFFFFFFFFFFFFFFFFFFFFF NOT DUP7 PUSH1 0x60 SHL AND DUP3 MSTORE PUSH2 0x571 PUSH1 0x88 DUP3 PUSH1 0x80 MLOAD PUSH1 0x34 SWAP1 PUSH2 0x54C DUP2 DUP4 DUP6 ADD PUSH1 0x20 PUSH1 0x80 ADD PUSH2 0x8F6 JUMP JUMPDEST DUP3 ADD SWAP1 TIMESTAMP SWAP1 DUP3 ADD MSTORE DUP8 PUSH1 0x54 DUP3 ADD MSTORE ADDRESS PUSH1 0x60 SHL PUSH1 0x74 DUP3 ADD MSTORE SUB PUSH1 0x68 DUP2 ADD DUP5 MSTORE ADD DUP3 PUSH2 0x8D4 JUMP JUMPDEST MLOAD SWAP1 KECCAK256 DUP1 PUSH1 0x0 MSTORE PUSH1 0x1 PUSH1 0x20 MSTORE PUSH1 0x40 PUSH1 0x0 KECCAK256 SLOAD PUSH2 0x808 JUMPI DUP1 PUSH1 0x0 MSTORE PUSH1 0x1 PUSH1 0x20 MSTORE DUP3 PUSH1 0x40 PUSH1 0x0 KECCAK256 SSTORE PUSH1 0x40 MLOAD PUSH2 0x5A3 DUP2 PUSH2 0x8B8 JUMP JUMPDEST PUSH1 0x1 DUP2 MSTORE PUSH1 0x20 DUP2 ADD PUSH1 0x80 DUP2 MSTORE TIMESTAMP PUSH1 0x40 DUP4 ADD MSTORE DUP3 PUSH1 0x60 DUP4 ADD MSTORE DUP5 PUSH1 0x0 MSTORE PUSH1 0x0 PUSH1 0x20 MSTORE PUSH1 0x40 PUSH1 0x0 KECCAK256 SWAP1 DUP3 MLOAD DUP3 SSTORE MLOAD DUP1 MLOAD SWAP1 PUSH8 0xFFFFFFFFFFFFFFFF DUP3 GT PUSH2 0x729 JUMPI DUP2 SWAP1 PUSH2 0x5F0 PUSH1 0x1 DUP6 ADD SLOAD PUSH2 0x9B4 JUMP JUMPDEST PUSH1 0x1F DUP2 GT PUSH2 0x7BB JUMPI JUMPDEST POP PUSH1 0x20 SWAP1 PUSH1 0x1F DUP4 GT PUSH1 0x1 EQ PUSH2 0x74A JUMPI PUSH1 0x0 SWAP3 PUSH2 0x73F JUMPI JUMPDEST POP POP DUP2 PUSH1 0x1 SHL SWAP2 PUSH1 0x0 NOT SWAP1 PUSH1 0x3 SHL SHR NOT AND OR PUSH1 0x1 DUP3 ADD SSTORE JUMPDEST PUSH1 0x3 PUSH1 0x60 PUSH1 0x40 DUP5 ADD MLOAD SWAP4 PUSH1 0x2 SWAP5 DUP6 DUP6 ADD SSTORE ADD MLOAD SWAP2 ADD SSTORE PUSH1 0x1 PUSH1 0x1 PUSH1 0xA0 SHL SUB DUP7 AND PUSH1 0x0 MSTORE PUSH1 0x20 MSTORE PUSH1 0x40 PUSH1 0x0 KECCAK256 SWAP3 DUP4 SLOAD SWAP4 PUSH9 0x10000000000000000 DUP6 LT ISZERO PUSH2 0x729 JUMPI PUSH1 0x1 DUP6 ADD DUP1 DUP3 SSTORE DUP6 LT ISZERO PUSH2 0x713 JUMPI PUSH2 0x70E SWAP5 DUP3 SWAP2 PUSH1 0x0 MSTORE PUSH1 0x20 PUSH1 0x0 KECCAK256 ADD SSTORE DUP1 PUSH1 0x0 MSTORE PUSH1 0x3 PUSH1 0x20 MSTORE PUSH1 0x40 PUSH1 0x0 KECCAK256 PUSH1 0x1 PUSH1 0xFF NOT DUP3 SLOAD AND OR SWAP1 SSTORE DUP1 PUSH2 0x6AA DUP5 DUP8 PUSH2 0x9EE JUMP JUMPDEST MSTORE DUP2 PUSH2 0x6B6 DUP5 DUP10 PUSH2 0x9EE JUMP JUMPDEST MSTORE PUSH32 0xBE85C2AD7F0F4AFA889863FB0A492AA3CA3995C181A7BA82C54E65FBC106456 PUSH1 0x40 MLOAD PUSH1 0x1 DUP2 MSTORE PUSH1 0x60 PUSH1 0x20 DUP3 ADD MSTORE PUSH2 0x6F4 PUSH1 0x60 DUP3 ADD PUSH1 0x80 PUSH2 0x919 JUMP JUMPDEST SWAP4 PUSH1 0x40 DUP3 ADD MSTORE DUP1 PUSH1 0x1 PUSH1 0x1 PUSH1 0xA0 SHL SUB DUP10 AND SWAP5 SUB SWAP1 LOG3 PUSH2 0x98F JUMP JUMPDEST PUSH2 0x4B3 JUMP JUMPDEST PUSH4 0x4E487B71 PUSH1 0xE0 SHL PUSH1 0x0 MSTORE PUSH1 0x32 PUSH1 0x4 MSTORE PUSH1 0x24 PUSH1 0x0 REVERT JUMPDEST PUSH4 0x4E487B71 PUSH1 0xE0 SHL PUSH1 0x0 MSTORE PUSH1 0x41 PUSH1 0x4 MSTORE PUSH1 0x24 PUSH1 0x0 REVERT JUMPDEST ADD MLOAD SWAP1 POP DUP11 DUP1 PUSH2 0x610 JUMP JUMPDEST SWAP2 POP PUSH1 0x1 DUP5 ADD PUSH1 0x0 MSTORE PUSH1 0x20 PUSH1 0x0 KECCAK256 SWAP2 PUSH1 0x0 JUMPDEST PUSH1 0x1F NOT DUP6 AND DUP2 LT PUSH2 0x7A3 JUMPI POP SWAP1 DUP4 SWAP3 SWAP2 PUSH1 0x1 SWAP5 PUSH1 0x1F NOT DUP2 AND LT PUSH2 0x78A JUMPI JUMPDEST POP POP POP DUP2 SHL ADD PUSH1 0x1 DUP3 ADD SSTORE PUSH2 0x628 JUMP JUMPDEST ADD MLOAD PUSH1 0x0 NOT PUSH1 0xF8 DUP5 PUSH1 0x3 SHL AND SHR NOT AND SWAP1 SSTORE DUP11 DUP1 DUP1 PUSH2 0x77A JUMP JUMPDEST DUP2 DUP4 ADD MLOAD DUP5 SSTORE PUSH1 0x1 SWAP1 SWAP4 ADD SWAP3 PUSH1 0x20 SWAP3 DUP4 ADD SWAP3 ADD PUSH2 0x75C JUMP JUMPDEST SWAP1 SWAP2 POP PUSH1 0x1 DUP5 ADD PUSH1 0x0 MSTORE PUSH1 0x20 PUSH1 0x0 KECCAK256 PUSH1 0x1F DUP5 ADD PUSH1 0x5 SHR DUP2 ADD PUSH1 0x20 DUP6 LT PUSH2 0x801 JUMPI JUMPDEST PUSH1 0x1F DUP4 ADD PUSH1 0x5 SHR DUP3 ADD DUP2 LT PUSH2 0x7F5 JUMPI POP DUP4 SWAP3 SWAP2 POP PUSH2 0x5F9 JUMP JUMPDEST PUSH1 0x0 DUP2 SSTORE PUSH1 0x1 ADD PUSH2 0x7DC JUMP JUMPDEST POP DUP1 PUSH2 0x7DC JUMP JUMPDEST PUSH1 0x40 MLOAD PUSH3 0x461BCD PUSH1 0xE5 SHL DUP2 MSTORE PUSH1 0x20 PUSH1 0x4 DUP3 ADD MSTORE PUSH1 0x17 PUSH1 0x24 DUP3 ADD MSTORE PUSH32 0x4861736820636F6C6C6973696F6E206465746563746564000000000000000000 PUSH1 0x44 DUP3 ADD MSTORE PUSH1 0x64 SWAP1 REVERT JUMPDEST PUSH1 0x40 MLOAD PUSH3 0x461BCD PUSH1 0xE5 SHL DUP2 MSTORE PUSH1 0x20 PUSH1 0x4 DUP3 ADD MSTORE PUSH1 0x27 PUSH1 0x24 DUP3 ADD MSTORE PUSH32 0x436172626F6E20616D6F756E74206D7573742062652067726561746572207468 PUSH1 0x44 DUP3 ADD MSTORE PUSH7 0x616E207A65726F PUSH1 0xC8 SHL PUSH1 0x64 DUP3 ADD MSTORE PUSH1 0x84 SWAP1 REVERT JUMPDEST PUSH1 0x4 CALLDATALOAD SWAP1 PUSH1 0x1 PUSH1 0x1 PUSH1 0xA0 SHL SUB DUP3 AND DUP3 SUB PUSH2 0x112 JUMPI JUMP JUMPDEST PUSH1 0x80 DUP2 ADD SWAP1 DUP2 LT PUSH8 0xFFFFFFFFFFFFFFFF DUP3 GT OR PUSH2 0x729 JUMPI PUSH1 0x40 MSTORE JUMP JUMPDEST SWAP1 PUSH1 0x1F DUP1 NOT SWAP2 ADD AND DUP2 ADD SWAP1 DUP2 LT PUSH8 0xFFFFFFFFFFFFFFFF DUP3 GT OR PUSH2 0x729 JUMPI PUSH1 0x40 MSTORE JUMP JUMPDEST PUSH1 0x0 JUMPDEST DUP4 DUP2 LT PUSH2 0x909 JUMPI POP POP PUSH1 0x0 SWAP2 ADD MSTORE JUMP JUMPDEST DUP2 DUP2 ADD MLOAD DUP4 DUP3 ADD MSTORE PUSH1 0x20 ADD PUSH2 0x8F9 JUMP JUMPDEST SWAP1 PUSH1 0x20 SWAP2 PUSH2 0x932 DUP2 MLOAD DUP1 SWAP3 DUP2 DUP6 MSTORE DUP6 DUP1 DUP7 ADD SWAP2 ADD PUSH2 0x8F6 JUMP JUMPDEST PUSH1 0x1F ADD PUSH1 0x1F NOT AND ADD ADD SWAP1 JUMP JUMPDEST PUSH1 0x20 DUP2 MSTORE DUP2 MLOAD PUSH1 0x20 DUP3 ADD MSTORE PUSH1 0x80 PUSH1 0x60 PUSH2 0x965 PUSH1 0x20 DUP6 ADD MLOAD DUP4 PUSH1 0x40 DUP7 ADD MSTORE PUSH1 0xA0 DUP6 ADD SWAP1 PUSH2 0x919 JUMP JUMPDEST SWAP4 PUSH1 0x40 DUP2 ADD MLOAD DUP3 DUP6 ADD MSTORE ADD MLOAD SWAP2 ADD MSTORE SWAP1 JUMP JUMPDEST PUSH8 0xFFFFFFFFFFFFFFFF DUP2 GT PUSH2 0x729 JUMPI PUSH1 0x5 SHL PUSH1 0x20 ADD SWAP1 JUMP JUMPDEST PUSH1 0x0 NOT DUP2 EQ PUSH2 0x99E JUMPI PUSH1 0x1 ADD SWAP1 JUMP JUMPDEST PUSH4 0x4E487B71 PUSH1 0xE0 SHL PUSH1 0x0 MSTORE PUSH1 0x11 PUSH1 0x4 MSTORE PUSH1 0x24 PUSH1 0x0 REVERT JUMPDEST SWAP1 PUSH1 0x1 DUP3 DUP2 SHR SWAP3 AND DUP1 ISZERO PUSH2 0x9E4 JUMPI JUMPDEST PUSH1 0x20 DUP4 LT EQ PUSH2 0x9CE JUMPI JUMP JUMPDEST PUSH4 0x4E487B71 PUSH1 0xE0 SHL PUSH1 0x0 MSTORE PUSH1 0x22 PUSH1 0x4 MSTORE PUSH1 0x24 PUSH1 0x0 REVERT JUMPDEST SWAP2 PUSH1 0x7F AND SWAP2 PUSH2 0x9C3 JUMP JUMPDEST DUP1 MLOAD DUP3 LT ISZERO PUSH2 0x713 JUMPI PUSH1 0x20 SWAP2 PUSH1 0x5 SHL ADD ADD SWAP1 JUMP JUMPDEST PUSH1 0x40 MLOAD SWAP1 PUSH2 0xA0F DUP3 PUSH2 0x8B8 JUMP JUMPDEST PUSH1 0x0 PUSH1 0x60 DUP4 DUP3 DUP2 MSTORE DUP2 PUSH1 0x20 DUP3 ADD MSTORE DUP3 PUSH1 0x40 DUP3 ADD MSTORE ADD MSTORE JUMP JUMPDEST ISZERO PUSH2 0xA2E JUMPI JUMP JUMPDEST PUSH1 0x40 MLOAD PUSH3 0x461BCD PUSH1 0xE5 SHL DUP2 MSTORE PUSH1 0x20 PUSH1 0x4 DUP3 ADD MSTORE PUSH1 0x14 PUSH1 0x24 DUP3 ADD MSTORE PUSH32 0x546F6B656E20646F6573206E6F74206578697374000000000000000000000000 PUSH1 0x44 DUP3 ADD MSTORE PUSH1 0x64 SWAP1 REVERT INVALID LOG2 PUSH5 0x6970667358 0x22 SLT KECCAK256 DUP2 0xD1 0xAC RETURN 0xAE 0x4D 0xC6 PUSH27 0xA6268EB38C5B77B872AB8BF0986BA527B5AC8DBE1818B54564736F PUSH13 0x63430008140033000000000000 "
        },
        "methodIdentifiers": {
          "getCertificate(uint256)": "51640fee",
          "getCertificateByHash(bytes32)": "90ab95cb",
          "getOwnedTokens(address)": "d9d61655",
          "getTokenHash(uint256)": "a0cc0dc5",
          "issueCertificate(address,uint256,string)": "0ce51f56",
          "verifyCertificate(bytes32)": "850c1768"
        }
      }
    }
  }
}