{
  "contracts/Contract.sol": {
    "CarbonCertificate": {
      "abi": [
        {
          "inputs": [],
          "stateMutability": "nonpayable",
          "type": "constructor"
        },
        {
          "anonymous": false,
          "inputs": [
            {
              "indexed": true,
              "internalType": "address",
              "name": "owner",
              "type": "address"
            },
            {
              "indexed": true,
              "internalType": "address",
              "name": "approved",
              "type": "address"
            },
            {
              "indexed": true,
              "internalType": "uint256",
              "name": "tokenId",
              "type": "uint256"
            }
          ],
          "name": "Approval",
          "type": "event"
        },
        {
          "anonymous": false,
          "inputs": [
            {
              "indexed": true,
              "internalType": "address",
              "name": "owner",
              "type": "address"
            },
            {
              "indexed": true,
              "internalType": "address",
              "name": "operator",
              "type": "address"
            },
            {
              "indexed": false,
              "internalType": "bool",
              "name": "approved",
              "type": "bool"
            }
          ],
          "name": "ApprovalForAll",
          "type": "event"
        },
        {
          "anonymous": false,
          "inputs": [
            {
              "indexed": false,
              "internalType": "uint256",
              "name": "tokenId",
              "type": "uint256"
            },
            {
              "indexed": false,
              "internalType": "address",
              "name": "recipient",
              "type": "address"
            },
            {
              "indexed": false,
              "internalType": "uint256",
              "name": "carbonAmount",
              "type": "uint256"
            },
            {
              "indexed": false,
              "internalType": "string",
              "name": "projectId",
              "type": "string"
            },
            {
              "indexed": false,
              "internalType": "string",
              "name": "uniqueHash",
              "type": "string"
            }
          ],
          "name": "CertificateIssued",
          "type": "event"
        },
        {
          "anonymous": false,
          "inputs": [
            {
              "indexed": true,
              "internalType": "address",
              "name": "previousOwner",
              "type": "address"
            },
            {
              "indexed": true,
              "internalType": "address",
              "name": "newOwner",
              "type": "address"
            }
          ],
          "name": "OwnershipTransferred",
          "type": "event"
        },
        {
          "anonymous": false,
          "inputs": [
            {
              "indexed": true,
              "internalType": "address",
              "name": "from",
              "type": "address"
            },
            {
              "indexed": true,
              "internalType": "address",
              "name": "to",
              "type": "address"
            },
            {
              "indexed": true,
              "internalType": "uint256",
              "name": "tokenId",
              "type": "uint256"
            }
          ],
          "name": "Transfer",
          "type": "event"
        },
        {
          "inputs": [
            {
              "internalType": "address",
              "name": "to",
              "type": "address"
            },
            {
              "internalType": "uint256",
              "name": "tokenId",
              "type": "uint256"
            }
          ],
          "name": "approve",
          "outputs": [],
          "stateMutability": "nonpayable",
          "type": "function"
        },
        {
          "inputs": [
            {
              "internalType": "address",
              "name": "owner",
              "type": "address"
            }
          ],
          "name": "balanceOf",
          "outputs": [
            {
              "internalType": "uint256",
              "name": "",
              "type": "uint256"
            }
          ],
          "stateMutability": "view",
          "type": "function"
        },
        {
          "inputs": [
            {
              "internalType": "uint256",
              "name": "tokenId",
              "type": "uint256"
            }
          ],
          "name": "getApproved",
          "outputs": [
            {
              "internalType": "address",
              "name": "",
              "type": "address"
            }
          ],
          "stateMutability": "view",
          "type": "function"
        },
        {
          "inputs": [
            {
              "internalType": "string",
              "name": "uniqueHash",
              "type": "string"
            }
          ],
          "name": "getCertificateByHash",
          "outputs": [
            {
              "components": [
                {
                  "internalType": "uint256",
                  "name": "tokenId",
                  "type": "uint256"
                },
                {
                  "internalType": "uint256",
                  "name": "carbonAmount",
                  "type": "uint256"
                },
                {
                  "internalType": "string",
                  "name": "projectId",
                  "type": "string"
                },
                {
                  "internalType": "uint256",
                  "name": "issueDate",
                  "type": "uint256"
                },
                {
                  "internalType": "string",
                  "name": "uniqueHash",
                  "type": "string"
                }
              ],
              "internalType": "struct CarbonCertificate.Certificate",
              "name": "",
              "type": "tuple"
            }
          ],
          "stateMutability": "view",
          "type": "function"
        },
        {
          "inputs": [
            {
              "internalType": "string",
              "name": "projectId",
              "type": "string"
            }
          ],
          "name": "getProjectCertificates",
          "outputs": [
            {
              "components": [
                {
                  "internalType": "uint256",
                  "name": "tokenId",
                  "type": "uint256"
                },
                {
                  "internalType": "uint256",
                  "name": "carbonAmount",
                  "type": "uint256"
                },
                {
                  "internalType": "string",
                  "name": "projectId",
                  "type": "string"
                },
                {
                  "internalType": "uint256",
                  "name": "issueDate",
                  "type": "uint256"
                },
                {
                  "internalType": "string",
                  "name": "uniqueHash",
                  "type": "string"
                }
              ],
              "internalType": "struct CarbonCertificate.Certificate[]",
              "name": "",
              "type": "tuple[]"
            }
          ],
          "stateMutability": "view",
          "type": "function"
        },
        {
          "inputs": [
            {
              "internalType": "address",
              "name": "owner",
              "type": "address"
            },
            {
              "internalType": "address",
              "name": "operator",
              "type": "address"
            }
          ],
          "name": "isApprovedForAll",
          "outputs": [
            {
              "internalType": "bool",
              "name": "",
              "type": "bool"
            }
          ],
          "stateMutability": "view",
          "type": "function"
        },
        {
          "inputs": [
            {
              "internalType": "address",
              "name": "recipient",
              "type": "address"
            },
            {
              "internalType": "uint256",
              "name": "amount",
              "type": "uint256"
            },
            {
              "internalType": "string",
              "name": "projectId",
              "type": "string"
            }
          ],
          "name": "issueCertificate",
          "outputs": [
            {
              "internalType": "bool",
              "name": "",
              "type": "bool"
            }
          ],
          "stateMutability": "nonpayable",
          "type": "function"
        },
        {
          "inputs": [],
          "name": "name",
          "outputs": [
            {
              "internalType": "string",
              "name": "",
              "type": "string"
            }
          ],
          "stateMutability": "view",
          "type": "function"
        },
        {
          "inputs": [],
          "name": "owner",
          "outputs": [
            {
              "internalType": "address",
              "name": "",
              "type": "address"
            }
          ],
          "stateMutability": "view",
          "type": "function"
        },
        {
          "inputs": [
            {
              "internalType": "uint256",
              "name": "tokenId",
              "type": "uint256"
            }
          ],
          "name": "ownerOf",
          "outputs": [
            {
              "internalType": "address",
              "name": "",
              "type": "address"
            }
          ],
          "stateMutability": "view",
          "type": "function"
        },
        {
          "inputs": [],
          "name": "renounceOwnership",
          "outputs": [],
          "stateMutability": "nonpayable",
          "type": "function"
        },
        {
          "inputs": [
            {
              "internalType": "address",
              "name": "from",
              "type": "address"
            },
            {
              "internalType": "address",
              "name": "to",
              "type": "address"
            },
            {
              "internalType": "uint256",
              "name": "tokenId",
              "type": "uint256"
            }
          ],
          "name": "safeTransferFrom",
          "outputs": [],
          "stateMutability": "nonpayable",
          "type": "function"
        },
        {
          "inputs": [
            {
              "internalType": "address",
              "name": "from",
              "type": "address"
            },
            {
              "internalType": "address",
              "name": "to",
              "type": "address"
            },
            {
              "internalType": "uint256",
              "name": "tokenId",
              "type": "uint256"
            },
            {
              "internalType": "bytes",
              "name": "data",
              "type": "bytes"
            }
          ],
          "name": "safeTransferFrom",
          "outputs": [],
          "stateMutability": "nonpayable",
          "type": "function"
        },
        {
          "inputs": [
            {
              "internalType": "address",
              "name": "operator",
              "type": "address"
            },
            {
              "internalType": "bool",
              "name": "approved",
              "type": "bool"
            }
          ],
          "name": "setApprovalForAll",
          "outputs": [],
          "stateMutability": "nonpayable",
          "type": "function"
        },
        {
          "inputs": [
            {
              "internalType": "bytes4",
              "name": "interfaceId",
              "type": "bytes4"
            }
          ],
          "name": "supportsInterface",
          "outputs": [
            {
              "internalType": "bool",
              "name": "",
              "type": "bool"
            }
          ],
          "stateMutability": "view",
          "type": "function"
        },
        {
          "inputs": [],
          "name": "symbol",
          "outputs": [
            {
              "internalType": "string",
              "name": "",
              "type": "string"
            }
          ],
          "stateMutability": "view",
          "type": "function"
        },
        {
          "inputs": [
            {
              "internalType": "uint256",
              "name": "index",
              "type": "uint256"
            }
          ],
          "name": "tokenByIndex",
          "outputs": [
            {
              "internalType": "uint256",
              "name": "",
              "type": "uint256"
            }
          ],
          "stateMutability": "view",
          "type": "function"
        },
        {
          "inputs": [
            {
              "internalType": "address",
              "name": "owner",
              "type": "address"
            },
            {
              "internalType": "uint256",
              "name": "index",
              "type": "uint256"
            }
          ],
          "name": "tokenOfOwnerByIndex",
          "outputs": [
            {
              "internalType": "uint256",
              "name": "",
              "type": "uint256"
            }
          ],
          "stateMutability": "view",
          "type": "function"
        },
        {
          "inputs": [
            {
              "internalType": "uint256",
              "name": "tokenId",
              "type": "uint256"
            }
          ],
          "name": "tokenURI",
          "outputs": [
            {
              "internalType": "string",
              "name": "",
              "type": "string"
            }
          ],
          "stateMutability": "view",
          "type": "function"
        },
        {
          "inputs": [],
          "name": "totalSupply",
          "outputs": [
            {
              "internalType": "uint256",
              "name": "",
              "type": "uint256"
            }
          ],
          "stateMutability": "view",
          "type": "function"
        },
        {
          "inputs": [
            {
              "internalType": "uint256",
              "name": "tokenId",
              "type": "uint256"
            },
            {
              "internalType": "address",
              "name": "to",
              "type": "address"
            }
          ],
          "name": "transferCertificate",
          "outputs": [],
          "stateMutability": "nonpayable",
          "type": "function"
        },
        {
          "inputs": [
            {
              "internalType": "address",
              "name": "from",
              "type": "address"
            },
            {
              "internalType": "address",
              "name": "to",
              "type": "address"
            },
            {
              "internalType": "uint256",
              "name": "tokenId",
              "type": "uint256"
            }
          ],
          "name": "transferFrom",
          "outputs": [],
          "stateMutability": "nonpayable",
          "type": "function"
        },
        {
          "inputs": [
            {
              "internalType": "address",
              "name": "newOwner",
              "type": "address"
            }
          ],
          "name": "transferOwnership",
          "outputs": [],
          "stateMutability": "nonpayable",
          "type": "function"
        },
        {
          "inputs": [
            {
              "internalType": "string",
              "name": "uniqueHash",
              "type": "string"
            }
          ],
          "name": "verifyCertificate",
          "outputs": [
            {
              "internalType": "bool",
              "name": "",
              "type": "bool"
            }
          ],
          "stateMutability": "view",
          "type": "function"
        }
      ],
      "evm": {
        "bytecode": {
          "linkReferences": {},
          "object": "6080346200036d576001600160401b039060408181018381118382101762000357578152601982526020917f436172626f6e2043726564697420436572746966696361746500000000000000838201528151938285018581108282111762000357578352600685526521a0a92127a760d11b84860152815181811162000357576000948554916001948584811c941680156200034c575b8385101462000338578190601f94858111620002e5575b5083908583116001146200028157899262000275575b5050600019600383901b1c191690851b1786555b8651928311620002615783548481811c9116801562000256575b828210146200024257828111620001fa575b50809183116001146200019357508495829394959262000187575b5050600019600383901b1c191690821b1790555b600a8054336001600160a01b03198216811790925591519290916001600160a01b0316907f8be0079c531659141344cd1fd0a4f28419497f9722a3daafe3b4186f6b6457e09080a361224c9081620003738239f35b0151905038806200011e565b90601f198316968487528287209287905b898210620001e2575050838596979810620001c8575b505050811b01905562000132565b015160001960f88460031b161c19169055388080620001ba565b808785968294968601518155019501930190620001a4565b8487528187208380860160051c82019284871062000238575b0160051c019085905b8281106200022c57505062000103565b8881550185906200021c565b9250819262000213565b634e487b7160e01b87526022600452602487fd5b90607f1690620000f1565b634e487b7160e01b86526041600452602486fd5b015190503880620000c3565b898052848a208894509190601f1984168b5b87828210620002ce5750508411620002b4575b505050811b018655620000d7565b015160001960f88460031b161c19169055388080620002a6565b8385015186558b9790950194938401930162000293565b9091508880528389208580850160051c8201928686106200032e575b918991869594930160051c01915b8281106200031f575050620000ad565b8b81558594508991016200030f565b9250819262000301565b634e487b7160e01b88526022600452602488fd5b93607f169362000096565b634e487b7160e01b600052604160045260246000fd5b600080fdfe608080604052600436101561001357600080fd5b60003560e01c90816301ffc9a7146115005750806306fdde031461145d578063081812fc1461143f578063095ea7b3146112c55780630ce51f5614610b2857806318160ddd14610b0a57806323b872dd14610aeb5780632f745c5914610a3857806342842e0e14610a055780634f6ccce7146109745780636352211e1461094557806366242c5e1461083757806370a082311461080c578063715018a6146107b8578063800d0994146105fc5780638b23d8751461059d5780638da5cb5b1461057657806395d89b4114610497578063a22cb465146103c5578063b88d4fde1461033f578063c87b56dd146102ca578063cf3ae93414610245578063e985e9c5146101ee5763f2fde38b1461012757600080fd5b346101e95760203660031901126101e9576101406115cd565b610148611741565b6001600160a01b0380911690811561019557600a54826001600160a01b0319821617600a55167f8be0079c531659141344cd1fd0a4f28419497f9722a3daafe3b4186f6b6457e0600080a3005b60405162461bcd60e51b815260206004820152602660248201527f4f776e61626c653a206e6577206f776e657220697320746865207a65726f206160448201526564647265737360d01b6064820152608490fd5b600080fd5b346101e95760403660031901126101e9576102076115cd565b61020f6115e3565b906001600160a01b03809116600052600560205260406000209116600052602052602060ff604060002054166040519015158152f35b346101e95760403660031901126101e9576004356102616115e3565b9061026c8133611a64565b15610285576102839161027e8261185c565b611b2c565b005b60405162461bcd60e51b815260206004820152601860248201527f4e6f7420617070726f76656420746f207472616e7366657200000000000000006044820152606490fd5b346101e95760203660031901126101e95761030561030060043560005260026020526001600160a01b0360406000205416151590565b611810565b600060405161031381611615565b5261033b60405161032381611615565b600081526040519182916020835260208301906115a8565b0390f35b346101e95760803660031901126101e9576103586115cd565b6103606115e3565b906064359060443567ffffffffffffffff83116101e957366023840112156101e9576102839361039d6103c094369060248160040135910161166f565b926103b06103ab8433611a64565b61199b565b6103bb838383611b2c565b611e9f565b6119fd565b346101e95760403660031901126101e9576103de6115cd565b602435908115158092036101e9576001600160a01b03169081331461045257336000526005602052604060002082600052602052604060002060ff1981541660ff83161790556040519081527f17307eab39ab6107e8899845ad3d59bd9653f200f220920489ca2b5937696c3160203392a3005b60405162461bcd60e51b815260206004820152601960248201527f4552433732313a20617070726f766520746f2063616c6c6572000000000000006044820152606490fd5b346101e95760003660031901126101e957604051600060018054906104bb8261187e565b8085529181811690811561054f57506001146104f6575b61033b846104e281860382611631565b6040519182916020835260208301906115a8565b600081815292507fb10e2d527612073b26eecdfd717e6a320cf44b4afac2b0732d9fcbe2b7fa0cf65b8284106105375750505081016020016104e2826104d2565b8054602085870181019190915290930192810161051f565b60ff191660208087019190915292151560051b850190920192506104e291508390506104d2565b346101e95760003660031901126101e95760206001600160a01b03600a5416604051908152f35b346101e95760203660031901126101e95760043567ffffffffffffffff81116101e9576105e760206105d4819336906004016116a6565b8160405193828580945193849201611585565b8101600e815203019020541515604051908152f35b346101e9576020806003193601126101e95760043567ffffffffffffffff81116101e957816105d46106329236906004016116a6565b8101600d815203019020604051808284829454938481520190600052846000209260005b868282106107a2578461066b81860382611631565b8051610676816121ea565b906106846040519283611631565b808252610693601f19916121ea565b018360005b82811061078c5750505060005b825181101561072e57806106bc6107299285612202565b51600052600c855260406000206107096004604051926106db846115f9565b805484526001810154898501526106f4600282016118b8565b604085015260038101546060850152016118b8565b60808201526107188285612202565b526107238184612202565b5061210f565b6106a5565b604080518581528351818701819052600092600582901b830181019186890191899085015b8287106107605785850386f35b90919293828061077c600193603f198a820301865288516116f9565b9601920196019592919092610753565b6107946121bd565b828286010152018490610698565b8554845260019586019587955093019201610656565b346101e95760003660031901126101e9576107d1611741565b60006001600160a01b03600a5481198116600a55167f8be0079c531659141344cd1fd0a4f28419497f9722a3daafe3b4186f6b6457e08280a3005b346101e95760203660031901126101e957602061082f61082a6115cd565b611799565b604051908152f35b346101e9576020806003193601126101e95760043567ffffffffffffffff81116101e9578161086d6108899236906004016116a6565b6108756121bd565b508160405193828580945193849201611585565b8101600e81520301902054801561090057600052600c81526040600020906108e76004604051936108b9856115f9565b805485526001810154848601526108d2600282016118b8565b604086015260038101546060860152016118b8565b608083015261033b6040519282849384528301906116f9565b60405162461bcd60e51b815260048101839052601560248201527f4365727469666963617465206e6f7420666f756e6400000000000000000000006044820152606490fd5b346101e95760203660031901126101e957602061096360043561185c565b6001600160a01b0360405191168152f35b346101e95760203660031901126101e9576004356008548110156109ab5761099d602091611f27565b90546040519160031b1c8152f35b60405162461bcd60e51b815260206004820152602c60248201527f455243373231456e756d657261626c653a20676c6f62616c20696e646578206f60448201526b7574206f6620626f756e647360a01b6064820152608490fd5b346101e9576102836103c0610a19366116c4565b9060405192610a2784611615565b600084526103b06103ab8433611a64565b346101e95760403660031901126101e957610a516115cd565b60243590610a5e81611799565b821015610a92576001600160a01b031660005260066020526040600020906000526020526020604060002054604051908152f35b60405162461bcd60e51b815260206004820152602b60248201527f455243373231456e756d657261626c653a206f776e657220696e646578206f7560448201526a74206f6620626f756e647360a81b6064820152608490fd5b346101e957610283610afc366116c4565b9161027e6103ab8433611a64565b346101e95760003660031901126101e9576020600854604051908152f35b346101e95760603660031901126101e957610b416115cd565b60443567ffffffffffffffff81116101e957610b619036906004016116a6565b610b69611741565b602435156112815780511561123c576001600160a01b03821615919060005b6024358110610b9c57602060405160018152f35b600b906001825401809255610bb082611f9a565b610bb982611f9a565b610c3f6054610bc742611f9a565b926040519384916020610be38185019889815193849201611585565b83018a5190610bf9828d60208085019101611585565b01610c0d8251809360208085019101611585565b01610c218251809360208085019101611585565b014460208201523360601b6040820152036034810184520182611631565b519020916040519283606081011067ffffffffffffffff606086011117610fc0576060840160405260408452604036602086013760005b6020811061119f57505060405195610c8d87611615565b6000875261115b57610cbe610cb88260005260026020526001600160a01b0360406000205416151590565b1561211e565b600854816000526009602052604060002055610cd981611f5e565b610dbf6103c0600097610ceb88611799565b6001600160a01b038916600052600660205260406000208160005260205284604060002055846000526007602052604060002055610d42610cb88560005260026020526001600160a01b0360406000205416151590565b6001600160a01b038816600052600360205260406000206001815401905583600052600260205260406000206001600160a01b0389166001600160a01b0319825416179055836001600160a01b03891660007fddf252ad1be2c89b69c2b068fc378daa952ba7f163c4a11628f55a4df523b3ef8180a48388611d3a565b604051610dcb816115f9565b8181526020810190600182526040810186815242606083015285608083015283600052600c602052604060002092825184555160018401555180519067ffffffffffffffff8211610fc057610e23600285015461187e565b601f8111611114575b50602090601f83116001146110a357608093929160009183611098575b50508160011b916000199060031b1c19161760028401555b60608101516003840155015180519067ffffffffffffffff8211610fc057610e8c600484015461187e565b601f8111611051575b50602090601f8311600114610fe1576004929160009183610fd6575b50508160011b916000199060031b1c1916179101555b6040516020818651610edc8183858b01611585565b8101600d8152030190209283549168010000000000000000831015610fc05760018301808655831015610faa57807f8e32b880405daf77c57f5f9b7a1aa1172ee22183ba996399f7b8683cb5a2f6e693610fa59660005260206000200155806040516020818551610f508183858a01611585565b8101600e81520301902055610f9d60405192839283526001600160a01b038916602084015260016040840152610f8f60a08060608601528401896115a8565b9083820360808501526115a8565b0390a161210f565b610b88565b634e487b7160e01b600052603260045260246000fd5b634e487b7160e01b600052604160045260246000fd5b015190508a80610eb1565b906004840160005260206000209160005b601f19851681106110395750918391600193600495601f19811610611020575b505050811b01910155610ec7565b015160001960f88460031b161c191690558a8080611012565b91926020600181928685015181550194019201610ff2565b600484016000526020600020601f840160051c810160208510611091575b601f830160051c82018110611085575050610e95565b6000815560010161106f565b508061106f565b015190508b80610e49565b90600285016000526020600020916000601f198516905b8181106110fc57509160019391856080979694106110e3575b505050811b016002840155610e61565b015160001960f88460031b161c191690558b80806110d3565b929360206001819287860151815501950193016110ba565b600285016000526020600020601f840160051c810160208510611154575b601f830160051c82018110611148575050610e2c565b60008155600101611132565b5080611132565b606460405162461bcd60e51b815260206004820152602060248201527f4552433732313a206d696e7420746f20746865207a65726f20616464726573736044820152fd5b6111b9600f60f89994959896991b83831a60f41b1661217b565b818060011b04600214821517156112265760001a6111da8260011b8a61216a565b536111ef82821a60f81b600f60f81b1661217b565b90600181811b018160011b116112265761121b9160001a611215600183811b018b61216a565b5361210f565b969395929196610c76565b634e487b7160e01b600052601160045260246000fd5b60405162461bcd60e51b815260206004820152601a60248201527f50726f6a6563742049442063616e6e6f7420626520656d7074790000000000006044820152606490fd5b606460405162461bcd60e51b815260206004820152602060248201527f416d6f756e74206d7573742062652067726561746572207468616e207a65726f6044820152fd5b346101e95760403660031901126101e9576112de6115cd565b602435906001600160a01b0380806112f58561185c565b169216918083146113f0578033149081156113cb575b5015611360578260005260046020526040600020826001600160a01b03198254161790556113388361185c565b167f8c5be1e5ebec7d5bd14f71427d1e84f3dd0314c0f7b2291e5b200ac8c7c3b925600080a4005b60405162461bcd60e51b815260206004820152603d60248201527f4552433732313a20617070726f76652063616c6c6572206973206e6f7420746f60448201527f6b656e206f776e6572206f7220617070726f76656420666f7220616c6c0000006064820152608490fd5b9050600052600560205260406000203360005260205260ff604060002054168461130b565b60405162461bcd60e51b815260206004820152602160248201527f4552433732313a20617070726f76616c20746f2063757272656e74206f776e656044820152603960f91b6064820152608490fd5b346101e95760203660031901126101e957602061096360043561195e565b346101e95760003660031901126101e9576040516000805461147e8161187e565b8084529060019081811690811561054f57506001146114a75761033b846104e281860382611631565b600080805292507f290decd9548b62a8d60345a988386fc84ba6bc95484008f6362f93160ef3e5635b8284106114e85750505081016020016104e2826104d2565b805460208587018101919091529093019281016114d0565b346101e95760203660031901126101e9576004359063ffffffff60e01b82168092036101e95760209163780e9d6360e01b8114908115611542575b5015158152f35b6380ac58cd60e01b811491508115611574575b8115611563575b508361153b565b6301ffc9a760e01b1490508361155c565b635b5e139f60e01b81149150611555565b60005b8381106115985750506000910152565b8181015183820152602001611588565b906020916115c181518092818552858086019101611585565b601f01601f1916010190565b600435906001600160a01b03821682036101e957565b602435906001600160a01b03821682036101e957565b60a0810190811067ffffffffffffffff821117610fc057604052565b6020810190811067ffffffffffffffff821117610fc057604052565b90601f8019910116810190811067ffffffffffffffff821117610fc057604052565b67ffffffffffffffff8111610fc057601f01601f191660200190565b92919261167b82611653565b916116896040519384611631565b8294818452818301116101e9578281602093846000960137010152565b9080601f830112156101e9578160206116c19335910161166f565b90565b60609060031901126101e9576001600160a01b039060043582811681036101e9579160243590811681036101e9579060443590565b6116c19181518152602082015160208201526080611726604084015160a0604085015260a08401906115a8565b926060810151606084015201519060808184039101526115a8565b6001600160a01b03600a5416330361175557565b606460405162461bcd60e51b815260206004820152602060248201527f4f776e61626c653a2063616c6c6572206973206e6f7420746865206f776e65726044820152fd5b6001600160a01b031680156117b957600052600360205260406000205490565b60405162461bcd60e51b815260206004820152602960248201527f4552433732313a2061646472657373207a65726f206973206e6f7420612076616044820152683634b21037bbb732b960b91b6064820152608490fd5b1561181757565b60405162461bcd60e51b815260206004820152601860248201527f4552433732313a20696e76616c696420746f6b656e20494400000000000000006044820152606490fd5b60005260026020526001600160a01b03604060002054166116c1811515611810565b90600182811c921680156118ae575b602083101461189857565b634e487b7160e01b600052602260045260246000fd5b91607f169161188d565b90604051918260008254926118cc8461187e565b90818452600194858116908160001461193b57506001146118f8575b50506118f692500383611631565b565b9093915060005260209081600020936000915b8183106119235750506118f6935082010138806118e8565b8554888401850152948501948794509183019161190b565b9150506118f694506020925060ff191682840152151560051b82010138806118e8565b6119816103008260005260026020526001600160a01b0360406000205416151590565b60005260046020526001600160a01b036040600020541690565b156119a257565b60405162461bcd60e51b815260206004820152602d60248201527f4552433732313a2063616c6c6572206973206e6f7420746f6b656e206f776e6560448201526c1c881bdc88185c1c1c9bdd9959609a1b6064820152608490fd5b15611a0457565b60405162461bcd60e51b815260206004820152603260248201527f4552433732313a207472616e7366657220746f206e6f6e20455243373231526560448201527131b2b4bb32b91034b6b83632b6b2b73a32b960711b6064820152608490fd5b906001600160a01b038080611a788461185c565b16931691838314938415611aab575b508315611a95575b50505090565b611aa19192935061195e565b1614388080611a8f565b909350600052600560205260406000208260005260205260ff604060002054169238611a87565b15611ad957565b60405162461bcd60e51b815260206004820152602560248201527f4552433732313a207472616e736665722066726f6d20696e636f72726563742060448201526437bbb732b960d91b6064820152608490fd5b611b5091611b398461185c565b6001600160a01b0393848416939185168414611ad2565b838216938415611ce957839182611c465750611b9a92600854876000526009602052604060002055611b8187611f5e565b828603611c13575b50611b938661185c565b1614611ad2565b7fddf252ad1be2c89b69c2b068fc378daa952ba7f163c4a11628f55a4df523b3ef60008481526004602052604081206001600160a01b03199081815416905583825260036020526040822060001981540190558482526040822060018154019055858252600260205284604083209182541617905580a4565b611c1c90611799565b60406000878152600660205281812083825260205288828220558881526007602052205538611b89565b858303611c58575b50611b9a92611b81565b611c63919250611799565b60001981019190821161122657611b9a9284926000908882526020906007825260409182842054828103611cb2575b508a84528383812055868452600681528284209184525281205592611c4e565b8785526006825283852083865282528385205488865260068352848620828752835280858720558552600782528385205538611c92565b60405162461bcd60e51b8152602060048201526024808201527f4552433732313a207472616e7366657220746f20746865207a65726f206164646044820152637265737360e01b6064820152608490fd5b91929091803b15611e9657611d8f936040519081630a85bd0160e11b9384825233600483015260009687602484015260448301526080606483015281876001600160a01b038260209b8c9760848301906115a8565b0393165af1849181611e52575b50611e41575050503d600014611e39573d611db681611653565b90611dc46040519283611631565b81528091833d92013e5b80519182611e365760405162461bcd60e51b815260206004820152603260248201527f4552433732313a207472616e7366657220746f206e6f6e20455243373231526560448201527131b2b4bb32b91034b6b83632b6b2b73a32b960711b6064820152608490fd5b01fd5b506060611dce565b6001600160e01b0319161492509050565b9091508581813d8311611e8f575b611e6a8183611631565b81010312611e8b57516001600160e01b031981168103611e8b579038611d9c565b8480fd5b503d611e60565b50915050600190565b92939190803b15611f1d57611ef2946040518092630a85bd0160e11b948583523360048401526001600160a01b03809816602484015260448301526080606483015281806020998a9560848301906115a8565b03916000988991165af1849181611e525750611e41575050503d600014611e39573d611db681611653565b5050915050600190565b600854811015610faa5760086000527ff3f7a9fe364faab93b216da50a3214154f22a0a2b415b23a84c8169e8b636ee30190600090565b60085468010000000000000000811015610fc057806001611f829201600855611f27565b819291549060031b91821b91600019901b1916179055565b806000917a184f03e93ff9f4daa797ed6e38ed64bf6a1f01000000000000000080821015612101575b506d04ee2d6d415b85acef8100000000808310156120f2575b50662386f26fc10000808310156120e3575b506305f5e100808310156120d4575b50612710808310156120c5575b5060648210156120b5575b600a809210156120ab575b6001908160218186019561203387611653565b966120416040519889611631565b808852612050601f1991611653565b01366020890137860101905b612068575b5050505090565b600019019083907f30313233343536373839616263646566000000000000000000000000000000008282061a8353049182156120a65791908261205c565b612061565b9160010191612020565b9190606460029104910191612015565b6004919392049101913861200a565b60089193920491019138611ffd565b60109193920491019138611fee565b60209193920491019138611fdc565b604093508104915038611fc3565b60001981146112265760010190565b1561212557565b60405162461bcd60e51b815260206004820152601c60248201527f4552433732313a20746f6b656e20616c7265616479206d696e746564000000006044820152606490fd5b908151811015610faa570160200190565b60f81c600a8110156121a25760300160ff81116112265760f81b6001600160f81b03191690565b60570160ff81116112265760f81b6001600160f81b03191690565b604051906121ca826115f9565b606060808360008152600060208201528260408201526000838201520152565b67ffffffffffffffff8111610fc05760051b60200190565b8051821015610faa5760209160051b01019056fea2646970667358221220fd78fa66e406e1c5bf5d0469d4c1f94798f985d61eada35ef35b535b3489524964736f6c63430008140033",
          "opcodes": "PUSH1 0x80 CALLVALUE PUSH3 0x36D JUMPI PUSH1 0x1 PUSH1 0x1 PUSH1 0x40 SHL SUB SWAP1 PUSH1 0x40 DUP2 DUP2 ADD DUP4 DUP2 GT DUP4 DUP3 LT OR PUSH3 0x357 JUMPI DUP2 MSTORE PUSH1 0x19 DUP3 MSTORE PUSH1 0x20 SWAP2 PUSH32 0x436172626F6E2043726564697420436572746966696361746500000000000000 DUP4 DUP3 ADD MSTORE DUP2 MLOAD SWAP4 DUP3 DUP6 ADD DUP6 DUP2 LT DUP3 DUP3 GT OR PUSH3 0x357 JUMPI DUP4 MSTORE PUSH1 0x6 DUP6 MSTORE PUSH6 0x21A0A92127A7 PUSH1 0xD1 SHL DUP5 DUP7 ADD MSTORE DUP2 MLOAD DUP2 DUP2 GT PUSH3 0x357 JUMPI PUSH1 0x0 SWAP5 DUP6 SLOAD SWAP2 PUSH1 0x1 SWAP5 DUP6 DUP5 DUP2 SHR SWAP5 AND DUP1 ISZERO PUSH3 0x34C JUMPI JUMPDEST DUP4 DUP6 LT EQ PUSH3 0x338 JUMPI DUP2 SWAP1 PUSH1 0x1F SWAP5 DUP6 DUP2 GT PUSH3 0x2E5 JUMPI JUMPDEST POP DUP4 SWAP1 DUP6 DUP4 GT PUSH1 0x1 EQ PUSH3 0x281 JUMPI DUP10 SWAP3 PUSH3 0x275 JUMPI JUMPDEST POP POP PUSH1 0x0 NOT PUSH1 0x3 DUP4 SWAP1 SHL SHR NOT AND SWAP1 DUP6 SHL OR DUP7 SSTORE JUMPDEST DUP7 MLOAD SWAP3 DUP4 GT PUSH3 0x261 JUMPI DUP4 SLOAD DUP5 DUP2 DUP2 SHR SWAP2 AND DUP1 ISZERO PUSH3 0x256 JUMPI JUMPDEST DUP3 DUP3 LT EQ PUSH3 0x242 JUMPI DUP3 DUP2 GT PUSH3 0x1FA JUMPI JUMPDEST POP DUP1 SWAP2 DUP4 GT PUSH1 0x1 EQ PUSH3 0x193 JUMPI POP DUP5 SWAP6 DUP3 SWAP4 SWAP5 SWAP6 SWAP3 PUSH3 0x187 JUMPI JUMPDEST POP POP PUSH1 0x0 NOT PUSH1 0x3 DUP4 SWAP1 SHL SHR NOT AND SWAP1 DUP3 SHL OR SWAP1 SSTORE JUMPDEST PUSH1 0xA DUP1 SLOAD CALLER PUSH1 0x1 PUSH1 0x1 PUSH1 0xA0 SHL SUB NOT DUP3 AND DUP2 OR SWAP1 SWAP3 SSTORE SWAP2 MLOAD SWAP3 SWAP1 SWAP2 PUSH1 0x1 PUSH1 0x1 PUSH1 0xA0 SHL SUB AND SWAP1 PUSH32 0x8BE0079C531659141344CD1FD0A4F28419497F9722A3DAAFE3B4186F6B6457E0 SWAP1 DUP1 LOG3 PUSH2 0x224C SWAP1 DUP2 PUSH3 0x373 DUP3 CODECOPY RETURN JUMPDEST ADD MLOAD SWAP1 POP CODESIZE DUP1 PUSH3 0x11E JUMP JUMPDEST SWAP1 PUSH1 0x1F NOT DUP4 AND SWAP7 DUP5 DUP8 MSTORE DUP3 DUP8 KECCAK256 SWAP3 DUP8 SWAP1 JUMPDEST DUP10 DUP3 LT PUSH3 0x1E2 JUMPI POP POP DUP4 DUP6 SWAP7 SWAP8 SWAP9 LT PUSH3 0x1C8 JUMPI JUMPDEST POP POP POP DUP2 SHL ADD SWAP1 SSTORE PUSH3 0x132 JUMP JUMPDEST ADD MLOAD PUSH1 0x0 NOT PUSH1 0xF8 DUP5 PUSH1 0x3 SHL AND SHR NOT AND SWAP1 SSTORE CODESIZE DUP1 DUP1 PUSH3 0x1BA JUMP JUMPDEST DUP1 DUP8 DUP6 SWAP7 DUP3 SWAP5 SWAP7 DUP7 ADD MLOAD DUP2 SSTORE ADD SWAP6 ADD SWAP4 ADD SWAP1 PUSH3 0x1A4 JUMP JUMPDEST DUP5 DUP8 MSTORE DUP2 DUP8 KECCAK256 DUP4 DUP1 DUP7 ADD PUSH1 0x5 SHR DUP3 ADD SWAP3 DUP5 DUP8 LT PUSH3 0x238 JUMPI JUMPDEST ADD PUSH1 0x5 SHR ADD SWAP1 DUP6 SWAP1 JUMPDEST DUP3 DUP2 LT PUSH3 0x22C JUMPI POP POP PUSH3 0x103 JUMP JUMPDEST DUP9 DUP2 SSTORE ADD DUP6 SWAP1 PUSH3 0x21C JUMP JUMPDEST SWAP3 POP DUP2 SWAP3 PUSH3 0x213 JUMP JUMPDEST PUSH4 0x4E487B71 PUSH1 0xE0 SHL DUP8 MSTORE PUSH1 0x22 PUSH1 0x4 MSTORE PUSH1 0x24 DUP8 REVERT JUMPDEST SWAP1 PUSH1 0x7F AND SWAP1 PUSH3 0xF1 JUMP JUMPDEST PUSH4 0x4E487B71 PUSH1 0xE0 SHL DUP7 MSTORE PUSH1 0x41 PUSH1 0x4 MSTORE PUSH1 0x24 DUP7 REVERT JUMPDEST ADD MLOAD SWAP1 POP CODESIZE DUP1 PUSH3 0xC3 JUMP JUMPDEST DUP10 DUP1 MSTORE DUP5 DUP11 KECCAK256 DUP9 SWAP5 POP SWAP2 SWAP1 PUSH1 0x1F NOT DUP5 AND DUP12 JUMPDEST DUP8 DUP3 DUP3 LT PUSH3 0x2CE JUMPI POP POP DUP5 GT PUSH3 0x2B4 JUMPI JUMPDEST POP POP POP DUP2 SHL ADD DUP7 SSTORE PUSH3 0xD7 JUMP JUMPDEST ADD MLOAD PUSH1 0x0 NOT PUSH1 0xF8 DUP5 PUSH1 0x3 SHL AND SHR NOT AND SWAP1 SSTORE CODESIZE DUP1 DUP1 PUSH3 0x2A6 JUMP JUMPDEST DUP4 DUP6 ADD MLOAD DUP7 SSTORE DUP12 SWAP8 SWAP1 SWAP6 ADD SWAP5 SWAP4 DUP5 ADD SWAP4 ADD PUSH3 0x293 JUMP JUMPDEST SWAP1 SWAP2 POP DUP9 DUP1 MSTORE DUP4 DUP10 KECCAK256 DUP6 DUP1 DUP6 ADD PUSH1 0x5 SHR DUP3 ADD SWAP3 DUP7 DUP7 LT PUSH3 0x32E JUMPI JUMPDEST SWAP2 DUP10 SWAP2 DUP7 SWAP6 SWAP5 SWAP4 ADD PUSH1 0x5 SHR ADD SWAP2 JUMPDEST DUP3 DUP2 LT PUSH3 0x31F JUMPI POP POP PUSH3 0xAD JUMP JUMPDEST DUP12 DUP2 SSTORE DUP6 SWAP5 POP DUP10 SWAP2 ADD PUSH3 0x30F JUMP JUMPDEST SWAP3 POP DUP2 SWAP3 PUSH3 0x301 JUMP JUMPDEST PUSH4 0x4E487B71 PUSH1 0xE0 SHL DUP9 MSTORE PUSH1 0x22 PUSH1 0x4 MSTORE PUSH1 0x24 DUP9 REVERT JUMPDEST SWAP4 PUSH1 0x7F AND SWAP4 PUSH3 0x96 JUMP JUMPDEST PUSH4 0x4E487B71 PUSH1 0xE0 SHL PUSH1 0x0 MSTORE PUSH1 0x41 PUSH1 0x4 MSTORE PUSH1 0x24 PUSH1 0x0 REVERT JUMPDEST PUSH1 0x0 DUP1 REVERT INVALID PUSH1 0x80 DUP1 PUSH1 0x40 MSTORE PUSH1 0x4 CALLDATASIZE LT ISZERO PUSH2 0x13 JUMPI PUSH1 0x0 DUP1 REVERT JUMPDEST PUSH1 0x0 CALLDATALOAD PUSH1 0xE0 SHR SWAP1 DUP2 PUSH4 0x1FFC9A7 EQ PUSH2 0x1500 JUMPI POP DUP1 PUSH4 0x6FDDE03 EQ PUSH2 0x145D JUMPI DUP1 PUSH4 0x81812FC EQ PUSH2 0x143F JUMPI DUP1 PUSH4 0x95EA7B3 EQ PUSH2 0x12C5 JUMPI DUP1 PUSH4 0xCE51F56 EQ PUSH2 0xB28 JUMPI DUP1 PUSH4 0x18160DDD EQ PUSH2 0xB0A JUMPI DUP1 PUSH4 0x23B872DD EQ PUSH2 0xAEB JUMPI DUP1 PUSH4 0x2F745C59 EQ PUSH2 0xA38 JUMPI DUP1 PUSH4 0x42842E0E EQ PUSH2 0xA05 JUMPI DUP1 PUSH4 0x4F6CCCE7 EQ PUSH2 0x974 JUMPI DUP1 PUSH4 0x6352211E EQ PUSH2 0x945 JUMPI DUP1 PUSH4 0x66242C5E EQ PUSH2 0x837 JUMPI DUP1 PUSH4 0x70A08231 EQ PUSH2 0x80C JUMPI DUP1 PUSH4 0x715018A6 EQ PUSH2 0x7B8 JUMPI DUP1 PUSH4 0x800D0994 EQ PUSH2 0x5FC JUMPI DUP1 PUSH4 0x8B23D875 EQ PUSH2 0x59D JUMPI DUP1 PUSH4 0x8DA5CB5B EQ PUSH2 0x576 JUMPI DUP1 PUSH4 0x95D89B41 EQ PUSH2 0x497 JUMPI DUP1 PUSH4 0xA22CB465 EQ PUSH2 0x3C5 JUMPI DUP1 PUSH4 0xB88D4FDE EQ PUSH2 0x33F JUMPI DUP1 PUSH4 0xC87B56DD EQ PUSH2 0x2CA JUMPI DUP1 PUSH4 0xCF3AE934 EQ PUSH2 0x245 JUMPI DUP1 PUSH4 0xE985E9C5 EQ PUSH2 0x1EE JUMPI PUSH4 0xF2FDE38B EQ PUSH2 0x127 JUMPI PUSH1 0x0 DUP1 REVERT JUMPDEST CALLVALUE PUSH2 0x1E9 JUMPI PUSH1 0x20 CALLDATASIZE PUSH1 0x3 NOT ADD SLT PUSH2 0x1E9 JUMPI PUSH2 0x140 PUSH2 0x15CD JUMP JUMPDEST PUSH2 0x148 PUSH2 0x1741 JUMP JUMPDEST PUSH1 0x1 PUSH1 0x1 PUSH1 0xA0 SHL SUB DUP1 SWAP2 AND SWAP1 DUP2 ISZERO PUSH2 0x195 JUMPI PUSH1 0xA SLOAD DUP3 PUSH1 0x1 PUSH1 0x1 PUSH1 0xA0 SHL SUB NOT DUP3 AND OR PUSH1 0xA SSTORE AND PUSH32 0x8BE0079C531659141344CD1FD0A4F28419497F9722A3DAAFE3B4186F6B6457E0 PUSH1 0x0 DUP1 LOG3 STOP JUMPDEST PUSH1 0x40 MLOAD PUSH3 0x461BCD PUSH1 0xE5 SHL DUP2 MSTORE PUSH1 0x20 PUSH1 0x4 DUP3 ADD MSTORE PUSH1 0x26 PUSH1 0x24 DUP3 ADD MSTORE PUSH32 0x4F776E61626C653A206E6577206F776E657220697320746865207A65726F2061 PUSH1 0x44 DUP3 ADD MSTORE PUSH6 0x646472657373 PUSH1 0xD0 SHL PUSH1 0x64 DUP3 ADD MSTORE PUSH1 0x84 SWAP1 REVERT JUMPDEST PUSH1 0x0 DUP1 REVERT JUMPDEST CALLVALUE PUSH2 0x1E9 JUMPI PUSH1 0x40 CALLDATASIZE PUSH1 0x3 NOT ADD SLT PUSH2 0x1E9 JUMPI PUSH2 0x207 PUSH2 0x15CD JUMP JUMPDEST PUSH2 0x20F PUSH2 0x15E3 JUMP JUMPDEST SWAP1 PUSH1 0x1 PUSH1 0x1 PUSH1 0xA0 SHL SUB DUP1 SWAP2 AND PUSH1 0x0 MSTORE PUSH1 0x5 PUSH1 0x20 MSTORE PUSH1 0x40 PUSH1 0x0 KECCAK256 SWAP2 AND PUSH1 0x0 MSTORE PUSH1 0x20 MSTORE PUSH1 0x20 PUSH1 0xFF PUSH1 0x40 PUSH1 0x0 KECCAK256 SLOAD AND PUSH1 0x40 MLOAD SWAP1 ISZERO ISZERO DUP2 MSTORE RETURN JUMPDEST CALLVALUE PUSH2 0x1E9 JUMPI PUSH1 0x40 CALLDATASIZE PUSH1 0x3 NOT ADD SLT PUSH2 0x1E9 JUMPI PUSH1 0x4 CALLDATALOAD PUSH2 0x261 PUSH2 0x15E3 JUMP JUMPDEST SWAP1 PUSH2 0x26C DUP2 CALLER PUSH2 0x1A64 JUMP JUMPDEST ISZERO PUSH2 0x285 JUMPI PUSH2 0x283 SWAP2 PUSH2 0x27E DUP3 PUSH2 0x185C JUMP JUMPDEST PUSH2 0x1B2C JUMP JUMPDEST STOP JUMPDEST PUSH1 0x40 MLOAD PUSH3 0x461BCD PUSH1 0xE5 SHL DUP2 MSTORE PUSH1 0x20 PUSH1 0x4 DUP3 ADD MSTORE PUSH1 0x18 PUSH1 0x24 DUP3 ADD MSTORE PUSH32 0x4E6F7420617070726F76656420746F207472616E736665720000000000000000 PUSH1 0x44 DUP3 ADD MSTORE PUSH1 0x64 SWAP1 REVERT JUMPDEST CALLVALUE PUSH2 0x1E9 JUMPI PUSH1 0x20 CALLDATASIZE PUSH1 0x3 NOT ADD SLT PUSH2 0x1E9 JUMPI PUSH2 0x305 PUSH2 0x300 PUSH1 0x4 CALLDATALOAD PUSH1 0x0 MSTORE PUSH1 0x2 PUSH1 0x20 MSTORE PUSH1 0x1 PUSH1 0x1 PUSH1 0xA0 SHL SUB PUSH1 0x40 PUSH1 0x0 KECCAK256 SLOAD AND ISZERO ISZERO SWAP1 JUMP JUMPDEST PUSH2 0x1810 JUMP JUMPDEST PUSH1 0x0 PUSH1 0x40 MLOAD PUSH2 0x313 DUP2 PUSH2 0x1615 JUMP JUMPDEST MSTORE PUSH2 0x33B PUSH1 0x40 MLOAD PUSH2 0x323 DUP2 PUSH2 0x1615 JUMP JUMPDEST PUSH1 0x0 DUP2 MSTORE PUSH1 0x40 MLOAD SWAP2 DUP3 SWAP2 PUSH1 0x20 DUP4 MSTORE PUSH1 0x20 DUP4 ADD SWAP1 PUSH2 0x15A8 JUMP JUMPDEST SUB SWAP1 RETURN JUMPDEST CALLVALUE PUSH2 0x1E9 JUMPI PUSH1 0x80 CALLDATASIZE PUSH1 0x3 NOT ADD SLT PUSH2 0x1E9 JUMPI PUSH2 0x358 PUSH2 0x15CD JUMP JUMPDEST PUSH2 0x360 PUSH2 0x15E3 JUMP JUMPDEST SWAP1 PUSH1 0x64 CALLDATALOAD SWAP1 PUSH1 0x44 CALLDATALOAD PUSH8 0xFFFFFFFFFFFFFFFF DUP4 GT PUSH2 0x1E9 JUMPI CALLDATASIZE PUSH1 0x23 DUP5 ADD SLT ISZERO PUSH2 0x1E9 JUMPI PUSH2 0x283 SWAP4 PUSH2 0x39D PUSH2 0x3C0 SWAP5 CALLDATASIZE SWAP1 PUSH1 0x24 DUP2 PUSH1 0x4 ADD CALLDATALOAD SWAP2 ADD PUSH2 0x166F JUMP JUMPDEST SWAP3 PUSH2 0x3B0 PUSH2 0x3AB DUP5 CALLER PUSH2 0x1A64 JUMP JUMPDEST PUSH2 0x199B JUMP JUMPDEST PUSH2 0x3BB DUP4 DUP4 DUP4 PUSH2 0x1B2C JUMP JUMPDEST PUSH2 0x1E9F JUMP JUMPDEST PUSH2 0x19FD JUMP JUMPDEST CALLVALUE PUSH2 0x1E9 JUMPI PUSH1 0x40 CALLDATASIZE PUSH1 0x3 NOT ADD SLT PUSH2 0x1E9 JUMPI PUSH2 0x3DE PUSH2 0x15CD JUMP JUMPDEST PUSH1 0x24 CALLDATALOAD SWAP1 DUP2 ISZERO ISZERO DUP1 SWAP3 SUB PUSH2 0x1E9 JUMPI PUSH1 0x1 PUSH1 0x1 PUSH1 0xA0 SHL SUB AND SWAP1 DUP2 CALLER EQ PUSH2 0x452 JUMPI CALLER PUSH1 0x0 MSTORE PUSH1 0x5 PUSH1 0x20 MSTORE PUSH1 0x40 PUSH1 0x0 KECCAK256 DUP3 PUSH1 0x0 MSTORE PUSH1 0x20 MSTORE PUSH1 0x40 PUSH1 0x0 KECCAK256 PUSH1 0xFF NOT DUP2 SLOAD AND PUSH1 0xFF DUP4 AND OR SWAP1 SSTORE PUSH1 0x40 MLOAD SWAP1 DUP2 MSTORE PUSH32 0x17307EAB39AB6107E8899845AD3D59BD9653F200F220920489CA2B5937696C31 PUSH1 0x20 CALLER SWAP3 LOG3 STOP JUMPDEST PUSH1 0x40 MLOAD PUSH3 0x461BCD PUSH1 0xE5 SHL DUP2 MSTORE PUSH1 0x20 PUSH1 0x4 DUP3 ADD MSTORE PUSH1 0x19 PUSH1 0x24 DUP3 ADD MSTORE PUSH32 0x4552433732313A20617070726F766520746F2063616C6C657200000000000000 PUSH1 0x44 DUP3 ADD MSTORE PUSH1 0x64 SWAP1 REVERT JUMPDEST CALLVALUE PUSH2 0x1E9 JUMPI PUSH1 0x0 CALLDATASIZE PUSH1 0x3 NOT ADD SLT PUSH2 0x1E9 JUMPI PUSH1 0x40 MLOAD PUSH1 0x0 PUSH1 0x1 DUP1 SLOAD SWAP1 PUSH2 0x4BB DUP3 PUSH2 0x187E JUMP JUMPDEST DUP1 DUP6 MSTORE SWAP2 DUP2 DUP2 AND SWAP1 DUP2 ISZERO PUSH2 0x54F JUMPI POP PUSH1 0x1 EQ PUSH2 0x4F6 JUMPI JUMPDEST PUSH2 0x33B DUP5 PUSH2 0x4E2 DUP2 DUP7 SUB DUP3 PUSH2 0x1631 JUMP JUMPDEST PUSH1 0x40 MLOAD SWAP2 DUP3 SWAP2 PUSH1 0x20 DUP4 MSTORE PUSH1 0x20 DUP4 ADD SWAP1 PUSH2 0x15A8 JUMP JUMPDEST PUSH1 0x0 DUP2 DUP2 MSTORE SWAP3 POP PUSH32 0xB10E2D527612073B26EECDFD717E6A320CF44B4AFAC2B0732D9FCBE2B7FA0CF6 JUMPDEST DUP3 DUP5 LT PUSH2 0x537 JUMPI POP POP POP DUP2 ADD PUSH1 0x20 ADD PUSH2 0x4E2 DUP3 PUSH2 0x4D2 JUMP JUMPDEST DUP1 SLOAD PUSH1 0x20 DUP6 DUP8 ADD DUP2 ADD SWAP2 SWAP1 SWAP2 MSTORE SWAP1 SWAP4 ADD SWAP3 DUP2 ADD PUSH2 0x51F JUMP JUMPDEST PUSH1 0xFF NOT AND PUSH1 0x20 DUP1 DUP8 ADD SWAP2 SWAP1 SWAP2 MSTORE SWAP3 ISZERO ISZERO PUSH1 0x5 SHL DUP6 ADD SWAP1 SWAP3 ADD SWAP3 POP PUSH2 0x4E2 SWAP2 POP DUP4 SWAP1 POP PUSH2 0x4D2 JUMP JUMPDEST CALLVALUE PUSH2 0x1E9 JUMPI PUSH1 0x0 CALLDATASIZE PUSH1 0x3 NOT ADD SLT PUSH2 0x1E9 JUMPI PUSH1 0x20 PUSH1 0x1 PUSH1 0x1 PUSH1 0xA0 SHL SUB PUSH1 0xA SLOAD AND PUSH1 0x40 MLOAD SWAP1 DUP2 MSTORE RETURN JUMPDEST CALLVALUE PUSH2 0x1E9 JUMPI PUSH1 0x20 CALLDATASIZE PUSH1 0x3 NOT ADD SLT PUSH2 0x1E9 JUMPI PUSH1 0x4 CALLDATALOAD PUSH8 0xFFFFFFFFFFFFFFFF DUP2 GT PUSH2 0x1E9 JUMPI PUSH2 0x5E7 PUSH1 0x20 PUSH2 0x5D4 DUP2 SWAP4 CALLDATASIZE SWAP1 PUSH1 0x4 ADD PUSH2 0x16A6 JUMP JUMPDEST DUP2 PUSH1 0x40 MLOAD SWAP4 DUP3 DUP6 DUP1 SWAP5 MLOAD SWAP4 DUP5 SWAP3 ADD PUSH2 0x1585 JUMP JUMPDEST DUP2 ADD PUSH1 0xE DUP2 MSTORE SUB ADD SWAP1 KECCAK256 SLOAD ISZERO ISZERO PUSH1 0x40 MLOAD SWAP1 DUP2 MSTORE RETURN JUMPDEST CALLVALUE PUSH2 0x1E9 JUMPI PUSH1 0x20 DUP1 PUSH1 0x3 NOT CALLDATASIZE ADD SLT PUSH2 0x1E9 JUMPI PUSH1 0x4 CALLDATALOAD PUSH8 0xFFFFFFFFFFFFFFFF DUP2 GT PUSH2 0x1E9 JUMPI DUP2 PUSH2 0x5D4 PUSH2 0x632 SWAP3 CALLDATASIZE SWAP1 PUSH1 0x4 ADD PUSH2 0x16A6 JUMP JUMPDEST DUP2 ADD PUSH1 0xD DUP2 MSTORE SUB ADD SWAP1 KECCAK256 PUSH1 0x40 MLOAD DUP1 DUP3 DUP5 DUP3 SWAP5 SLOAD SWAP4 DUP5 DUP2 MSTORE ADD SWAP1 PUSH1 0x0 MSTORE DUP5 PUSH1 0x0 KECCAK256 SWAP3 PUSH1 0x0 JUMPDEST DUP7 DUP3 DUP3 LT PUSH2 0x7A2 JUMPI DUP5 PUSH2 0x66B DUP2 DUP7 SUB DUP3 PUSH2 0x1631 JUMP JUMPDEST DUP1 MLOAD PUSH2 0x676 DUP2 PUSH2 0x21EA JUMP JUMPDEST SWAP1 PUSH2 0x684 PUSH1 0x40 MLOAD SWAP3 DUP4 PUSH2 0x1631 JUMP JUMPDEST DUP1 DUP3 MSTORE PUSH2 0x693 PUSH1 0x1F NOT SWAP2 PUSH2 0x21EA JUMP JUMPDEST ADD DUP4 PUSH1 0x0 JUMPDEST DUP3 DUP2 LT PUSH2 0x78C JUMPI POP POP POP PUSH1 0x0 JUMPDEST DUP3 MLOAD DUP2 LT ISZERO PUSH2 0x72E JUMPI DUP1 PUSH2 0x6BC PUSH2 0x729 SWAP3 DUP6 PUSH2 0x2202 JUMP JUMPDEST MLOAD PUSH1 0x0 MSTORE PUSH1 0xC DUP6 MSTORE PUSH1 0x40 PUSH1 0x0 KECCAK256 PUSH2 0x709 PUSH1 0x4 PUSH1 0x40 MLOAD SWAP3 PUSH2 0x6DB DUP5 PUSH2 0x15F9 JUMP JUMPDEST DUP1 SLOAD DUP5 MSTORE PUSH1 0x1 DUP2 ADD SLOAD DUP10 DUP6 ADD MSTORE PUSH2 0x6F4 PUSH1 0x2 DUP3 ADD PUSH2 0x18B8 JUMP JUMPDEST PUSH1 0x40 DUP6 ADD MSTORE PUSH1 0x3 DUP2 ADD SLOAD PUSH1 0x60 DUP6 ADD MSTORE ADD PUSH2 0x18B8 JUMP JUMPDEST PUSH1 0x80 DUP3 ADD MSTORE PUSH2 0x718 DUP3 DUP6 PUSH2 0x2202 JUMP JUMPDEST MSTORE PUSH2 0x723 DUP2 DUP5 PUSH2 0x2202 JUMP JUMPDEST POP PUSH2 0x210F JUMP JUMPDEST PUSH2 0x6A5 JUMP JUMPDEST PUSH1 0x40 DUP1 MLOAD DUP6 DUP2 MSTORE DUP4 MLOAD DUP2 DUP8 ADD DUP2 SWAP1 MSTORE PUSH1 0x0 SWAP3 PUSH1 0x5 DUP3 SWAP1 SHL DUP4 ADD DUP2 ADD SWAP2 DUP7 DUP10 ADD SWAP2 DUP10 SWAP1 DUP6 ADD JUMPDEST DUP3 DUP8 LT PUSH2 0x760 JUMPI DUP6 DUP6 SUB DUP7 RETURN JUMPDEST SWAP1 SWAP2 SWAP3 SWAP4 DUP3 DUP1 PUSH2 0x77C PUSH1 0x1 SWAP4 PUSH1 0x3F NOT DUP11 DUP3 SUB ADD DUP7 MSTORE DUP9 MLOAD PUSH2 0x16F9 JUMP JUMPDEST SWAP7 ADD SWAP3 ADD SWAP7 ADD SWAP6 SWAP3 SWAP2 SWAP1 SWAP3 PUSH2 0x753 JUMP JUMPDEST PUSH2 0x794 PUSH2 0x21BD JUMP JUMPDEST DUP3 DUP3 DUP7 ADD ADD MSTORE ADD DUP5 SWAP1 PUSH2 0x698 JUMP JUMPDEST DUP6 SLOAD DUP5 MSTORE PUSH1 0x1 SWAP6 DUP7 ADD SWAP6 DUP8 SWAP6 POP SWAP4 ADD SWAP3 ADD PUSH2 0x656 JUMP JUMPDEST CALLVALUE PUSH2 0x1E9 JUMPI PUSH1 0x0 CALLDATASIZE PUSH1 0x3 NOT ADD SLT PUSH2 0x1E9 JUMPI PUSH2 0x7D1 PUSH2 0x1741 JUMP JUMPDEST PUSH1 0x0 PUSH1 0x1 PUSH1 0x1 PUSH1 0xA0 SHL SUB PUSH1 0xA SLOAD DUP2 NOT DUP2 AND PUSH1 0xA SSTORE AND PUSH32 0x8BE0079C531659141344CD1FD0A4F28419497F9722A3DAAFE3B4186F6B6457E0 DUP3 DUP1 LOG3 STOP JUMPDEST CALLVALUE PUSH2 0x1E9 JUMPI PUSH1 0x20 CALLDATASIZE PUSH1 0x3 NOT ADD SLT PUSH2 0x1E9 JUMPI PUSH1 0x20 PUSH2 0x82F PUSH2 0x82A PUSH2 0x15CD JUMP JUMPDEST PUSH2 0x1799 JUMP JUMPDEST PUSH1 0x40 MLOAD SWAP1 DUP2 MSTORE RETURN JUMPDEST CALLVALUE PUSH2 0x1E9 JUMPI PUSH1 0x20 DUP1 PUSH1 0x3 NOT CALLDATASIZE ADD SLT PUSH2 0x1E9 JUMPI PUSH1 0x4 CALLDATALOAD PUSH8 0xFFFFFFFFFFFFFFFF DUP2 GT PUSH2 0x1E9 JUMPI DUP2 PUSH2 0x86D PUSH2 0x889 SWAP3 CALLDATASIZE SWAP1 PUSH1 0x4 ADD PUSH2 0x16A6 JUMP JUMPDEST PUSH2 0x875 PUSH2 0x21BD JUMP JUMPDEST POP DUP2 PUSH1 0x40 MLOAD SWAP4 DUP3 DUP6 DUP1 SWAP5 MLOAD SWAP4 DUP5 SWAP3 ADD PUSH2 0x1585 JUMP JUMPDEST DUP2 ADD PUSH1 0xE DUP2 MSTORE SUB ADD SWAP1 KECCAK256 SLOAD DUP1 ISZERO PUSH2 0x900 JUMPI PUSH1 0x0 MSTORE PUSH1 0xC DUP2 MSTORE PUSH1 0x40 PUSH1 0x0 KECCAK256 SWAP1 PUSH2 0x8E7 PUSH1 0x4 PUSH1 0x40 MLOAD SWAP4 PUSH2 0x8B9 DUP6 PUSH2 0x15F9 JUMP JUMPDEST DUP1 SLOAD DUP6 MSTORE PUSH1 0x1 DUP2 ADD SLOAD DUP5 DUP7 ADD MSTORE PUSH2 0x8D2 PUSH1 0x2 DUP3 ADD PUSH2 0x18B8 JUMP JUMPDEST PUSH1 0x40 DUP7 ADD MSTORE PUSH1 0x3 DUP2 ADD SLOAD PUSH1 0x60 DUP7 ADD MSTORE ADD PUSH2 0x18B8 JUMP JUMPDEST PUSH1 0x80 DUP4 ADD MSTORE PUSH2 0x33B PUSH1 0x40 MLOAD SWAP3 DUP3 DUP5 SWAP4 DUP5 MSTORE DUP4 ADD SWAP1 PUSH2 0x16F9 JUMP JUMPDEST PUSH1 0x40 MLOAD PUSH3 0x461BCD PUSH1 0xE5 SHL DUP2 MSTORE PUSH1 0x4 DUP2 ADD DUP4 SWAP1 MSTORE PUSH1 0x15 PUSH1 0x24 DUP3 ADD MSTORE PUSH32 0x4365727469666963617465206E6F7420666F756E640000000000000000000000 PUSH1 0x44 DUP3 ADD MSTORE PUSH1 0x64 SWAP1 REVERT JUMPDEST CALLVALUE PUSH2 0x1E9 JUMPI PUSH1 0x20 CALLDATASIZE PUSH1 0x3 NOT ADD SLT PUSH2 0x1E9 JUMPI PUSH1 0x20 PUSH2 0x963 PUSH1 0x4 CALLDATALOAD PUSH2 0x185C JUMP JUMPDEST PUSH1 0x1 PUSH1 0x1 PUSH1 0xA0 SHL SUB PUSH1 0x40 MLOAD SWAP2 AND DUP2 MSTORE RETURN JUMPDEST CALLVALUE PUSH2 0x1E9 JUMPI PUSH1 0x20 CALLDATASIZE PUSH1 0x3 NOT ADD SLT PUSH2 0x1E9 JUMPI PUSH1 0x4 CALLDATALOAD PUSH1 0x8 SLOAD DUP2 LT ISZERO PUSH2 0x9AB JUMPI PUSH2 0x99D PUSH1 0x20 SWAP2 PUSH2 0x1F27 JUMP JUMPDEST SWAP1 SLOAD PUSH1 0x40 MLOAD SWAP2 PUSH1 0x3 SHL SHR DUP2 MSTORE RETURN JUMPDEST PUSH1 0x40 MLOAD PUSH3 0x461BCD PUSH1 0xE5 SHL DUP2 MSTORE PUSH1 0x20 PUSH1 0x4 DUP3 ADD MSTORE PUSH1 0x2C PUSH1 0x24 DUP3 ADD MSTORE PUSH32 0x455243373231456E756D657261626C653A20676C6F62616C20696E646578206F PUSH1 0x44 DUP3 ADD MSTORE PUSH12 0x7574206F6620626F756E6473 PUSH1 0xA0 SHL PUSH1 0x64 DUP3 ADD MSTORE PUSH1 0x84 SWAP1 REVERT JUMPDEST CALLVALUE PUSH2 0x1E9 JUMPI PUSH2 0x283 PUSH2 0x3C0 PUSH2 0xA19 CALLDATASIZE PUSH2 0x16C4 JUMP JUMPDEST SWAP1 PUSH1 0x40 MLOAD SWAP3 PUSH2 0xA27 DUP5 PUSH2 0x1615 JUMP JUMPDEST PUSH1 0x0 DUP5 MSTORE PUSH2 0x3B0 PUSH2 0x3AB DUP5 CALLER PUSH2 0x1A64 JUMP JUMPDEST CALLVALUE PUSH2 0x1E9 JUMPI PUSH1 0x40 CALLDATASIZE PUSH1 0x3 NOT ADD SLT PUSH2 0x1E9 JUMPI PUSH2 0xA51 PUSH2 0x15CD JUMP JUMPDEST PUSH1 0x24 CALLDATALOAD SWAP1 PUSH2 0xA5E DUP2 PUSH2 0x1799 JUMP JUMPDEST DUP3 LT ISZERO PUSH2 0xA92 JUMPI PUSH1 0x1 PUSH1 0x1 PUSH1 0xA0 SHL SUB AND PUSH1 0x0 MSTORE PUSH1 0x6 PUSH1 0x20 MSTORE PUSH1 0x40 PUSH1 0x0 KECCAK256 SWAP1 PUSH1 0x0 MSTORE PUSH1 0x20 MSTORE PUSH1 0x20 PUSH1 0x40 PUSH1 0x0 KECCAK256 SLOAD PUSH1 0x40 MLOAD SWAP1 DUP2 MSTORE RETURN JUMPDEST PUSH1 0x40 MLOAD PUSH3 0x461BCD PUSH1 0xE5 SHL DUP2 MSTORE PUSH1 0x20 PUSH1 0x4 DUP3 ADD MSTORE PUSH1 0x2B PUSH1 0x24 DUP3 ADD MSTORE PUSH32 0x455243373231456E756D657261626C653A206F776E657220696E646578206F75 PUSH1 0x44 DUP3 ADD MSTORE PUSH11 0x74206F6620626F756E6473 PUSH1 0xA8 SHL PUSH1 0x64 DUP3 ADD MSTORE PUSH1 0x84 SWAP1 REVERT JUMPDEST CALLVALUE PUSH2 0x1E9 JUMPI PUSH2 0x283 PUSH2 0xAFC CALLDATASIZE PUSH2 0x16C4 JUMP JUMPDEST SWAP2 PUSH2 0x27E PUSH2 0x3AB DUP5 CALLER PUSH2 0x1A64 JUMP JUMPDEST CALLVALUE PUSH2 0x1E9 JUMPI PUSH1 0x0 CALLDATASIZE PUSH1 0x3 NOT ADD SLT PUSH2 0x1E9 JUMPI PUSH1 0x20 PUSH1 0x8 SLOAD PUSH1 0x40 MLOAD SWAP1 DUP2 MSTORE RETURN JUMPDEST CALLVALUE PUSH2 0x1E9 JUMPI PUSH1 0x60 CALLDATASIZE PUSH1 0x3 NOT ADD SLT PUSH2 0x1E9 JUMPI PUSH2 0xB41 PUSH2 0x15CD JUMP JUMPDEST PUSH1 0x44 CALLDATALOAD PUSH8 0xFFFFFFFFFFFFFFFF DUP2 GT PUSH2 0x1E9 JUMPI PUSH2 0xB61 SWAP1 CALLDATASIZE SWAP1 PUSH1 0x4 ADD PUSH2 0x16A6 JUMP JUMPDEST PUSH2 0xB69 PUSH2 0x1741 JUMP JUMPDEST PUSH1 0x24 CALLDATALOAD ISZERO PUSH2 0x1281 JUMPI DUP1 MLOAD ISZERO PUSH2 0x123C JUMPI PUSH1 0x1 PUSH1 0x1 PUSH1 0xA0 SHL SUB DUP3 AND ISZERO SWAP2 SWAP1 PUSH1 0x0 JUMPDEST PUSH1 0x24 CALLDATALOAD DUP2 LT PUSH2 0xB9C JUMPI PUSH1 0x20 PUSH1 0x40 MLOAD PUSH1 0x1 DUP2 MSTORE RETURN JUMPDEST PUSH1 0xB SWAP1 PUSH1 0x1 DUP3 SLOAD ADD DUP1 SWAP3 SSTORE PUSH2 0xBB0 DUP3 PUSH2 0x1F9A JUMP JUMPDEST PUSH2 0xBB9 DUP3 PUSH2 0x1F9A JUMP JUMPDEST PUSH2 0xC3F PUSH1 0x54 PUSH2 0xBC7 TIMESTAMP PUSH2 0x1F9A JUMP JUMPDEST SWAP3 PUSH1 0x40 MLOAD SWAP4 DUP5 SWAP2 PUSH1 0x20 PUSH2 0xBE3 DUP2 DUP6 ADD SWAP9 DUP10 DUP2 MLOAD SWAP4 DUP5 SWAP3 ADD PUSH2 0x1585 JUMP JUMPDEST DUP4 ADD DUP11 MLOAD SWAP1 PUSH2 0xBF9 DUP3 DUP14 PUSH1 0x20 DUP1 DUP6 ADD SWAP2 ADD PUSH2 0x1585 JUMP JUMPDEST ADD PUSH2 0xC0D DUP3 MLOAD DUP1 SWAP4 PUSH1 0x20 DUP1 DUP6 ADD SWAP2 ADD PUSH2 0x1585 JUMP JUMPDEST ADD PUSH2 0xC21 DUP3 MLOAD DUP1 SWAP4 PUSH1 0x20 DUP1 DUP6 ADD SWAP2 ADD PUSH2 0x1585 JUMP JUMPDEST ADD PREVRANDAO PUSH1 0x20 DUP3 ADD MSTORE CALLER PUSH1 0x60 SHL PUSH1 0x40 DUP3 ADD MSTORE SUB PUSH1 0x34 DUP2 ADD DUP5 MSTORE ADD DUP3 PUSH2 0x1631 JUMP JUMPDEST MLOAD SWAP1 KECCAK256 SWAP2 PUSH1 0x40 MLOAD SWAP3 DUP4 PUSH1 0x60 DUP2 ADD LT PUSH8 0xFFFFFFFFFFFFFFFF PUSH1 0x60 DUP7 ADD GT OR PUSH2 0xFC0 JUMPI PUSH1 0x60 DUP5 ADD PUSH1 0x40 MSTORE PUSH1 0x40 DUP5 MSTORE PUSH1 0x40 CALLDATASIZE PUSH1 0x20 DUP7 ADD CALLDATACOPY PUSH1 0x0 JUMPDEST PUSH1 0x20 DUP2 LT PUSH2 0x119F JUMPI POP POP PUSH1 0x40 MLOAD SWAP6 PUSH2 0xC8D DUP8 PUSH2 0x1615 JUMP JUMPDEST PUSH1 0x0 DUP8 MSTORE PUSH2 0x115B JUMPI PUSH2 0xCBE PUSH2 0xCB8 DUP3 PUSH1 0x0 MSTORE PUSH1 0x2 PUSH1 0x20 MSTORE PUSH1 0x1 PUSH1 0x1 PUSH1 0xA0 SHL SUB PUSH1 0x40 PUSH1 0x0 KECCAK256 SLOAD AND ISZERO ISZERO SWAP1 JUMP JUMPDEST ISZERO PUSH2 0x211E JUMP JUMPDEST PUSH1 0x8 SLOAD DUP2 PUSH1 0x0 MSTORE PUSH1 0x9 PUSH1 0x20 MSTORE PUSH1 0x40 PUSH1 0x0 KECCAK256 SSTORE PUSH2 0xCD9 DUP2 PUSH2 0x1F5E JUMP JUMPDEST PUSH2 0xDBF PUSH2 0x3C0 PUSH1 0x0 SWAP8 PUSH2 0xCEB DUP9 PUSH2 0x1799 JUMP JUMPDEST PUSH1 0x1 PUSH1 0x1 PUSH1 0xA0 SHL SUB DUP10 AND PUSH1 0x0 MSTORE PUSH1 0x6 PUSH1 0x20 MSTORE PUSH1 0x40 PUSH1 0x0 KECCAK256 DUP2 PUSH1 0x0 MSTORE PUSH1 0x20 MSTORE DUP5 PUSH1 0x40 PUSH1 0x0 KECCAK256 SSTORE DUP5 PUSH1 0x0 MSTORE PUSH1 0x7 PUSH1 0x20 MSTORE PUSH1 0x40 PUSH1 0x0 KECCAK256 SSTORE PUSH2 0xD42 PUSH2 0xCB8 DUP6 PUSH1 0x0 MSTORE PUSH1 0x2 PUSH1 0x20 MSTORE PUSH1 0x1 PUSH1 0x1 PUSH1 0xA0 SHL SUB PUSH1 0x40 PUSH1 0x0 KECCAK256 SLOAD AND ISZERO ISZERO SWAP1 JUMP JUMPDEST PUSH1 0x1 PUSH1 0x1 PUSH1 0xA0 SHL SUB DUP9 AND PUSH1 0x0 MSTORE PUSH1 0x3 PUSH1 0x20 MSTORE PUSH1 0x40 PUSH1 0x0 KECCAK256 PUSH1 0x1 DUP2 SLOAD ADD SWAP1 SSTORE DUP4 PUSH1 0x0 MSTORE PUSH1 0x2 PUSH1 0x20 MSTORE PUSH1 0x40 PUSH1 0x0 KECCAK256 PUSH1 0x1 PUSH1 0x1 PUSH1 0xA0 SHL SUB DUP10 AND PUSH1 0x1 PUSH1 0x1 PUSH1 0xA0 SHL SUB NOT DUP3 SLOAD AND OR SWAP1 SSTORE DUP4 PUSH1 0x1 PUSH1 0x1 PUSH1 0xA0 SHL SUB DUP10 AND PUSH1 0x0 PUSH32 0xDDF252AD1BE2C89B69C2B068FC378DAA952BA7F163C4A11628F55A4DF523B3EF DUP2 DUP1 LOG4 DUP4 DUP9 PUSH2 0x1D3A JUMP JUMPDEST PUSH1 0x40 MLOAD PUSH2 0xDCB DUP2 PUSH2 0x15F9 JUMP JUMPDEST DUP2 DUP2 MSTORE PUSH1 0x20 DUP2 ADD SWAP1 PUSH1 0x1 DUP3 MSTORE PUSH1 0x40 DUP2 ADD DUP7 DUP2 MSTORE TIMESTAMP PUSH1 0x60 DUP4 ADD MSTORE DUP6 PUSH1 0x80 DUP4 ADD MSTORE DUP4 PUSH1 0x0 MSTORE PUSH1 0xC PUSH1 0x20 MSTORE PUSH1 0x40 PUSH1 0x0 KECCAK256 SWAP3 DUP3 MLOAD DUP5 SSTORE MLOAD PUSH1 0x1 DUP5 ADD SSTORE MLOAD DUP1 MLOAD SWAP1 PUSH8 0xFFFFFFFFFFFFFFFF DUP3 GT PUSH2 0xFC0 JUMPI PUSH2 0xE23 PUSH1 0x2 DUP6 ADD SLOAD PUSH2 0x187E JUMP JUMPDEST PUSH1 0x1F DUP2 GT PUSH2 0x1114 JUMPI JUMPDEST POP PUSH1 0x20 SWAP1 PUSH1 0x1F DUP4 GT PUSH1 0x1 EQ PUSH2 0x10A3 JUMPI PUSH1 0x80 SWAP4 SWAP3 SWAP2 PUSH1 0x0 SWAP2 DUP4 PUSH2 0x1098 JUMPI JUMPDEST POP POP DUP2 PUSH1 0x1 SHL SWAP2 PUSH1 0x0 NOT SWAP1 PUSH1 0x3 SHL SHR NOT AND OR PUSH1 0x2 DUP5 ADD SSTORE JUMPDEST PUSH1 0x60 DUP2 ADD MLOAD PUSH1 0x3 DUP5 ADD SSTORE ADD MLOAD DUP1 MLOAD SWAP1 PUSH8 0xFFFFFFFFFFFFFFFF DUP3 GT PUSH2 0xFC0 JUMPI PUSH2 0xE8C PUSH1 0x4 DUP5 ADD SLOAD PUSH2 0x187E JUMP JUMPDEST PUSH1 0x1F DUP2 GT PUSH2 0x1051 JUMPI JUMPDEST POP PUSH1 0x20 SWAP1 PUSH1 0x1F DUP4 GT PUSH1 0x1 EQ PUSH2 0xFE1 JUMPI PUSH1 0x4 SWAP3 SWAP2 PUSH1 0x0 SWAP2 DUP4 PUSH2 0xFD6 JUMPI JUMPDEST POP POP DUP2 PUSH1 0x1 SHL SWAP2 PUSH1 0x0 NOT SWAP1 PUSH1 0x3 SHL SHR NOT AND OR SWAP2 ADD SSTORE JUMPDEST PUSH1 0x40 MLOAD PUSH1 0x20 DUP2 DUP7 MLOAD PUSH2 0xEDC DUP2 DUP4 DUP6 DUP12 ADD PUSH2 0x1585 JUMP JUMPDEST DUP2 ADD PUSH1 0xD DUP2 MSTORE SUB ADD SWAP1 KECCAK256 SWAP3 DUP4 SLOAD SWAP2 PUSH9 0x10000000000000000 DUP4 LT ISZERO PUSH2 0xFC0 JUMPI PUSH1 0x1 DUP4 ADD DUP1 DUP7 SSTORE DUP4 LT ISZERO PUSH2 0xFAA JUMPI DUP1 PUSH32 0x8E32B880405DAF77C57F5F9B7A1AA1172EE22183BA996399F7B8683CB5A2F6E6 SWAP4 PUSH2 0xFA5 SWAP7 PUSH1 0x0 MSTORE PUSH1 0x20 PUSH1 0x0 KECCAK256 ADD SSTORE DUP1 PUSH1 0x40 MLOAD PUSH1 0x20 DUP2 DUP6 MLOAD PUSH2 0xF50 DUP2 DUP4 DUP6 DUP11 ADD PUSH2 0x1585 JUMP JUMPDEST DUP2 ADD PUSH1 0xE DUP2 MSTORE SUB ADD SWAP1 KECCAK256 SSTORE PUSH2 0xF9D PUSH1 0x40 MLOAD SWAP3 DUP4 SWAP3 DUP4 MSTORE PUSH1 0x1 PUSH1 0x1 PUSH1 0xA0 SHL SUB DUP10 AND PUSH1 0x20 DUP5 ADD MSTORE PUSH1 0x1 PUSH1 0x40 DUP5 ADD MSTORE PUSH2 0xF8F PUSH1 0xA0 DUP1 PUSH1 0x60 DUP7 ADD MSTORE DUP5 ADD DUP10 PUSH2 0x15A8 JUMP JUMPDEST SWAP1 DUP4 DUP3 SUB PUSH1 0x80 DUP6 ADD MSTORE PUSH2 0x15A8 JUMP JUMPDEST SUB SWAP1 LOG1 PUSH2 0x210F JUMP JUMPDEST PUSH2 0xB88 JUMP JUMPDEST PUSH4 0x4E487B71 PUSH1 0xE0 SHL PUSH1 0x0 MSTORE PUSH1 0x32 PUSH1 0x4 MSTORE PUSH1 0x24 PUSH1 0x0 REVERT JUMPDEST PUSH4 0x4E487B71 PUSH1 0xE0 SHL PUSH1 0x0 MSTORE PUSH1 0x41 PUSH1 0x4 MSTORE PUSH1 0x24 PUSH1 0x0 REVERT JUMPDEST ADD MLOAD SWAP1 POP DUP11 DUP1 PUSH2 0xEB1 JUMP JUMPDEST SWAP1 PUSH1 0x4 DUP5 ADD PUSH1 0x0 MSTORE PUSH1 0x20 PUSH1 0x0 KECCAK256 SWAP2 PUSH1 0x0 JUMPDEST PUSH1 0x1F NOT DUP6 AND DUP2 LT PUSH2 0x1039 JUMPI POP SWAP2 DUP4 SWAP2 PUSH1 0x1 SWAP4 PUSH1 0x4 SWAP6 PUSH1 0x1F NOT DUP2 AND LT PUSH2 0x1020 JUMPI JUMPDEST POP POP POP DUP2 SHL ADD SWAP2 ADD SSTORE PUSH2 0xEC7 JUMP JUMPDEST ADD MLOAD PUSH1 0x0 NOT PUSH1 0xF8 DUP5 PUSH1 0x3 SHL AND SHR NOT AND SWAP1 SSTORE DUP11 DUP1 DUP1 PUSH2 0x1012 JUMP JUMPDEST SWAP2 SWAP3 PUSH1 0x20 PUSH1 0x1 DUP2 SWAP3 DUP7 DUP6 ADD MLOAD DUP2 SSTORE ADD SWAP5 ADD SWAP3 ADD PUSH2 0xFF2 JUMP JUMPDEST PUSH1 0x4 DUP5 ADD PUSH1 0x0 MSTORE PUSH1 0x20 PUSH1 0x0 KECCAK256 PUSH1 0x1F DUP5 ADD PUSH1 0x5 SHR DUP2 ADD PUSH1 0x20 DUP6 LT PUSH2 0x1091 JUMPI JUMPDEST PUSH1 0x1F DUP4 ADD PUSH1 0x5 SHR DUP3 ADD DUP2 LT PUSH2 0x1085 JUMPI POP POP PUSH2 0xE95 JUMP JUMPDEST PUSH1 0x0 DUP2 SSTORE PUSH1 0x1 ADD PUSH2 0x106F JUMP JUMPDEST POP DUP1 PUSH2 0x106F JUMP JUMPDEST ADD MLOAD SWAP1 POP DUP12 DUP1 PUSH2 0xE49 JUMP JUMPDEST SWAP1 PUSH1 0x2 DUP6 ADD PUSH1 0x0 MSTORE PUSH1 0x20 PUSH1 0x0 KECCAK256 SWAP2 PUSH1 0x0 PUSH1 0x1F NOT DUP6 AND SWAP1 JUMPDEST DUP2 DUP2 LT PUSH2 0x10FC JUMPI POP SWAP2 PUSH1 0x1 SWAP4 SWAP2 DUP6 PUSH1 0x80 SWAP8 SWAP7 SWAP5 LT PUSH2 0x10E3 JUMPI JUMPDEST POP POP POP DUP2 SHL ADD PUSH1 0x2 DUP5 ADD SSTORE PUSH2 0xE61 JUMP JUMPDEST ADD MLOAD PUSH1 0x0 NOT PUSH1 0xF8 DUP5 PUSH1 0x3 SHL AND SHR NOT AND SWAP1 SSTORE DUP12 DUP1 DUP1 PUSH2 0x10D3 JUMP JUMPDEST SWAP3 SWAP4 PUSH1 0x20 PUSH1 0x1 DUP2 SWAP3 DUP8 DUP7 ADD MLOAD DUP2 SSTORE ADD SWAP6 ADD SWAP4 ADD PUSH2 0x10BA JUMP JUMPDEST PUSH1 0x2 DUP6 ADD PUSH1 0x0 MSTORE PUSH1 0x20 PUSH1 0x0 KECCAK256 PUSH1 0x1F DUP5 ADD PUSH1 0x5 SHR DUP2 ADD PUSH1 0x20 DUP6 LT PUSH2 0x1154 JUMPI JUMPDEST PUSH1 0x1F DUP4 ADD PUSH1 0x5 SHR DUP3 ADD DUP2 LT PUSH2 0x1148 JUMPI POP POP PUSH2 0xE2C JUMP JUMPDEST PUSH1 0x0 DUP2 SSTORE PUSH1 0x1 ADD PUSH2 0x1132 JUMP JUMPDEST POP DUP1 PUSH2 0x1132 JUMP JUMPDEST PUSH1 0x64 PUSH1 0x40 MLOAD PUSH3 0x461BCD PUSH1 0xE5 SHL DUP2 MSTORE PUSH1 0x20 PUSH1 0x4 DUP3 ADD MSTORE PUSH1 0x20 PUSH1 0x24 DUP3 ADD MSTORE PUSH32 0x4552433732313A206D696E7420746F20746865207A65726F2061646472657373 PUSH1 0x44 DUP3 ADD MSTORE REVERT JUMPDEST PUSH2 0x11B9 PUSH1 0xF PUSH1 0xF8 SWAP10 SWAP5 SWAP6 SWAP9 SWAP7 SWAP10 SHL DUP4 DUP4 BYTE PUSH1 0xF4 SHL AND PUSH2 0x217B JUMP JUMPDEST DUP2 DUP1 PUSH1 0x1 SHL DIV PUSH1 0x2 EQ DUP3 ISZERO OR ISZERO PUSH2 0x1226 JUMPI PUSH1 0x0 BYTE PUSH2 0x11DA DUP3 PUSH1 0x1 SHL DUP11 PUSH2 0x216A JUMP JUMPDEST MSTORE8 PUSH2 0x11EF DUP3 DUP3 BYTE PUSH1 0xF8 SHL PUSH1 0xF PUSH1 0xF8 SHL AND PUSH2 0x217B JUMP JUMPDEST SWAP1 PUSH1 0x1 DUP2 DUP2 SHL ADD DUP2 PUSH1 0x1 SHL GT PUSH2 0x1226 JUMPI PUSH2 0x121B SWAP2 PUSH1 0x0 BYTE PUSH2 0x1215 PUSH1 0x1 DUP4 DUP2 SHL ADD DUP12 PUSH2 0x216A JUMP JUMPDEST MSTORE8 PUSH2 0x210F JUMP JUMPDEST SWAP7 SWAP4 SWAP6 SWAP3 SWAP2 SWAP7 PUSH2 0xC76 JUMP JUMPDEST PUSH4 0x4E487B71 PUSH1 0xE0 SHL PUSH1 0x0 MSTORE PUSH1 0x11 PUSH1 0x4 MSTORE PUSH1 0x24 PUSH1 0x0 REVERT JUMPDEST PUSH1 0x40 MLOAD PUSH3 0x461BCD PUSH1 0xE5 SHL DUP2 MSTORE PUSH1 0x20 PUSH1 0x4 DUP3 ADD MSTORE PUSH1 0x1A PUSH1 0x24 DUP3 ADD MSTORE PUSH32 0x50726F6A6563742049442063616E6E6F7420626520656D707479000000000000 PUSH1 0x44 DUP3 ADD MSTORE PUSH1 0x64 SWAP1 REVERT JUMPDEST PUSH1 0x64 PUSH1 0x40 MLOAD PUSH3 0x461BCD PUSH1 0xE5 SHL DUP2 MSTORE PUSH1 0x20 PUSH1 0x4 DUP3 ADD MSTORE PUSH1 0x20 PUSH1 0x24 DUP3 ADD MSTORE PUSH32 0x416D6F756E74206D7573742062652067726561746572207468616E207A65726F PUSH1 0x44 DUP3 ADD MSTORE REVERT JUMPDEST CALLVALUE PUSH2 0x1E9 JUMPI PUSH1 0x40 CALLDATASIZE PUSH1 0x3 NOT ADD SLT PUSH2 0x1E9 JUMPI PUSH2 0x12DE PUSH2 0x15CD JUMP JUMPDEST PUSH1 0x24 CALLDATALOAD SWAP1 PUSH1 0x1 PUSH1 0x1 PUSH1 0xA0 SHL SUB DUP1 DUP1 PUSH2 0x12F5 DUP6 PUSH2 0x185C JUMP JUMPDEST AND SWAP3 AND SWAP2 DUP1 DUP4 EQ PUSH2 0x13F0 JUMPI DUP1 CALLER EQ SWAP1 DUP2 ISZERO PUSH2 0x13CB JUMPI JUMPDEST POP ISZERO PUSH2 0x1360 JUMPI DUP3 PUSH1 0x0 MSTORE PUSH1 0x4 PUSH1 0x20 MSTORE PUSH1 0x40 PUSH1 0x0 KECCAK256 DUP3 PUSH1 0x1 PUSH1 0x1 PUSH1 0xA0 SHL SUB NOT DUP3 SLOAD AND OR SWAP1 SSTORE PUSH2 0x1338 DUP4 PUSH2 0x185C JUMP JUMPDEST AND PUSH32 0x8C5BE1E5EBEC7D5BD14F71427D1E84F3DD0314C0F7B2291E5B200AC8C7C3B925 PUSH1 0x0 DUP1 LOG4 STOP JUMPDEST PUSH1 0x40 MLOAD PUSH3 0x461BCD PUSH1 0xE5 SHL DUP2 MSTORE PUSH1 0x20 PUSH1 0x4 DUP3 ADD MSTORE PUSH1 0x3D PUSH1 0x24 DUP3 ADD MSTORE PUSH32 0x4552433732313A20617070726F76652063616C6C6572206973206E6F7420746F PUSH1 0x44 DUP3 ADD MSTORE PUSH32 0x6B656E206F776E6572206F7220617070726F76656420666F7220616C6C000000 PUSH1 0x64 DUP3 ADD MSTORE PUSH1 0x84 SWAP1 REVERT JUMPDEST SWAP1 POP PUSH1 0x0 MSTORE PUSH1 0x5 PUSH1 0x20 MSTORE PUSH1 0x40 PUSH1 0x0 KECCAK256 CALLER PUSH1 0x0 MSTORE PUSH1 0x20 MSTORE PUSH1 0xFF PUSH1 0x40 PUSH1 0x0 KECCAK256 SLOAD AND DUP5 PUSH2 0x130B JUMP JUMPDEST PUSH1 0x40 MLOAD PUSH3 0x461BCD PUSH1 0xE5 SHL DUP2 MSTORE PUSH1 0x20 PUSH1 0x4 DUP3 ADD MSTORE PUSH1 0x21 PUSH1 0x24 DUP3 ADD MSTORE PUSH32 0x4552433732313A20617070726F76616C20746F2063757272656E74206F776E65 PUSH1 0x44 DUP3 ADD MSTORE PUSH1 0x39 PUSH1 0xF9 SHL PUSH1 0x64 DUP3 ADD MSTORE PUSH1 0x84 SWAP1 REVERT JUMPDEST CALLVALUE PUSH2 0x1E9 JUMPI PUSH1 0x20 CALLDATASIZE PUSH1 0x3 NOT ADD SLT PUSH2 0x1E9 JUMPI PUSH1 0x20 PUSH2 0x963 PUSH1 0x4 CALLDATALOAD PUSH2 0x195E JUMP JUMPDEST CALLVALUE PUSH2 0x1E9 JUMPI PUSH1 0x0 CALLDATASIZE PUSH1 0x3 NOT ADD SLT PUSH2 0x1E9 JUMPI PUSH1 0x40 MLOAD PUSH1 0x0 DUP1 SLOAD PUSH2 0x147E DUP2 PUSH2 0x187E JUMP JUMPDEST DUP1 DUP5 MSTORE SWAP1 PUSH1 0x1 SWAP1 DUP2 DUP2 AND SWAP1 DUP2 ISZERO PUSH2 0x54F JUMPI POP PUSH1 0x1 EQ PUSH2 0x14A7 JUMPI PUSH2 0x33B DUP5 PUSH2 0x4E2 DUP2 DUP7 SUB DUP3 PUSH2 0x1631 JUMP JUMPDEST PUSH1 0x0 DUP1 DUP1 MSTORE SWAP3 POP PUSH32 0x290DECD9548B62A8D60345A988386FC84BA6BC95484008F6362F93160EF3E563 JUMPDEST DUP3 DUP5 LT PUSH2 0x14E8 JUMPI POP POP POP DUP2 ADD PUSH1 0x20 ADD PUSH2 0x4E2 DUP3 PUSH2 0x4D2 JUMP JUMPDEST DUP1 SLOAD PUSH1 0x20 DUP6 DUP8 ADD DUP2 ADD SWAP2 SWAP1 SWAP2 MSTORE SWAP1 SWAP4 ADD SWAP3 DUP2 ADD PUSH2 0x14D0 JUMP JUMPDEST CALLVALUE PUSH2 0x1E9 JUMPI PUSH1 0x20 CALLDATASIZE PUSH1 0x3 NOT ADD SLT PUSH2 0x1E9 JUMPI PUSH1 0x4 CALLDATALOAD SWAP1 PUSH4 0xFFFFFFFF PUSH1 0xE0 SHL DUP3 AND DUP1 SWAP3 SUB PUSH2 0x1E9 JUMPI PUSH1 0x20 SWAP2 PUSH4 0x780E9D63 PUSH1 0xE0 SHL DUP2 EQ SWAP1 DUP2 ISZERO PUSH2 0x1542 JUMPI JUMPDEST POP ISZERO ISZERO DUP2 MSTORE RETURN JUMPDEST PUSH4 0x80AC58CD PUSH1 0xE0 SHL DUP2 EQ SWAP2 POP DUP2 ISZERO PUSH2 0x1574 JUMPI JUMPDEST DUP2 ISZERO PUSH2 0x1563 JUMPI JUMPDEST POP DUP4 PUSH2 0x153B JUMP JUMPDEST PUSH4 0x1FFC9A7 PUSH1 0xE0 SHL EQ SWAP1 POP DUP4 PUSH2 0x155C JUMP JUMPDEST PUSH4 0x5B5E139F PUSH1 0xE0 SHL DUP2 EQ SWAP2 POP PUSH2 0x1555 JUMP JUMPDEST PUSH1 0x0 JUMPDEST DUP4 DUP2 LT PUSH2 0x1598 JUMPI POP POP PUSH1 0x0 SWAP2 ADD MSTORE JUMP JUMPDEST DUP2 DUP2 ADD MLOAD DUP4 DUP3 ADD MSTORE PUSH1 0x20 ADD PUSH2 0x1588 JUMP JUMPDEST SWAP1 PUSH1 0x20 SWAP2 PUSH2 0x15C1 DUP2 MLOAD DUP1 SWAP3 DUP2 DUP6 MSTORE DUP6 DUP1 DUP7 ADD SWAP2 ADD PUSH2 0x1585 JUMP JUMPDEST PUSH1 0x1F ADD PUSH1 0x1F NOT AND ADD ADD SWAP1 JUMP JUMPDEST PUSH1 0x4 CALLDATALOAD SWAP1 PUSH1 0x1 PUSH1 0x1 PUSH1 0xA0 SHL SUB DUP3 AND DUP3 SUB PUSH2 0x1E9 JUMPI JUMP JUMPDEST PUSH1 0x24 CALLDATALOAD SWAP1 PUSH1 0x1 PUSH1 0x1 PUSH1 0xA0 SHL SUB DUP3 AND DUP3 SUB PUSH2 0x1E9 JUMPI JUMP JUMPDEST PUSH1 0xA0 DUP2 ADD SWAP1 DUP2 LT PUSH8 0xFFFFFFFFFFFFFFFF DUP3 GT OR PUSH2 0xFC0 JUMPI PUSH1 0x40 MSTORE JUMP JUMPDEST PUSH1 0x20 DUP2 ADD SWAP1 DUP2 LT PUSH8 0xFFFFFFFFFFFFFFFF DUP3 GT OR PUSH2 0xFC0 JUMPI PUSH1 0x40 MSTORE JUMP JUMPDEST SWAP1 PUSH1 0x1F DUP1 NOT SWAP2 ADD AND DUP2 ADD SWAP1 DUP2 LT PUSH8 0xFFFFFFFFFFFFFFFF DUP3 GT OR PUSH2 0xFC0 JUMPI PUSH1 0x40 MSTORE JUMP JUMPDEST PUSH8 0xFFFFFFFFFFFFFFFF DUP2 GT PUSH2 0xFC0 JUMPI PUSH1 0x1F ADD PUSH1 0x1F NOT AND PUSH1 0x20 ADD SWAP1 JUMP JUMPDEST SWAP3 SWAP2 SWAP3 PUSH2 0x167B DUP3 PUSH2 0x1653 JUMP JUMPDEST SWAP2 PUSH2 0x1689 PUSH1 0x40 MLOAD SWAP4 DUP5 PUSH2 0x1631 JUMP JUMPDEST DUP3 SWAP5 DUP2 DUP5 MSTORE DUP2 DUP4 ADD GT PUSH2 0x1E9 JUMPI DUP3 DUP2 PUSH1 0x20 SWAP4 DUP5 PUSH1 0x0 SWAP7 ADD CALLDATACOPY ADD ADD MSTORE JUMP JUMPDEST SWAP1 DUP1 PUSH1 0x1F DUP4 ADD SLT ISZERO PUSH2 0x1E9 JUMPI DUP2 PUSH1 0x20 PUSH2 0x16C1 SWAP4 CALLDATALOAD SWAP2 ADD PUSH2 0x166F JUMP JUMPDEST SWAP1 JUMP JUMPDEST PUSH1 0x60 SWAP1 PUSH1 0x3 NOT ADD SLT PUSH2 0x1E9 JUMPI PUSH1 0x1 PUSH1 0x1 PUSH1 0xA0 SHL SUB SWAP1 PUSH1 0x4 CALLDATALOAD DUP3 DUP2 AND DUP2 SUB PUSH2 0x1E9 JUMPI SWAP2 PUSH1 0x24 CALLDATALOAD SWAP1 DUP2 AND DUP2 SUB PUSH2 0x1E9 JUMPI SWAP1 PUSH1 0x44 CALLDATALOAD SWAP1 JUMP JUMPDEST PUSH2 0x16C1 SWAP2 DUP2 MLOAD DUP2 MSTORE PUSH1 0x20 DUP3 ADD MLOAD PUSH1 0x20 DUP3 ADD MSTORE PUSH1 0x80 PUSH2 0x1726 PUSH1 0x40 DUP5 ADD MLOAD PUSH1 0xA0 PUSH1 0x40 DUP6 ADD MSTORE PUSH1 0xA0 DUP5 ADD SWAP1 PUSH2 0x15A8 JUMP JUMPDEST SWAP3 PUSH1 0x60 DUP2 ADD MLOAD PUSH1 0x60 DUP5 ADD MSTORE ADD MLOAD SWAP1 PUSH1 0x80 DUP2 DUP5 SUB SWAP2 ADD MSTORE PUSH2 0x15A8 JUMP JUMPDEST PUSH1 0x1 PUSH1 0x1 PUSH1 0xA0 SHL SUB PUSH1 0xA SLOAD AND CALLER SUB PUSH2 0x1755 JUMPI JUMP JUMPDEST PUSH1 0x64 PUSH1 0x40 MLOAD PUSH3 0x461BCD PUSH1 0xE5 SHL DUP2 MSTORE PUSH1 0x20 PUSH1 0x4 DUP3 ADD MSTORE PUSH1 0x20 PUSH1 0x24 DUP3 ADD MSTORE PUSH32 0x4F776E61626C653A2063616C6C6572206973206E6F7420746865206F776E6572 PUSH1 0x44 DUP3 ADD MSTORE REVERT JUMPDEST PUSH1 0x1 PUSH1 0x1 PUSH1 0xA0 SHL SUB AND DUP1 ISZERO PUSH2 0x17B9 JUMPI PUSH1 0x0 MSTORE PUSH1 0x3 PUSH1 0x20 MSTORE PUSH1 0x40 PUSH1 0x0 KECCAK256 SLOAD SWAP1 JUMP JUMPDEST PUSH1 0x40 MLOAD PUSH3 0x461BCD PUSH1 0xE5 SHL DUP2 MSTORE PUSH1 0x20 PUSH1 0x4 DUP3 ADD MSTORE PUSH1 0x29 PUSH1 0x24 DUP3 ADD MSTORE PUSH32 0x4552433732313A2061646472657373207A65726F206973206E6F742061207661 PUSH1 0x44 DUP3 ADD MSTORE PUSH9 0x3634B21037BBB732B9 PUSH1 0xB9 SHL PUSH1 0x64 DUP3 ADD MSTORE PUSH1 0x84 SWAP1 REVERT JUMPDEST ISZERO PUSH2 0x1817 JUMPI JUMP JUMPDEST PUSH1 0x40 MLOAD PUSH3 0x461BCD PUSH1 0xE5 SHL DUP2 MSTORE PUSH1 0x20 PUSH1 0x4 DUP3 ADD MSTORE PUSH1 0x18 PUSH1 0x24 DUP3 ADD MSTORE PUSH32 0x4552433732313A20696E76616C696420746F6B656E2049440000000000000000 PUSH1 0x44 DUP3 ADD MSTORE PUSH1 0x64 SWAP1 REVERT JUMPDEST PUSH1 0x0 MSTORE PUSH1 0x2 PUSH1 0x20 MSTORE PUSH1 0x1 PUSH1 0x1 PUSH1 0xA0 SHL SUB PUSH1 0x40 PUSH1 0x0 KECCAK256 SLOAD AND PUSH2 0x16C1 DUP2 ISZERO ISZERO PUSH2 0x1810 JUMP JUMPDEST SWAP1 PUSH1 0x1 DUP3 DUP2 SHR SWAP3 AND DUP1 ISZERO PUSH2 0x18AE JUMPI JUMPDEST PUSH1 0x20 DUP4 LT EQ PUSH2 0x1898 JUMPI JUMP JUMPDEST PUSH4 0x4E487B71 PUSH1 0xE0 SHL PUSH1 0x0 MSTORE PUSH1 0x22 PUSH1 0x4 MSTORE PUSH1 0x24 PUSH1 0x0 REVERT JUMPDEST SWAP2 PUSH1 0x7F AND SWAP2 PUSH2 0x188D JUMP JUMPDEST SWAP1 PUSH1 0x40 MLOAD SWAP2 DUP3 PUSH1 0x0 DUP3 SLOAD SWAP3 PUSH2 0x18CC DUP5 PUSH2 0x187E JUMP JUMPDEST SWAP1 DUP2 DUP5 MSTORE PUSH1 0x1 SWAP5 DUP6 DUP2 AND SWAP1 DUP2 PUSH1 0x0 EQ PUSH2 0x193B JUMPI POP PUSH1 0x1 EQ PUSH2 0x18F8 JUMPI JUMPDEST POP POP PUSH2 0x18F6 SWAP3 POP SUB DUP4 PUSH2 0x1631 JUMP JUMPDEST JUMP JUMPDEST SWAP1 SWAP4 SWAP2 POP PUSH1 0x0 MSTORE PUSH1 0x20 SWAP1 DUP2 PUSH1 0x0 KECCAK256 SWAP4 PUSH1 0x0 SWAP2 JUMPDEST DUP2 DUP4 LT PUSH2 0x1923 JUMPI POP POP PUSH2 0x18F6 SWAP4 POP DUP3 ADD ADD CODESIZE DUP1 PUSH2 0x18E8 JUMP JUMPDEST DUP6 SLOAD DUP9 DUP5 ADD DUP6 ADD MSTORE SWAP5 DUP6 ADD SWAP5 DUP8 SWAP5 POP SWAP2 DUP4 ADD SWAP2 PUSH2 0x190B JUMP JUMPDEST SWAP2 POP POP PUSH2 0x18F6 SWAP5 POP PUSH1 0x20 SWAP3 POP PUSH1 0xFF NOT AND DUP3 DUP5 ADD MSTORE ISZERO ISZERO PUSH1 0x5 SHL DUP3 ADD ADD CODESIZE DUP1 PUSH2 0x18E8 JUMP JUMPDEST PUSH2 0x1981 PUSH2 0x300 DUP3 PUSH1 0x0 MSTORE PUSH1 0x2 PUSH1 0x20 MSTORE PUSH1 0x1 PUSH1 0x1 PUSH1 0xA0 SHL SUB PUSH1 0x40 PUSH1 0x0 KECCAK256 SLOAD AND ISZERO ISZERO SWAP1 JUMP JUMPDEST PUSH1 0x0 MSTORE PUSH1 0x4 PUSH1 0x20 MSTORE PUSH1 0x1 PUSH1 0x1 PUSH1 0xA0 SHL SUB PUSH1 0x40 PUSH1 0x0 KECCAK256 SLOAD AND SWAP1 JUMP JUMPDEST ISZERO PUSH2 0x19A2 JUMPI JUMP JUMPDEST PUSH1 0x40 MLOAD PUSH3 0x461BCD PUSH1 0xE5 SHL DUP2 MSTORE PUSH1 0x20 PUSH1 0x4 DUP3 ADD MSTORE PUSH1 0x2D PUSH1 0x24 DUP3 ADD MSTORE PUSH32 0x4552433732313A2063616C6C6572206973206E6F7420746F6B656E206F776E65 PUSH1 0x44 DUP3 ADD MSTORE PUSH13 0x1C881BDC88185C1C1C9BDD9959 PUSH1 0x9A SHL PUSH1 0x64 DUP3 ADD MSTORE PUSH1 0x84 SWAP1 REVERT JUMPDEST ISZERO PUSH2 0x1A04 JUMPI JUMP JUMPDEST PUSH1 0x40 MLOAD PUSH3 0x461BCD PUSH1 0xE5 SHL DUP2 MSTORE PUSH1 0x20 PUSH1 0x4 DUP3 ADD MSTORE PUSH1 0x32 PUSH1 0x24 DUP3 ADD MSTORE PUSH32 0x4552433732313A207472616E7366657220746F206E6F6E204552433732315265 PUSH1 0x44 DUP3 ADD MSTORE PUSH18 0x31B2B4BB32B91034B6B83632B6B2B73A32B9 PUSH1 0x71 SHL PUSH1 0x64 DUP3 ADD MSTORE PUSH1 0x84 SWAP1 REVERT JUMPDEST SWAP1 PUSH1 0x1 PUSH1 0x1 PUSH1 0xA0 SHL SUB DUP1 DUP1 PUSH2 0x1A78 DUP5 PUSH2 0x185C JUMP JUMPDEST AND SWAP4 AND SWAP2 DUP4 DUP4 EQ SWAP4 DUP5 ISZERO PUSH2 0x1AAB JUMPI JUMPDEST POP DUP4 ISZERO PUSH2 0x1A95 JUMPI JUMPDEST POP POP POP SWAP1 JUMP JUMPDEST PUSH2 0x1AA1 SWAP2 SWAP3 SWAP4 POP PUSH2 0x195E JUMP JUMPDEST AND EQ CODESIZE DUP1 DUP1 PUSH2 0x1A8F JUMP JUMPDEST SWAP1 SWAP4 POP PUSH1 0x0 MSTORE PUSH1 0x5 PUSH1 0x20 MSTORE PUSH1 0x40 PUSH1 0x0 KECCAK256 DUP3 PUSH1 0x0 MSTORE PUSH1 0x20 MSTORE PUSH1 0xFF PUSH1 0x40 PUSH1 0x0 KECCAK256 SLOAD AND SWAP3 CODESIZE PUSH2 0x1A87 JUMP JUMPDEST ISZERO PUSH2 0x1AD9 JUMPI JUMP JUMPDEST PUSH1 0x40 MLOAD PUSH3 0x461BCD PUSH1 0xE5 SHL DUP2 MSTORE PUSH1 0x20 PUSH1 0x4 DUP3 ADD MSTORE PUSH1 0x25 PUSH1 0x24 DUP3 ADD MSTORE PUSH32 0x4552433732313A207472616E736665722066726F6D20696E636F727265637420 PUSH1 0x44 DUP3 ADD MSTORE PUSH5 0x37BBB732B9 PUSH1 0xD9 SHL PUSH1 0x64 DUP3 ADD MSTORE PUSH1 0x84 SWAP1 REVERT JUMPDEST PUSH2 0x1B50 SWAP2 PUSH2 0x1B39 DUP5 PUSH2 0x185C JUMP JUMPDEST PUSH1 0x1 PUSH1 0x1 PUSH1 0xA0 SHL SUB SWAP4 DUP5 DUP5 AND SWAP4 SWAP2 DUP6 AND DUP5 EQ PUSH2 0x1AD2 JUMP JUMPDEST DUP4 DUP3 AND SWAP4 DUP5 ISZERO PUSH2 0x1CE9 JUMPI DUP4 SWAP2 DUP3 PUSH2 0x1C46 JUMPI POP PUSH2 0x1B9A SWAP3 PUSH1 0x8 SLOAD DUP8 PUSH1 0x0 MSTORE PUSH1 0x9 PUSH1 0x20 MSTORE PUSH1 0x40 PUSH1 0x0 KECCAK256 SSTORE PUSH2 0x1B81 DUP8 PUSH2 0x1F5E JUMP JUMPDEST DUP3 DUP7 SUB PUSH2 0x1C13 JUMPI JUMPDEST POP PUSH2 0x1B93 DUP7 PUSH2 0x185C JUMP JUMPDEST AND EQ PUSH2 0x1AD2 JUMP JUMPDEST PUSH32 0xDDF252AD1BE2C89B69C2B068FC378DAA952BA7F163C4A11628F55A4DF523B3EF PUSH1 0x0 DUP5 DUP2 MSTORE PUSH1 0x4 PUSH1 0x20 MSTORE PUSH1 0x40 DUP2 KECCAK256 PUSH1 0x1 PUSH1 0x1 PUSH1 0xA0 SHL SUB NOT SWAP1 DUP2 DUP2 SLOAD AND SWAP1 SSTORE DUP4 DUP3 MSTORE PUSH1 0x3 PUSH1 0x20 MSTORE PUSH1 0x40 DUP3 KECCAK256 PUSH1 0x0 NOT DUP2 SLOAD ADD SWAP1 SSTORE DUP5 DUP3 MSTORE PUSH1 0x40 DUP3 KECCAK256 PUSH1 0x1 DUP2 SLOAD ADD SWAP1 SSTORE DUP6 DUP3 MSTORE PUSH1 0x2 PUSH1 0x20 MSTORE DUP5 PUSH1 0x40 DUP4 KECCAK256 SWAP2 DUP3 SLOAD AND OR SWAP1 SSTORE DUP1 LOG4 JUMP JUMPDEST PUSH2 0x1C1C SWAP1 PUSH2 0x1799 JUMP JUMPDEST PUSH1 0x40 PUSH1 0x0 DUP8 DUP2 MSTORE PUSH1 0x6 PUSH1 0x20 MSTORE DUP2 DUP2 KECCAK256 DUP4 DUP3 MSTORE PUSH1 0x20 MSTORE DUP9 DUP3 DUP3 KECCAK256 SSTORE DUP9 DUP2 MSTORE PUSH1 0x7 PUSH1 0x20 MSTORE KECCAK256 SSTORE CODESIZE PUSH2 0x1B89 JUMP JUMPDEST DUP6 DUP4 SUB PUSH2 0x1C58 JUMPI JUMPDEST POP PUSH2 0x1B9A SWAP3 PUSH2 0x1B81 JUMP JUMPDEST PUSH2 0x1C63 SWAP2 SWAP3 POP PUSH2 0x1799 JUMP JUMPDEST PUSH1 0x0 NOT DUP2 ADD SWAP2 SWAP1 DUP3 GT PUSH2 0x1226 JUMPI PUSH2 0x1B9A SWAP3 DUP5 SWAP3 PUSH1 0x0 SWAP1 DUP9 DUP3 MSTORE PUSH1 0x20 SWAP1 PUSH1 0x7 DUP3 MSTORE PUSH1 0x40 SWAP2 DUP3 DUP5 KECCAK256 SLOAD DUP3 DUP2 SUB PUSH2 0x1CB2 JUMPI JUMPDEST POP DUP11 DUP5 MSTORE DUP4 DUP4 DUP2 KECCAK256 SSTORE DUP7 DUP5 MSTORE PUSH1 0x6 DUP2 MSTORE DUP3 DUP5 KECCAK256 SWAP2 DUP5 MSTORE MSTORE DUP2 KECCAK256 SSTORE SWAP3 PUSH2 0x1C4E JUMP JUMPDEST DUP8 DUP6 MSTORE PUSH1 0x6 DUP3 MSTORE DUP4 DUP6 KECCAK256 DUP4 DUP7 MSTORE DUP3 MSTORE DUP4 DUP6 KECCAK256 SLOAD DUP9 DUP7 MSTORE PUSH1 0x6 DUP4 MSTORE DUP5 DUP7 KECCAK256 DUP3 DUP8 MSTORE DUP4 MSTORE DUP1 DUP6 DUP8 KECCAK256 SSTORE DUP6 MSTORE PUSH1 0x7 DUP3 MSTORE DUP4 DUP6 KECCAK256 SSTORE CODESIZE PUSH2 0x1C92 JUMP JUMPDEST PUSH1 0x40 MLOAD PUSH3 0x461BCD PUSH1 0xE5 SHL DUP2 MSTORE PUSH1 0x20 PUSH1 0x4 DUP3 ADD MSTORE PUSH1 0x24 DUP1 DUP3 ADD MSTORE PUSH32 0x4552433732313A207472616E7366657220746F20746865207A65726F20616464 PUSH1 0x44 DUP3 ADD MSTORE PUSH4 0x72657373 PUSH1 0xE0 SHL PUSH1 0x64 DUP3 ADD MSTORE PUSH1 0x84 SWAP1 REVERT JUMPDEST SWAP2 SWAP3 SWAP1 SWAP2 DUP1 EXTCODESIZE ISZERO PUSH2 0x1E96 JUMPI PUSH2 0x1D8F SWAP4 PUSH1 0x40 MLOAD SWAP1 DUP2 PUSH4 0xA85BD01 PUSH1 0xE1 SHL SWAP4 DUP5 DUP3 MSTORE CALLER PUSH1 0x4 DUP4 ADD MSTORE PUSH1 0x0 SWAP7 DUP8 PUSH1 0x24 DUP5 ADD MSTORE PUSH1 0x44 DUP4 ADD MSTORE PUSH1 0x80 PUSH1 0x64 DUP4 ADD MSTORE DUP2 DUP8 PUSH1 0x1 PUSH1 0x1 PUSH1 0xA0 SHL SUB DUP3 PUSH1 0x20 SWAP12 DUP13 SWAP8 PUSH1 0x84 DUP4 ADD SWAP1 PUSH2 0x15A8 JUMP JUMPDEST SUB SWAP4 AND GAS CALL DUP5 SWAP2 DUP2 PUSH2 0x1E52 JUMPI JUMPDEST POP PUSH2 0x1E41 JUMPI POP POP POP RETURNDATASIZE PUSH1 0x0 EQ PUSH2 0x1E39 JUMPI RETURNDATASIZE PUSH2 0x1DB6 DUP2 PUSH2 0x1653 JUMP JUMPDEST SWAP1 PUSH2 0x1DC4 PUSH1 0x40 MLOAD SWAP3 DUP4 PUSH2 0x1631 JUMP JUMPDEST DUP2 MSTORE DUP1 SWAP2 DUP4 RETURNDATASIZE SWAP3 ADD RETURNDATACOPY JUMPDEST DUP1 MLOAD SWAP2 DUP3 PUSH2 0x1E36 JUMPI PUSH1 0x40 MLOAD PUSH3 0x461BCD PUSH1 0xE5 SHL DUP2 MSTORE PUSH1 0x20 PUSH1 0x4 DUP3 ADD MSTORE PUSH1 0x32 PUSH1 0x24 DUP3 ADD MSTORE PUSH32 0x4552433732313A207472616E7366657220746F206E6F6E204552433732315265 PUSH1 0x44 DUP3 ADD MSTORE PUSH18 0x31B2B4BB32B91034B6B83632B6B2B73A32B9 PUSH1 0x71 SHL PUSH1 0x64 DUP3 ADD MSTORE PUSH1 0x84 SWAP1 REVERT JUMPDEST ADD REVERT JUMPDEST POP PUSH1 0x60 PUSH2 0x1DCE JUMP JUMPDEST PUSH1 0x1 PUSH1 0x1 PUSH1 0xE0 SHL SUB NOT AND EQ SWAP3 POP SWAP1 POP JUMP JUMPDEST SWAP1 SWAP2 POP DUP6 DUP2 DUP2 RETURNDATASIZE DUP4 GT PUSH2 0x1E8F JUMPI JUMPDEST PUSH2 0x1E6A DUP2 DUP4 PUSH2 0x1631 JUMP JUMPDEST DUP2 ADD SUB SLT PUSH2 0x1E8B JUMPI MLOAD PUSH1 0x1 PUSH1 0x1 PUSH1 0xE0 SHL SUB NOT DUP2 AND DUP2 SUB PUSH2 0x1E8B JUMPI SWAP1 CODESIZE PUSH2 0x1D9C JUMP JUMPDEST DUP5 DUP1 REVERT JUMPDEST POP RETURNDATASIZE PUSH2 0x1E60 JUMP JUMPDEST POP SWAP2 POP POP PUSH1 0x1 SWAP1 JUMP JUMPDEST SWAP3 SWAP4 SWAP2 SWAP1 DUP1 EXTCODESIZE ISZERO PUSH2 0x1F1D JUMPI PUSH2 0x1EF2 SWAP5 PUSH1 0x40 MLOAD DUP1 SWAP3 PUSH4 0xA85BD01 PUSH1 0xE1 SHL SWAP5 DUP6 DUP4 MSTORE CALLER PUSH1 0x4 DUP5 ADD MSTORE PUSH1 0x1 PUSH1 0x1 PUSH1 0xA0 SHL SUB DUP1 SWAP9 AND PUSH1 0x24 DUP5 ADD MSTORE PUSH1 0x44 DUP4 ADD MSTORE PUSH1 0x80 PUSH1 0x64 DUP4 ADD MSTORE DUP2 DUP1 PUSH1 0x20 SWAP10 DUP11 SWAP6 PUSH1 0x84 DUP4 ADD SWAP1 PUSH2 0x15A8 JUMP JUMPDEST SUB SWAP2 PUSH1 0x0 SWAP9 DUP10 SWAP2 AND GAS CALL DUP5 SWAP2 DUP2 PUSH2 0x1E52 JUMPI POP PUSH2 0x1E41 JUMPI POP POP POP RETURNDATASIZE PUSH1 0x0 EQ PUSH2 0x1E39 JUMPI RETURNDATASIZE PUSH2 0x1DB6 DUP2 PUSH2 0x1653 JUMP JUMPDEST POP POP SWAP2 POP POP PUSH1 0x1 SWAP1 JUMP JUMPDEST PUSH1 0x8 SLOAD DUP2 LT ISZERO PUSH2 0xFAA JUMPI PUSH1 0x8 PUSH1 0x0 MSTORE PUSH32 0xF3F7A9FE364FAAB93B216DA50A3214154F22A0A2B415B23A84C8169E8B636EE3 ADD SWAP1 PUSH1 0x0 SWAP1 JUMP JUMPDEST PUSH1 0x8 SLOAD PUSH9 0x10000000000000000 DUP2 LT ISZERO PUSH2 0xFC0 JUMPI DUP1 PUSH1 0x1 PUSH2 0x1F82 SWAP3 ADD PUSH1 0x8 SSTORE PUSH2 0x1F27 JUMP JUMPDEST DUP2 SWAP3 SWAP2 SLOAD SWAP1 PUSH1 0x3 SHL SWAP2 DUP3 SHL SWAP2 PUSH1 0x0 NOT SWAP1 SHL NOT AND OR SWAP1 SSTORE JUMP JUMPDEST DUP1 PUSH1 0x0 SWAP2 PUSH27 0x184F03E93FF9F4DAA797ED6E38ED64BF6A1F010000000000000000 DUP1 DUP3 LT ISZERO PUSH2 0x2101 JUMPI JUMPDEST POP PUSH14 0x4EE2D6D415B85ACEF8100000000 DUP1 DUP4 LT ISZERO PUSH2 0x20F2 JUMPI JUMPDEST POP PUSH7 0x2386F26FC10000 DUP1 DUP4 LT ISZERO PUSH2 0x20E3 JUMPI JUMPDEST POP PUSH4 0x5F5E100 DUP1 DUP4 LT ISZERO PUSH2 0x20D4 JUMPI JUMPDEST POP PUSH2 0x2710 DUP1 DUP4 LT ISZERO PUSH2 0x20C5 JUMPI JUMPDEST POP PUSH1 0x64 DUP3 LT ISZERO PUSH2 0x20B5 JUMPI JUMPDEST PUSH1 0xA DUP1 SWAP3 LT ISZERO PUSH2 0x20AB JUMPI JUMPDEST PUSH1 0x1 SWAP1 DUP2 PUSH1 0x21 DUP2 DUP7 ADD SWAP6 PUSH2 0x2033 DUP8 PUSH2 0x1653 JUMP JUMPDEST SWAP7 PUSH2 0x2041 PUSH1 0x40 MLOAD SWAP9 DUP10 PUSH2 0x1631 JUMP JUMPDEST DUP1 DUP9 MSTORE PUSH2 0x2050 PUSH1 0x1F NOT SWAP2 PUSH2 0x1653 JUMP JUMPDEST ADD CALLDATASIZE PUSH1 0x20 DUP10 ADD CALLDATACOPY DUP7 ADD ADD SWAP1 JUMPDEST PUSH2 0x2068 JUMPI JUMPDEST POP POP POP POP SWAP1 JUMP JUMPDEST PUSH1 0x0 NOT ADD SWAP1 DUP4 SWAP1 PUSH32 0x3031323334353637383961626364656600000000000000000000000000000000 DUP3 DUP3 MOD BYTE DUP4 MSTORE8 DIV SWAP2 DUP3 ISZERO PUSH2 0x20A6 JUMPI SWAP2 SWAP1 DUP3 PUSH2 0x205C JUMP JUMPDEST PUSH2 0x2061 JUMP JUMPDEST SWAP2 PUSH1 0x1 ADD SWAP2 PUSH2 0x2020 JUMP JUMPDEST SWAP2 SWAP1 PUSH1 0x64 PUSH1 0x2 SWAP2 DIV SWAP2 ADD SWAP2 PUSH2 0x2015 JUMP JUMPDEST PUSH1 0x4 SWAP2 SWAP4 SWAP3 DIV SWAP2 ADD SWAP2 CODESIZE PUSH2 0x200A JUMP JUMPDEST PUSH1 0x8 SWAP2 SWAP4 SWAP3 DIV SWAP2 ADD SWAP2 CODESIZE PUSH2 0x1FFD JUMP JUMPDEST PUSH1 0x10 SWAP2 SWAP4 SWAP3 DIV SWAP2 ADD SWAP2 CODESIZE PUSH2 0x1FEE JUMP JUMPDEST PUSH1 0x20 SWAP2 SWAP4 SWAP3 DIV SWAP2 ADD SWAP2 CODESIZE PUSH2 0x1FDC JUMP JUMPDEST PUSH1 0x40 SWAP4 POP DUP2 DIV SWAP2 POP CODESIZE PUSH2 0x1FC3 JUMP JUMPDEST PUSH1 0x0 NOT DUP2 EQ PUSH2 0x1226 JUMPI PUSH1 0x1 ADD SWAP1 JUMP JUMPDEST ISZERO PUSH2 0x2125 JUMPI JUMP JUMPDEST PUSH1 0x40 MLOAD PUSH3 0x461BCD PUSH1 0xE5 SHL DUP2 MSTORE PUSH1 0x20 PUSH1 0x4 DUP3 ADD MSTORE PUSH1 0x1C PUSH1 0x24 DUP3 ADD MSTORE PUSH32 0x4552433732313A20746F6B656E20616C7265616479206D696E74656400000000 PUSH1 0x44 DUP3 ADD MSTORE PUSH1 0x64 SWAP1 REVERT JUMPDEST SWAP1 DUP2 MLOAD DUP2 LT ISZERO PUSH2 0xFAA JUMPI ADD PUSH1 0x20 ADD SWAP1 JUMP JUMPDEST PUSH1 0xF8 SHR PUSH1 0xA DUP2 LT ISZERO PUSH2 0x21A2 JUMPI PUSH1 0x30 ADD PUSH1 0xFF DUP2 GT PUSH2 0x1226 JUMPI PUSH1 0xF8 SHL PUSH1 0x1 PUSH1 0x1 PUSH1 0xF8 SHL SUB NOT AND SWAP1 JUMP JUMPDEST PUSH1 0x57 ADD PUSH1 0xFF DUP2 GT PUSH2 0x1226 JUMPI PUSH1 0xF8 SHL PUSH1 0x1 PUSH1 0x1 PUSH1 0xF8 SHL SUB NOT AND SWAP1 JUMP JUMPDEST PUSH1 0x40 MLOAD SWAP1 PUSH2 0x21CA DUP3 PUSH2 0x15F9 JUMP JUMPDEST PUSH1 0x60 PUSH1 0x80 DUP4 PUSH1 0x0 DUP2 MSTORE PUSH1 0x0 PUSH1 0x20 DUP3 ADD MSTORE DUP3 PUSH1 0x40 DUP3 ADD MSTORE PUSH1 0x0 DUP4 DUP3 ADD MSTORE ADD MSTORE JUMP JUMPDEST PUSH8 0xFFFFFFFFFFFFFFFF DUP2 GT PUSH2 0xFC0 JUMPI PUSH1 0x5 SHL PUSH1 0x20 ADD SWAP1 JUMP JUMPDEST DUP1 MLOAD DUP3 LT ISZERO PUSH2 0xFAA JUMPI PUSH1 0x20 SWAP2 PUSH1 0x5 SHL ADD ADD SWAP1 JUMP INVALID LOG2 PUSH5 0x6970667358 0x22 SLT KECCAK256 REVERT PUSH25 0xFA66E406E1C5BF5D0469D4C1F94798F985D61EADA35EF35B53 JUMPDEST CALLVALUE DUP10 MSTORE 0x49 PUSH5 0x736F6C6343 STOP ADDMOD EQ STOP CALLER "
        },
        "methodIdentifiers": {
          "approve(address,uint256)": "095ea7b3",
          "balanceOf(address)": "70a08231",
          "getApproved(uint256)": "081812fc",
          "getCertificateByHash(string)": "66242c5e",
          "getProjectCertificates(string)": "800d0994",
          "isApprovedForAll(address,address)": "e985e9c5",
          "issueCertificate(address,uint256,string)": "0ce51f56",
          "name()": "06fdde03",
          "owner()": "8da5cb5b",
          "ownerOf(uint256)": "6352211e",
          "renounceOwnership()": "715018a6",
          "safeTransferFrom(address,address,uint256)": "42842e0e",
          "safeTransferFrom(address,address,uint256,bytes)": "b88d4fde",
          "setApprovalForAll(address,bool)": "a22cb465",
          "supportsInterface(bytes4)": "01ffc9a7",
          "symbol()": "95d89b41",
          "tokenByIndex(uint256)": "4f6ccce7",
          "tokenOfOwnerByIndex(address,uint256)": "2f745c59",
          "tokenURI(uint256)": "c87b56dd",
          "totalSupply()": "18160ddd",
          "transferCertificate(uint256,address)": "cf3ae934",
          "transferFrom(address,address,uint256)": "23b872dd",
          "transferOwnership(address)": "f2fde38b",
          "verifyCertificate(string)": "8b23d875"
        }
      }
    }
  }
}