{
  "contracts/Contract.sol": {
    "CarbonCertificate": {
      "abi": [
        {
          "inputs": [],
          "stateMutability": "nonpayable",
          "type": "constructor"
        },
        {
          "anonymous": false,
          "inputs": [
            {
              "indexed": true,
              "internalType": "uint256",
              "name": "tokenId",
              "type": "uint256"
            },
            {
              "indexed": true,
              "internalType": "address",
              "name": "recipient",
              "type": "address"
            },
            {
              "indexed": false,
              "internalType": "uint256",
              "name": "carbonAmount",
              "type": "uint256"
            },
            {
              "indexed": false,
              "internalType": "string",
              "name": "projectId",
              "type": "string"
            }
          ],
          "name": "CertificateIssued",
          "type": "event"
        },
        {
          "inputs": [
            {
              "internalType": "uint256",
              "name": "tokenId",
              "type": "uint256"
            }
          ],
          "name": "getCertificate",
          "outputs": [
            {
              "components": [
                {
                  "internalType": "uint256",
                  "name": "carbonAmount",
                  "type": "uint256"
                },
                {
                  "internalType": "string",
                  "name": "projectId",
                  "type": "string"
                },
                {
                  "internalType": "uint256",
                  "name": "issueDate",
                  "type": "uint256"
                }
              ],
              "internalType": "struct CarbonCertificate.Certificate",
              "name": "",
              "type": "tuple"
            }
          ],
          "stateMutability": "view",
          "type": "function"
        },
        {
          "inputs": [
            {
              "internalType": "address",
              "name": "owner",
              "type": "address"
            }
          ],
          "name": "getOwnedTokens",
          "outputs": [
            {
              "internalType": "uint256[]",
              "name": "",
              "type": "uint256[]"
            }
          ],
          "stateMutability": "view",
          "type": "function"
        },
        {
          "inputs": [
            {
              "internalType": "address",
              "name": "recipient",
              "type": "address"
            },
            {
              "internalType": "uint256",
              "name": "carbonAmount",
              "type": "uint256"
            },
            {
              "internalType": "string",
              "name": "projectId",
              "type": "string"
            }
          ],
          "name": "issueCertificate",
          "outputs": [
            {
              "internalType": "uint256[]",
              "name": "",
              "type": "uint256[]"
            }
          ],
          "stateMutability": "nonpayable",
          "type": "function"
        }
      ],
      "evm": {
        "bytecode": {
          "linkReferences": {},
          "object": "608080604052346100165761075d908161001c8239f35b600080fdfe6080604052600436101561001257600080fd5b60003560e01c80630ce51f561461025157806351640fee146100c95763d9d616551461003d57600080fd5b346100c4576020806003193601126100c4576001600160a01b0361005f6105e1565b166000526001808252604060002091604051918282855491828152019460005282600020926000905b8282106100af576100ab8661009f818a0382610613565b60405191829182610635565b0390f35b84548752958601959383019390830190610088565b600080fd5b346100c4576020806003193601126100c4576004356000604080516100ed816105f7565b8281526060858201520152806000526002825260ff604060002054161561020c576000526000815260406000208160405191610128836105f7565b80548352600180820190604051938492600092815491610147836106ed565b808752928281169081156101eb57506001146101af575b50505050916101746002926101a4940385610613565b85850193845201549160408401928352604051948594818652519085015251606060408501526080840190610670565b905160608301520390f35b6000908152838120939450925b8284106101d55750505082010185826101a4600261015e565b80548885018601528795509284019281016101bc565b60ff191687860152505050151560051b830101905085826101a4600261015e565b60405162461bcd60e51b815260048101839052601460248201527f546f6b656e20646f6573206e6f742065786973740000000000000000000000006044820152606490fd5b346100c45760603660031901126100c45761026a6105e1565b60443567ffffffffffffffff81116100c457366023820112156100c45780600401359067ffffffffffffffff82116104b1576102b1601f8301601f19166020016080610613565b8160805236602483830101116100c457600091602091819060240160a03760800101526024351561058c576102e76024356106b0565b906102f56040519283610613565b6024358252601f196103086024356106b0565b0136602084013760005b602435811061032957604051806100ab8582610635565b6103346003546106c8565b9081600355604051610345816105f7565b60018152602081019060808252426040820152836000526000602052604060002091815183555180519067ffffffffffffffff82116104b15761038b60018501546106ed565b601f8111610545575b50602090601f83116001146104d2576040939291600091836104c7575b50508160011b916000199060031b1c19161760018401555b01516002809201556001600160a01b038416600052600160205260406000208054680100000000000000008110156104b1576001810180835581101561049b57849160005260206000200155826000526020526040600020600160ff19825416179055835181101561049b57816104969260208360051b870101526040519060018252604060208301527f70e9dd7b2d7680ff10a6b1f6b97fe2e9888eb3098a9e2ee66104994c8c751adc6001600160a01b038616928061048e604082016080610670565b0390a36106c8565b610312565b634e487b7160e01b600052603260045260246000fd5b634e487b7160e01b600052604160045260246000fd5b0151905089806103b1565b906001850160005260206000209160005b601f198516811061052d575091839160019360409695601f19811610610514575b505050811b0160018401556103c9565b015160001960f88460031b161c19169055898080610504565b818301518455600190930192602092830192016104e3565b600185016000526020600020601f840160051c810160208510610585575b601f830160051c82018110610579575050610394565b60008155600101610563565b5080610563565b60405162461bcd60e51b815260206004820152602760248201527f436172626f6e20616d6f756e74206d7573742062652067726561746572207468604482015266616e207a65726f60c81b6064820152608490fd5b600435906001600160a01b03821682036100c457565b6060810190811067ffffffffffffffff8211176104b157604052565b90601f8019910116810190811067ffffffffffffffff8211176104b157604052565b6020908160408183019282815285518094520193019160005b82811061065c575050505090565b83518552938101939281019260010161064e565b919082519283825260005b84811061069c575050826000602080949584010152601f8019910116010190565b60208183018101518483018201520161067b565b67ffffffffffffffff81116104b15760051b60200190565b60001981146106d75760010190565b634e487b7160e01b600052601160045260246000fd5b90600182811c9216801561071d575b602083101461070757565b634e487b7160e01b600052602260045260246000fd5b91607f16916106fc56fea2646970667358221220edf9047dffcfad5331eb14e4e5321aa5122bb04b56bb3b26d18ca85dc6c4645764736f6c63430008140033",
          "opcodes": "PUSH1 0x80 DUP1 PUSH1 0x40 MSTORE CALLVALUE PUSH2 0x16 JUMPI PUSH2 0x75D SWAP1 DUP2 PUSH2 0x1C DUP3 CODECOPY RETURN JUMPDEST PUSH1 0x0 DUP1 REVERT INVALID PUSH1 0x80 PUSH1 0x40 MSTORE PUSH1 0x4 CALLDATASIZE LT ISZERO PUSH2 0x12 JUMPI PUSH1 0x0 DUP1 REVERT JUMPDEST PUSH1 0x0 CALLDATALOAD PUSH1 0xE0 SHR DUP1 PUSH4 0xCE51F56 EQ PUSH2 0x251 JUMPI DUP1 PUSH4 0x51640FEE EQ PUSH2 0xC9 JUMPI PUSH4 0xD9D61655 EQ PUSH2 0x3D JUMPI PUSH1 0x0 DUP1 REVERT JUMPDEST CALLVALUE PUSH2 0xC4 JUMPI PUSH1 0x20 DUP1 PUSH1 0x3 NOT CALLDATASIZE ADD SLT PUSH2 0xC4 JUMPI PUSH1 0x1 PUSH1 0x1 PUSH1 0xA0 SHL SUB PUSH2 0x5F PUSH2 0x5E1 JUMP JUMPDEST AND PUSH1 0x0 MSTORE PUSH1 0x1 DUP1 DUP3 MSTORE PUSH1 0x40 PUSH1 0x0 KECCAK256 SWAP2 PUSH1 0x40 MLOAD SWAP2 DUP3 DUP3 DUP6 SLOAD SWAP2 DUP3 DUP2 MSTORE ADD SWAP5 PUSH1 0x0 MSTORE DUP3 PUSH1 0x0 KECCAK256 SWAP3 PUSH1 0x0 SWAP1 JUMPDEST DUP3 DUP3 LT PUSH2 0xAF JUMPI PUSH2 0xAB DUP7 PUSH2 0x9F DUP2 DUP11 SUB DUP3 PUSH2 0x613 JUMP JUMPDEST PUSH1 0x40 MLOAD SWAP2 DUP3 SWAP2 DUP3 PUSH2 0x635 JUMP JUMPDEST SUB SWAP1 RETURN JUMPDEST DUP5 SLOAD DUP8 MSTORE SWAP6 DUP7 ADD SWAP6 SWAP4 DUP4 ADD SWAP4 SWAP1 DUP4 ADD SWAP1 PUSH2 0x88 JUMP JUMPDEST PUSH1 0x0 DUP1 REVERT JUMPDEST CALLVALUE PUSH2 0xC4 JUMPI PUSH1 0x20 DUP1 PUSH1 0x3 NOT CALLDATASIZE ADD SLT PUSH2 0xC4 JUMPI PUSH1 0x4 CALLDATALOAD PUSH1 0x0 PUSH1 0x40 DUP1 MLOAD PUSH2 0xED DUP2 PUSH2 0x5F7 JUMP JUMPDEST DUP3 DUP2 MSTORE PUSH1 0x60 DUP6 DUP3 ADD MSTORE ADD MSTORE DUP1 PUSH1 0x0 MSTORE PUSH1 0x2 DUP3 MSTORE PUSH1 0xFF PUSH1 0x40 PUSH1 0x0 KECCAK256 SLOAD AND ISZERO PUSH2 0x20C JUMPI PUSH1 0x0 MSTORE PUSH1 0x0 DUP2 MSTORE PUSH1 0x40 PUSH1 0x0 KECCAK256 DUP2 PUSH1 0x40 MLOAD SWAP2 PUSH2 0x128 DUP4 PUSH2 0x5F7 JUMP JUMPDEST DUP1 SLOAD DUP4 MSTORE PUSH1 0x1 DUP1 DUP3 ADD SWAP1 PUSH1 0x40 MLOAD SWAP4 DUP5 SWAP3 PUSH1 0x0 SWAP3 DUP2 SLOAD SWAP2 PUSH2 0x147 DUP4 PUSH2 0x6ED JUMP JUMPDEST DUP1 DUP8 MSTORE SWAP3 DUP3 DUP2 AND SWAP1 DUP2 ISZERO PUSH2 0x1EB JUMPI POP PUSH1 0x1 EQ PUSH2 0x1AF JUMPI JUMPDEST POP POP POP POP SWAP2 PUSH2 0x174 PUSH1 0x2 SWAP3 PUSH2 0x1A4 SWAP5 SUB DUP6 PUSH2 0x613 JUMP JUMPDEST DUP6 DUP6 ADD SWAP4 DUP5 MSTORE ADD SLOAD SWAP2 PUSH1 0x40 DUP5 ADD SWAP3 DUP4 MSTORE PUSH1 0x40 MLOAD SWAP5 DUP6 SWAP5 DUP2 DUP7 MSTORE MLOAD SWAP1 DUP6 ADD MSTORE MLOAD PUSH1 0x60 PUSH1 0x40 DUP6 ADD MSTORE PUSH1 0x80 DUP5 ADD SWAP1 PUSH2 0x670 JUMP JUMPDEST SWAP1 MLOAD PUSH1 0x60 DUP4 ADD MSTORE SUB SWAP1 RETURN JUMPDEST PUSH1 0x0 SWAP1 DUP2 MSTORE DUP4 DUP2 KECCAK256 SWAP4 SWAP5 POP SWAP3 JUMPDEST DUP3 DUP5 LT PUSH2 0x1D5 JUMPI POP POP POP DUP3 ADD ADD DUP6 DUP3 PUSH2 0x1A4 PUSH1 0x2 PUSH2 0x15E JUMP JUMPDEST DUP1 SLOAD DUP9 DUP6 ADD DUP7 ADD MSTORE DUP8 SWAP6 POP SWAP3 DUP5 ADD SWAP3 DUP2 ADD PUSH2 0x1BC JUMP JUMPDEST PUSH1 0xFF NOT AND DUP8 DUP7 ADD MSTORE POP POP POP ISZERO ISZERO PUSH1 0x5 SHL DUP4 ADD ADD SWAP1 POP DUP6 DUP3 PUSH2 0x1A4 PUSH1 0x2 PUSH2 0x15E JUMP JUMPDEST PUSH1 0x40 MLOAD PUSH3 0x461BCD PUSH1 0xE5 SHL DUP2 MSTORE PUSH1 0x4 DUP2 ADD DUP4 SWAP1 MSTORE PUSH1 0x14 PUSH1 0x24 DUP3 ADD MSTORE PUSH32 0x546F6B656E20646F6573206E6F74206578697374000000000000000000000000 PUSH1 0x44 DUP3 ADD MSTORE PUSH1 0x64 SWAP1 REVERT JUMPDEST CALLVALUE PUSH2 0xC4 JUMPI PUSH1 0x60 CALLDATASIZE PUSH1 0x3 NOT ADD SLT PUSH2 0xC4 JUMPI PUSH2 0x26A PUSH2 0x5E1 JUMP JUMPDEST PUSH1 0x44 CALLDATALOAD PUSH8 0xFFFFFFFFFFFFFFFF DUP2 GT PUSH2 0xC4 JUMPI CALLDATASIZE PUSH1 0x23 DUP3 ADD SLT ISZERO PUSH2 0xC4 JUMPI DUP1 PUSH1 0x4 ADD CALLDATALOAD SWAP1 PUSH8 0xFFFFFFFFFFFFFFFF DUP3 GT PUSH2 0x4B1 JUMPI PUSH2 0x2B1 PUSH1 0x1F DUP4 ADD PUSH1 0x1F NOT AND PUSH1 0x20 ADD PUSH1 0x80 PUSH2 0x613 JUMP JUMPDEST DUP2 PUSH1 0x80 MSTORE CALLDATASIZE PUSH1 0x24 DUP4 DUP4 ADD ADD GT PUSH2 0xC4 JUMPI PUSH1 0x0 SWAP2 PUSH1 0x20 SWAP2 DUP2 SWAP1 PUSH1 0x24 ADD PUSH1 0xA0 CALLDATACOPY PUSH1 0x80 ADD ADD MSTORE PUSH1 0x24 CALLDATALOAD ISZERO PUSH2 0x58C JUMPI PUSH2 0x2E7 PUSH1 0x24 CALLDATALOAD PUSH2 0x6B0 JUMP JUMPDEST SWAP1 PUSH2 0x2F5 PUSH1 0x40 MLOAD SWAP3 DUP4 PUSH2 0x613 JUMP JUMPDEST PUSH1 0x24 CALLDATALOAD DUP3 MSTORE PUSH1 0x1F NOT PUSH2 0x308 PUSH1 0x24 CALLDATALOAD PUSH2 0x6B0 JUMP JUMPDEST ADD CALLDATASIZE PUSH1 0x20 DUP5 ADD CALLDATACOPY PUSH1 0x0 JUMPDEST PUSH1 0x24 CALLDATALOAD DUP2 LT PUSH2 0x329 JUMPI PUSH1 0x40 MLOAD DUP1 PUSH2 0xAB DUP6 DUP3 PUSH2 0x635 JUMP JUMPDEST PUSH2 0x334 PUSH1 0x3 SLOAD PUSH2 0x6C8 JUMP JUMPDEST SWAP1 DUP2 PUSH1 0x3 SSTORE PUSH1 0x40 MLOAD PUSH2 0x345 DUP2 PUSH2 0x5F7 JUMP JUMPDEST PUSH1 0x1 DUP2 MSTORE PUSH1 0x20 DUP2 ADD SWAP1 PUSH1 0x80 DUP3 MSTORE TIMESTAMP PUSH1 0x40 DUP3 ADD MSTORE DUP4 PUSH1 0x0 MSTORE PUSH1 0x0 PUSH1 0x20 MSTORE PUSH1 0x40 PUSH1 0x0 KECCAK256 SWAP2 DUP2 MLOAD DUP4 SSTORE MLOAD DUP1 MLOAD SWAP1 PUSH8 0xFFFFFFFFFFFFFFFF DUP3 GT PUSH2 0x4B1 JUMPI PUSH2 0x38B PUSH1 0x1 DUP6 ADD SLOAD PUSH2 0x6ED JUMP JUMPDEST PUSH1 0x1F DUP2 GT PUSH2 0x545 JUMPI JUMPDEST POP PUSH1 0x20 SWAP1 PUSH1 0x1F DUP4 GT PUSH1 0x1 EQ PUSH2 0x4D2 JUMPI PUSH1 0x40 SWAP4 SWAP3 SWAP2 PUSH1 0x0 SWAP2 DUP4 PUSH2 0x4C7 JUMPI JUMPDEST POP POP DUP2 PUSH1 0x1 SHL SWAP2 PUSH1 0x0 NOT SWAP1 PUSH1 0x3 SHL SHR NOT AND OR PUSH1 0x1 DUP5 ADD SSTORE JUMPDEST ADD MLOAD PUSH1 0x2 DUP1 SWAP3 ADD SSTORE PUSH1 0x1 PUSH1 0x1 PUSH1 0xA0 SHL SUB DUP5 AND PUSH1 0x0 MSTORE PUSH1 0x1 PUSH1 0x20 MSTORE PUSH1 0x40 PUSH1 0x0 KECCAK256 DUP1 SLOAD PUSH9 0x10000000000000000 DUP2 LT ISZERO PUSH2 0x4B1 JUMPI PUSH1 0x1 DUP2 ADD DUP1 DUP4 SSTORE DUP2 LT ISZERO PUSH2 0x49B JUMPI DUP5 SWAP2 PUSH1 0x0 MSTORE PUSH1 0x20 PUSH1 0x0 KECCAK256 ADD SSTORE DUP3 PUSH1 0x0 MSTORE PUSH1 0x20 MSTORE PUSH1 0x40 PUSH1 0x0 KECCAK256 PUSH1 0x1 PUSH1 0xFF NOT DUP3 SLOAD AND OR SWAP1 SSTORE DUP4 MLOAD DUP2 LT ISZERO PUSH2 0x49B JUMPI DUP2 PUSH2 0x496 SWAP3 PUSH1 0x20 DUP4 PUSH1 0x5 SHL DUP8 ADD ADD MSTORE PUSH1 0x40 MLOAD SWAP1 PUSH1 0x1 DUP3 MSTORE PUSH1 0x40 PUSH1 0x20 DUP4 ADD MSTORE PUSH32 0x70E9DD7B2D7680FF10A6B1F6B97FE2E9888EB3098A9E2EE66104994C8C751ADC PUSH1 0x1 PUSH1 0x1 PUSH1 0xA0 SHL SUB DUP7 AND SWAP3 DUP1 PUSH2 0x48E PUSH1 0x40 DUP3 ADD PUSH1 0x80 PUSH2 0x670 JUMP JUMPDEST SUB SWAP1 LOG3 PUSH2 0x6C8 JUMP JUMPDEST PUSH2 0x312 JUMP JUMPDEST PUSH4 0x4E487B71 PUSH1 0xE0 SHL PUSH1 0x0 MSTORE PUSH1 0x32 PUSH1 0x4 MSTORE PUSH1 0x24 PUSH1 0x0 REVERT JUMPDEST PUSH4 0x4E487B71 PUSH1 0xE0 SHL PUSH1 0x0 MSTORE PUSH1 0x41 PUSH1 0x4 MSTORE PUSH1 0x24 PUSH1 0x0 REVERT JUMPDEST ADD MLOAD SWAP1 POP DUP10 DUP1 PUSH2 0x3B1 JUMP JUMPDEST SWAP1 PUSH1 0x1 DUP6 ADD PUSH1 0x0 MSTORE PUSH1 0x20 PUSH1 0x0 KECCAK256 SWAP2 PUSH1 0x0 JUMPDEST PUSH1 0x1F NOT DUP6 AND DUP2 LT PUSH2 0x52D JUMPI POP SWAP2 DUP4 SWAP2 PUSH1 0x1 SWAP4 PUSH1 0x40 SWAP7 SWAP6 PUSH1 0x1F NOT DUP2 AND LT PUSH2 0x514 JUMPI JUMPDEST POP POP POP DUP2 SHL ADD PUSH1 0x1 DUP5 ADD SSTORE PUSH2 0x3C9 JUMP JUMPDEST ADD MLOAD PUSH1 0x0 NOT PUSH1 0xF8 DUP5 PUSH1 0x3 SHL AND SHR NOT AND SWAP1 SSTORE DUP10 DUP1 DUP1 PUSH2 0x504 JUMP JUMPDEST DUP2 DUP4 ADD MLOAD DUP5 SSTORE PUSH1 0x1 SWAP1 SWAP4 ADD SWAP3 PUSH1 0x20 SWAP3 DUP4 ADD SWAP3 ADD PUSH2 0x4E3 JUMP JUMPDEST PUSH1 0x1 DUP6 ADD PUSH1 0x0 MSTORE PUSH1 0x20 PUSH1 0x0 KECCAK256 PUSH1 0x1F DUP5 ADD PUSH1 0x5 SHR DUP2 ADD PUSH1 0x20 DUP6 LT PUSH2 0x585 JUMPI JUMPDEST PUSH1 0x1F DUP4 ADD PUSH1 0x5 SHR DUP3 ADD DUP2 LT PUSH2 0x579 JUMPI POP POP PUSH2 0x394 JUMP JUMPDEST PUSH1 0x0 DUP2 SSTORE PUSH1 0x1 ADD PUSH2 0x563 JUMP JUMPDEST POP DUP1 PUSH2 0x563 JUMP JUMPDEST PUSH1 0x40 MLOAD PUSH3 0x461BCD PUSH1 0xE5 SHL DUP2 MSTORE PUSH1 0x20 PUSH1 0x4 DUP3 ADD MSTORE PUSH1 0x27 PUSH1 0x24 DUP3 ADD MSTORE PUSH32 0x436172626F6E20616D6F756E74206D7573742062652067726561746572207468 PUSH1 0x44 DUP3 ADD MSTORE PUSH7 0x616E207A65726F PUSH1 0xC8 SHL PUSH1 0x64 DUP3 ADD MSTORE PUSH1 0x84 SWAP1 REVERT JUMPDEST PUSH1 0x4 CALLDATALOAD SWAP1 PUSH1 0x1 PUSH1 0x1 PUSH1 0xA0 SHL SUB DUP3 AND DUP3 SUB PUSH2 0xC4 JUMPI JUMP JUMPDEST PUSH1 0x60 DUP2 ADD SWAP1 DUP2 LT PUSH8 0xFFFFFFFFFFFFFFFF DUP3 GT OR PUSH2 0x4B1 JUMPI PUSH1 0x40 MSTORE JUMP JUMPDEST SWAP1 PUSH1 0x1F DUP1 NOT SWAP2 ADD AND DUP2 ADD SWAP1 DUP2 LT PUSH8 0xFFFFFFFFFFFFFFFF DUP3 GT OR PUSH2 0x4B1 JUMPI PUSH1 0x40 MSTORE JUMP JUMPDEST PUSH1 0x20 SWAP1 DUP2 PUSH1 0x40 DUP2 DUP4 ADD SWAP3 DUP3 DUP2 MSTORE DUP6 MLOAD DUP1 SWAP5 MSTORE ADD SWAP4 ADD SWAP2 PUSH1 0x0 JUMPDEST DUP3 DUP2 LT PUSH2 0x65C JUMPI POP POP POP POP SWAP1 JUMP JUMPDEST DUP4 MLOAD DUP6 MSTORE SWAP4 DUP2 ADD SWAP4 SWAP3 DUP2 ADD SWAP3 PUSH1 0x1 ADD PUSH2 0x64E JUMP JUMPDEST SWAP2 SWAP1 DUP3 MLOAD SWAP3 DUP4 DUP3 MSTORE PUSH1 0x0 JUMPDEST DUP5 DUP2 LT PUSH2 0x69C JUMPI POP POP DUP3 PUSH1 0x0 PUSH1 0x20 DUP1 SWAP5 SWAP6 DUP5 ADD ADD MSTORE PUSH1 0x1F DUP1 NOT SWAP2 ADD AND ADD ADD SWAP1 JUMP JUMPDEST PUSH1 0x20 DUP2 DUP4 ADD DUP2 ADD MLOAD DUP5 DUP4 ADD DUP3 ADD MSTORE ADD PUSH2 0x67B JUMP JUMPDEST PUSH8 0xFFFFFFFFFFFFFFFF DUP2 GT PUSH2 0x4B1 JUMPI PUSH1 0x5 SHL PUSH1 0x20 ADD SWAP1 JUMP JUMPDEST PUSH1 0x0 NOT DUP2 EQ PUSH2 0x6D7 JUMPI PUSH1 0x1 ADD SWAP1 JUMP JUMPDEST PUSH4 0x4E487B71 PUSH1 0xE0 SHL PUSH1 0x0 MSTORE PUSH1 0x11 PUSH1 0x4 MSTORE PUSH1 0x24 PUSH1 0x0 REVERT JUMPDEST SWAP1 PUSH1 0x1 DUP3 DUP2 SHR SWAP3 AND DUP1 ISZERO PUSH2 0x71D JUMPI JUMPDEST PUSH1 0x20 DUP4 LT EQ PUSH2 0x707 JUMPI JUMP JUMPDEST PUSH4 0x4E487B71 PUSH1 0xE0 SHL PUSH1 0x0 MSTORE PUSH1 0x22 PUSH1 0x4 MSTORE PUSH1 0x24 PUSH1 0x0 REVERT JUMPDEST SWAP2 PUSH1 0x7F AND SWAP2 PUSH2 0x6FC JUMP INVALID LOG2 PUSH5 0x6970667358 0x22 SLT KECCAK256 0xED 0xF9 DIV PUSH30 0xFFCFAD5331EB14E4E5321AA5122BB04B56BB3B26D18CA85DC6C464576473 PUSH16 0x6C634300081400330000000000000000 "
        },
        "methodIdentifiers": {
          "getCertificate(uint256)": "51640fee",
          "getOwnedTokens(address)": "d9d61655",
          "issueCertificate(address,uint256,string)": "0ce51f56"
        }
      }
    }
  }
}